{
  "contractName": "CapitalHero",
  "abi": [
    {
      "inputs": [
        {
          "name": "_context",
          "type": "address"
        }
      ],
      "payable": false,
      "stateMutability": "nonpayable",
      "type": "constructor"
    },
    {
      "anonymous": false,
      "inputs": [
        {
          "indexed": false,
          "name": "_sessionId",
          "type": "uint256"
        },
        {
          "indexed": false,
          "name": "_maxBalance",
          "type": "uint256"
        }
      ],
      "name": "RequestSended",
      "type": "event"
    },
    {
      "anonymous": false,
      "inputs": [
        {
          "indexed": false,
          "name": "_sessionId",
          "type": "uint256"
        },
        {
          "indexed": false,
          "name": "_cashInId",
          "type": "uint256"
        }
      ],
      "name": "CashInOpened",
      "type": "event"
    },
    {
      "anonymous": false,
      "inputs": [
        {
          "indexed": false,
          "name": "_sessionId",
          "type": "uint256"
        },
        {
          "indexed": false,
          "name": "_cashInId",
          "type": "uint256"
        },
        {
          "indexed": false,
          "name": "_amount",
          "type": "uint256"
        }
      ],
      "name": "CashInUpdate",
      "type": "event"
    },
    {
      "anonymous": false,
      "inputs": [
        {
          "indexed": false,
          "name": "_sessionId",
          "type": "uint256"
        }
      ],
      "name": "CashInFail",
      "type": "event"
    },
    {
      "anonymous": false,
      "inputs": [
        {
          "indexed": false,
          "name": "_sessionId",
          "type": "uint256"
        }
      ],
      "name": "SessionCloseAccepted",
      "type": "event"
    },
    {
      "anonymous": false,
      "inputs": [
        {
          "indexed": false,
          "name": "_sessionId",
          "type": "uint256"
        }
      ],
      "name": "SessionCloseSuccess",
      "type": "event"
    },
    {
      "anonymous": false,
      "inputs": [
        {
          "indexed": false,
          "name": "_sessionId",
          "type": "uint256"
        }
      ],
      "name": "SessionCloseFail",
      "type": "event"
    },
    {
      "anonymous": false,
      "inputs": [
        {
          "indexed": false,
          "name": "_sessionId",
          "type": "uint256"
        }
      ],
      "name": "GetKioskInfoAccepted",
      "type": "event"
    },
    {
      "anonymous": false,
      "inputs": [
        {
          "indexed": false,
          "name": "_sessionId",
          "type": "uint256"
        },
        {
          "indexed": false,
          "name": "_id",
          "type": "string"
        },
        {
          "indexed": false,
          "name": "_location",
          "type": "string"
        },
        {
          "indexed": false,
          "name": "_name",
          "type": "string"
        },
        {
          "indexed": false,
          "name": "_timezone",
          "type": "string"
        },
        {
          "indexed": false,
          "name": "_bills",
          "type": "uint256[]"
        },
        {
          "indexed": false,
          "name": "_amounts",
          "type": "uint256[]"
        }
      ],
      "name": "GetKioskInfoSuccess",
      "type": "event"
    },
    {
      "anonymous": false,
      "inputs": [
        {
          "indexed": false,
          "name": "_sessionId",
          "type": "uint256"
        }
      ],
      "name": "GetKioskInfoFail",
      "type": "event"
    },
    {
      "anonymous": false,
      "inputs": [],
      "name": "OpenCashOutAccepted",
      "type": "event"
    },
    {
      "anonymous": false,
      "inputs": [
        {
          "indexed": false,
          "name": "_requestId",
          "type": "string"
        },
        {
          "indexed": false,
          "name": "_kioskId",
          "type": "string"
        },
        {
          "indexed": false,
          "name": "_cashOutId",
          "type": "uint256"
        },
        {
          "indexed": false,
          "name": "_fee",
          "type": "uint256"
        }
      ],
      "name": "OpenCashOutSuccess",
      "type": "event"
    },
    {
      "anonymous": false,
      "inputs": [
        {
          "indexed": false,
          "name": "_kioskId",
          "type": "string"
        },
        {
          "indexed": false,
          "name": "_requestId",
          "type": "string"
        }
      ],
      "name": "OpenCashOutFailed",
      "type": "event"
    },
    {
      "anonymous": false,
      "inputs": [],
      "name": "ValidateCashOutAccepted",
      "type": "event"
    },
    {
      "anonymous": false,
      "inputs": [
        {
          "indexed": false,
          "name": "_sessionId",
          "type": "uint256"
        },
        {
          "indexed": false,
          "name": "_cashOutId",
          "type": "uint256"
        }
      ],
      "name": "ValidateCashOutSuccess",
      "type": "event"
    },
    {
      "anonymous": false,
      "inputs": [
        {
          "indexed": false,
          "name": "_sessionId",
          "type": "uint256"
        },
        {
          "indexed": false,
          "name": "_cashOutId",
          "type": "uint256"
        }
      ],
      "name": "ValidateCashOutFailed",
      "type": "event"
    },
    {
      "anonymous": false,
      "inputs": [],
      "name": "CloseCashOutAccepted",
      "type": "event"
    },
    {
      "anonymous": false,
      "inputs": [
        {
          "indexed": false,
          "name": "_sessionId",
          "type": "uint256"
        },
        {
          "indexed": false,
          "name": "_cashOutId",
          "type": "uint256"
        }
      ],
      "name": "CloseCashOutSuccess",
      "type": "event"
    },
    {
      "anonymous": false,
      "inputs": [
        {
          "indexed": false,
          "name": "_sessionId",
          "type": "uint256"
        },
        {
          "indexed": false,
          "name": "_cashOutId",
          "type": "uint256"
        }
      ],
      "name": "CloseCashOutFailed",
      "type": "event"
    },
    {
      "anonymous": false,
      "inputs": [],
      "name": "RollbackCashOutAccepted",
      "type": "event"
    },
    {
      "anonymous": false,
      "inputs": [
        {
          "indexed": false,
          "name": "_cashOutId",
          "type": "uint256"
        }
      ],
      "name": "RollbackCashOutSuccess",
      "type": "event"
    },
    {
      "anonymous": false,
      "inputs": [
        {
          "indexed": false,
          "name": "_cashOutId",
          "type": "uint256"
        }
      ],
      "name": "RollbackCashOutFailed",
      "type": "event"
    },
    {
      "constant": false,
      "inputs": [
        {
          "name": "_sessionId",
          "type": "uint256"
        },
        {
          "name": "_maxBalance",
          "type": "uint256"
        }
      ],
      "name": "open",
      "outputs": [],
      "payable": false,
      "stateMutability": "nonpayable",
      "type": "function"
    },
    {
      "constant": false,
      "inputs": [
        {
          "name": "_sessionId",
          "type": "uint256"
        }
      ],
      "name": "_openFail",
      "outputs": [],
      "payable": false,
      "stateMutability": "nonpayable",
      "type": "function"
    },
    {
      "constant": false,
      "inputs": [
        {
          "name": "_sessionId",
          "type": "uint256"
        },
        {
          "name": "_cashInId",
          "type": "uint256"
        }
      ],
      "name": "_openSuccess",
      "outputs": [],
      "payable": false,
      "stateMutability": "nonpayable",
      "type": "function"
    },
    {
      "constant": false,
      "inputs": [
        {
          "name": "_sessionId",
          "type": "uint256"
        },
        {
          "name": "_cashInId",
          "type": "uint256"
        },
        {
          "name": "_amount",
          "type": "uint256"
        }
      ],
      "name": "_balanceUpdate",
      "outputs": [],
      "payable": false,
      "stateMutability": "nonpayable",
      "type": "function"
    },
    {
      "constant": false,
      "inputs": [
        {
          "name": "_sessionId",
          "type": "uint256"
        }
      ],
      "name": "closeSession",
      "outputs": [],
      "payable": false,
      "stateMutability": "nonpayable",
      "type": "function"
    },
    {
      "constant": false,
      "inputs": [
        {
          "name": "_sessionId",
          "type": "uint256"
        }
      ],
      "name": "__successSessionClose",
      "outputs": [],
      "payable": false,
      "stateMutability": "nonpayable",
      "type": "function"
    },
    {
      "constant": false,
      "inputs": [
        {
          "name": "_sessionId",
          "type": "uint256"
        }
      ],
      "name": "__failSessionClose",
      "outputs": [],
      "payable": false,
      "stateMutability": "nonpayable",
      "type": "function"
    },
    {
      "constant": false,
      "inputs": [
        {
          "name": "_sessionId",
          "type": "uint256"
        }
      ],
      "name": "getKioskInfo",
      "outputs": [],
      "payable": false,
      "stateMutability": "nonpayable",
      "type": "function"
    },
    {
      "constant": false,
      "inputs": [
        {
          "name": "_sessionId",
          "type": "uint256"
        },
        {
          "name": "_id",
          "type": "string"
        },
        {
          "name": "_location",
          "type": "string"
        },
        {
          "name": "_name",
          "type": "string"
        },
        {
          "name": "_timezone",
          "type": "string"
        },
        {
          "name": "_bills",
          "type": "uint256[]"
        },
        {
          "name": "_amounts",
          "type": "uint256[]"
        }
      ],
      "name": "__kioskInfoSuccess",
      "outputs": [],
      "payable": false,
      "stateMutability": "nonpayable",
      "type": "function"
    },
    {
      "constant": false,
      "inputs": [
        {
          "name": "_sessionId",
          "type": "uint256"
        }
      ],
      "name": "__kioskInfoFail",
      "outputs": [],
      "payable": false,
      "stateMutability": "nonpayable",
      "type": "function"
    },
    {
      "constant": false,
      "inputs": [
        {
          "name": "_requestId",
          "type": "string"
        },
        {
          "name": "_kioskId",
          "type": "string"
        },
        {
          "name": "_toWithdraw",
          "type": "uint256"
        },
        {
          "name": "_fees",
          "type": "uint256[]"
        },
        {
          "name": "_parties",
          "type": "address[]"
        }
      ],
      "name": "openCashOut",
      "outputs": [],
      "payable": false,
      "stateMutability": "nonpayable",
      "type": "function"
    },
    {
      "constant": false,
      "inputs": [
        {
          "name": "_requestId",
          "type": "string"
        },
        {
          "name": "_kioskId",
          "type": "string"
        },
        {
          "name": "_cashOutId",
          "type": "uint256"
        },
        {
          "name": "_fee",
          "type": "uint256"
        }
      ],
      "name": "__successOpenCashOut",
      "outputs": [],
      "payable": false,
      "stateMutability": "nonpayable",
      "type": "function"
    },
    {
      "constant": false,
      "inputs": [
        {
          "name": "_requestId",
          "type": "string"
        },
        {
          "name": "_kioskId",
          "type": "string"
        }
      ],
      "name": "__failOpenCashOut",
      "outputs": [],
      "payable": false,
      "stateMutability": "nonpayable",
      "type": "function"
    },
    {
      "constant": false,
      "inputs": [
        {
          "name": "_sessionId",
          "type": "uint256"
        },
        {
          "name": "_cashOutId",
          "type": "uint256"
        }
      ],
      "name": "validateCashOut",
      "outputs": [],
      "payable": false,
      "stateMutability": "nonpayable",
      "type": "function"
    },
    {
      "constant": false,
      "inputs": [
        {
          "name": "_sessionId",
          "type": "uint256"
        },
        {
          "name": "_cashOutId",
          "type": "uint256"
        }
      ],
      "name": "__successValidateCashOut",
      "outputs": [],
      "payable": false,
      "stateMutability": "nonpayable",
      "type": "function"
    },
    {
      "constant": false,
      "inputs": [
        {
          "name": "_sessionId",
          "type": "uint256"
        },
        {
          "name": "_cashOutId",
          "type": "uint256"
        }
      ],
      "name": "__failValidateCashOut",
      "outputs": [],
      "payable": false,
      "stateMutability": "nonpayable",
      "type": "function"
    },
    {
      "constant": false,
      "inputs": [
        {
          "name": "_sessionId",
          "type": "uint256"
        },
        {
          "name": "_cashOutId",
          "type": "uint256"
        }
      ],
      "name": "closeCashOut",
      "outputs": [],
      "payable": false,
      "stateMutability": "nonpayable",
      "type": "function"
    },
    {
      "constant": false,
      "inputs": [
        {
          "name": "_sessionId",
          "type": "uint256"
        },
        {
          "name": "_cashOutId",
          "type": "uint256"
        }
      ],
      "name": "__successCloseCashOut",
      "outputs": [],
      "payable": false,
      "stateMutability": "nonpayable",
      "type": "function"
    },
    {
      "constant": false,
      "inputs": [
        {
          "name": "_sessionId",
          "type": "uint256"
        },
        {
          "name": "_cashOutId",
          "type": "uint256"
        }
      ],
      "name": "__failCloseCashOut",
      "outputs": [],
      "payable": false,
      "stateMutability": "nonpayable",
      "type": "function"
    },
    {
      "constant": false,
      "inputs": [
        {
          "name": "_cashOutId",
          "type": "uint256"
        }
      ],
      "name": "rollbackCashOut",
      "outputs": [],
      "payable": false,
      "stateMutability": "nonpayable",
      "type": "function"
    },
    {
      "constant": false,
      "inputs": [
        {
          "name": "_cashOutId",
          "type": "uint256"
        }
      ],
      "name": "__successRollbackCashOut",
      "outputs": [],
      "payable": false,
      "stateMutability": "nonpayable",
      "type": "function"
    },
    {
      "constant": false,
      "inputs": [
        {
          "name": "_cashOutId",
          "type": "uint256"
        }
      ],
      "name": "__failRollbackCashOut",
      "outputs": [],
      "payable": false,
      "stateMutability": "nonpayable",
      "type": "function"
    }
  ],
  "bytecode": "0x608060405234801561001057600080fd5b50604051602080611c85833981016040525160008054600160a060020a03909216600160a060020a0319909216919091179055611c33806100526000396000f3006080604052600436106101275763ffffffff7c01000000000000000000000000000000000000000000000000000000006000350416630cb35bff811461012c578063131daef61461014657806321c22cbf146102d057806328161702146103e05780634082de67146103fb578063497343c11461041657806354bbf7fa1461042e5780635564ee0e146104465780636b26412c1461045e5780636c1a42d1146104795780637792c9bb14610494578063892b6bcb146104af578063968a329f1461054f5780639b0e292d14610567578063a3bfdf47146105fe578063a7fed0a714610616578063b91df46014610631578063bed1348714610649578063c11afce714610661578063c25f1cef14610679578063e198662814610694578063ee3f5b51146106b2575b600080fd5b34801561013857600080fd5b506101446004356106cd565b005b34801561015257600080fd5b5060408051602060046024803582810135601f810185900485028601850190965285855261014495833595369560449491939091019190819084018382808284375050604080516020601f89358b018035918201839004830284018301909452808352979a99988101979196509182019450925082915084018382808284375050604080516020601f89358b018035918201839004830284018301909452808352979a99988101979196509182019450925082915084018382808284375050604080516020601f89358b018035918201839004830284018301909452808352979a999881019791965091820194509250829150840183828082843750506040805187358901803560208181028481018201909552818452989b9a998901989297509082019550935083925085019084908082843750506040805187358901803560208181028481018201909552818452989b9a9989019892975090820195509350839250850190849080828437509497506108229650505050505050565b3480156102dc57600080fd5b506040805160206004803580820135601f810184900484028501840190955284845261014494369492936024939284019190819084018382808284375050604080516020601f89358b018035918201839004830284018301909452808352979a99988101979196509182019450925082915084018382808284375050604080516020808901358a01803580830284810184018652818552999c8b359c909b909a950198509296508101945090925082919085019084908082843750506040805187358901803560208181028481018201909552818452989b9a998901989297509082019550935083925085019084908082843750949750610a899650505050505050565b3480156103ec57600080fd5b50610144600435602435610dfa565b34801561040757600080fd5b50610144600435602435610e39565b34801561042257600080fd5b50610144600435611042565b34801561043a57600080fd5b50610144600435611211565b34801561045257600080fd5b50610144600435611247565b34801561046a57600080fd5b5061014460043560243561127d565b34801561048557600080fd5b506101446004356024356112bc565b3480156104a057600080fd5b50610144600435602435611493565b3480156104bb57600080fd5b506040805160206004803580820135601f810184900484028501840190955284845261014494369492936024939284019190819084018382808284375050604080516020601f89358b018035918201839004830284018301909452808352979a9998810197919650918201945092508291508401838280828437509497505084359550505060209092013591506114d29050565b34801561055b57600080fd5b506101446004356115e8565b34801561057357600080fd5b506040805160206004803580820135601f810184900484028501840190955284845261014494369492936024939284019190819084018382808284375050604080516020601f89358b018035918201839004830284018301909452808352979a99988101979196509182019450925082915084018382808284375094975061161e9650505050505050565b34801561060a57600080fd5b50610144600435611722565b34801561062257600080fd5b506101446004356024356118ab565b34801561063d57600080fd5b50610144600435611a82565b34801561065557600080fd5b50610144600435611ab8565b34801561066d57600080fd5b50610144600435611aee565b34801561068557600080fd5b50610144600435602435611b24565b3480156106a057600080fd5b50610144600435602435604435611b63565b3480156106be57600080fd5b50610144600435602435611ba8565b600080546040805160e160020a63349f642f028152602060048201819052601060248301527f6b696f736b2d636f6e74726f6c6c65720000000000000000000000000000000060448301529151600160a060020a039093169363693ec85e93606480840194939192918390030190829087803b15801561074c57600080fd5b505af1158015610760573d6000803e3d6000fd5b505050506040513d602081101561077657600080fd5b5051604080517f28eb3f5c0000000000000000000000000000000000000000000000000000000081526004810184905268010000000000000000640100000000300263131daef6811782026024840152635564ee0e170260448201529051600160a060020a03909216916328eb3f5c9160648082019260009290919082900301818387803b15801561080757600080fd5b505af115801561081b573d6000803e3d6000fd5b5050505050565b7fb105c817eb5596e3dffa8bf3b823777bae1de472db209443a4c4f129e493d317878787878787876040518088815260200180602001806020018060200180602001806020018060200187810387528d818151815260200191508051906020019080838360005b838110156108a1578181015183820152602001610889565b50505050905090810190601f1680156108ce5780820380516001836020036101000a031916815260200191505b5087810386528c5181528c516020918201918e019080838360005b838110156109015781810151838201526020016108e9565b50505050905090810190601f16801561092e5780820380516001836020036101000a031916815260200191505b5087810385528b5181528b516020918201918d019080838360005b83811015610961578181015183820152602001610949565b50505050905090810190601f16801561098e5780820380516001836020036101000a031916815260200191505b5087810384528a5181528a516020918201918c019080838360005b838110156109c15781810151838201526020016109a9565b50505050905090810190601f1680156109ee5780820380516001836020036101000a031916815260200191505b508781038352895181528951602091820191808c01910280838360005b83811015610a23578181015183820152602001610a0b565b50505050905001878103825288818151815260200191508051906020019060200280838360005b83811015610a62578181015183820152602001610a4a565b505050509050019d505050505050505050505050505060405180910390a150505050505050565b6000805460408051808201825260138152600080516020611be88339815191526020808301918252925160e160020a63349f642f02815260048101938452825160248201528251600160a060020a039095169563693ec85e959394938493604490930192918190849084905b83811015610b0d578181015183820152602001610af5565b50505050905090810190601f168015610b3a5780820380516001836020036101000a031916815260200191505b5092505050602060405180830381600087803b158015610b5957600080fd5b505af1158015610b6d573d6000803e3d6000fd5b505050506040513d6020811015610b8357600080fd5b8101908080519060200190929190505050600160a060020a031663472536b2868686868630600160a060020a0316639b0e292d30600160a060020a031663892b6bcb6040518a63ffffffff167c01000000000000000000000000000000000000000000000000000000000281526004018080602001806020018a81526020018060200180602001898963ffffffff1690640100000000021768010000000000000000028152602001878763ffffffff169064010000000002176801000000000000000002815260200185810385528e818151815260200191508051906020019080838360005b83811015610c81578181015183820152602001610c69565b50505050905090810190601f168015610cae5780820380516001836020036101000a031916815260200191505b5085810384528d5181528d516020918201918f019080838360005b83811015610ce1578181015183820152602001610cc9565b50505050905090810190601f168015610d0e5780820380516001836020036101000a031916815260200191505b5085810383528b5181528b51602091820191808e01910280838360005b83811015610d43578181015183820152602001610d2b565b5050505090500185810382528a818151815260200191508051906020019060200280838360005b83811015610d82578181015183820152602001610d6a565b505050509050019d5050505050505050505050505050600060405180830381600087803b158015610db257600080fd5b505af1158015610dc6573d6000803e3d6000fd5b50506040517f24a400b68736c8b428a71a5fd0ee4286f47636c4b7aed7e795f9ac0901c9ce17925060009150a15050505050565b604080518381526020810183905281517f40ad38faf799d92da3321afd5a9d1083af4d20f1629b6e62340fcb0957188006929181900390910190a15050565b60008054604080518082018252601281527f636173682d696e2d636f6e74726f6c6c657200000000000000000000000000006020808301918252925160e160020a63349f642f02815260048101938452825160248201528251600160a060020a039095169563693ec85e959394938493604490930192918190849084905b83811015610ecf578181015183820152602001610eb7565b50505050905090810190601f168015610efc5780820380516001836020036101000a031916815260200191505b5092505050602060405180830381600087803b158015610f1b57600080fd5b505af1158015610f2f573d6000803e3d6000fd5b505050506040513d6020811015610f4557600080fd5b5051604080517fe5be8eec0000000000000000000000000000000000000000000000000000000081526004810185905260248101849052680100000000000000006401000000003002637792c9bb81178202604484015263e198662881178202606484015263bed13487170260848201529051600160a060020a039092169163e5be8eec9160a48082019260009290919082900301818387803b158015610feb57600080fd5b505af1158015610fff573d6000803e3d6000fd5b5050604080518581526020810185905281517f647cba28e04f550f0f4b65117e955dbbe9cce598f331c2a7ad84a19cc8706d879450908190039091019150a15050565b6000805460408051808201825260138152600080516020611be88339815191526020808301918252925160e160020a63349f642f02815260048101938452825160248201528251600160a060020a039095169563693ec85e959394938493604490930192918190849084905b838110156110c65781810151838201526020016110ae565b50505050905090810190601f1680156110f35780820380516001836020036101000a031916815260200191505b5092505050602060405180830381600087803b15801561111257600080fd5b505af1158015611126573d6000803e3d6000fd5b505050506040513d602081101561113c57600080fd5b5051604080517f819432740000000000000000000000000000000000000000000000000000000081526004810184905268010000000000000000640100000000300263b91df46081178202602484015263968a329f170260448201529051600160a060020a039092169163819432749160648082019260009290919082900301818387803b1580156111cd57600080fd5b505af11580156111e1573d6000803e3d6000fd5b50506040517fd7215d0d4ca48b3d86b40bd63d01a5526d51b47906b1eeab836e370ee25c29ec925060009150a150565b6040805182815290517f47e847de32bea3f9fc419b25052c5f35324af762592c86d6b5c03244cf2129db9181900360200190a150565b6040805182815290517fbebe8c16a074cb681633d407e2fa0412e0ee5d682f36bad2160382e7674cdb6b9181900360200190a150565b604080518381526020810183905281517f76521613b06b893d0b9a0b3429e7be48c9b6e7d90e7b8e76256a827eb6e2966a929181900390910190a15050565b6000805460408051808201825260138152600080516020611be88339815191526020808301918252925160e160020a63349f642f02815260048101938452825160248201528251600160a060020a039095169563693ec85e959394938493604490930192918190849084905b83811015611340578181015183820152602001611328565b50505050905090810190601f16801561136d5780820380516001836020036101000a031916815260200191505b5092505050602060405180830381600087803b15801561138c57600080fd5b505af11580156113a0573d6000803e3d6000fd5b505050506040513d60208110156113b657600080fd5b5051604080517f5caae8ff0000000000000000000000000000000000000000000000000000000081526004810185905260248101849052680100000000000000006401000000003002636b26412c8117820260448401526328161702170260648201529051600160a060020a0390921691635caae8ff9160848082019260009290919082900301818387803b15801561144e57600080fd5b505af1158015611462573d6000803e3d6000fd5b50506040517f2483a4452e0fa8b936893537883f8468c693710c88d794b2ec80fe230f77419e925060009150a15050565b604080518381526020810183905281517fc5056889444309461095c5b36d568a7e37e4e0114c283a3f59810e6e7d5e1b83929181900390910190a15050565b7f72246bf964abd136b99fef8286eba99780e3a2ac47c139f56b60fbc49f8cf96384848484604051808060200180602001858152602001848152602001838103835287818151815260200191508051906020019080838360005b8381101561154457818101518382015260200161152c565b50505050905090810190601f1680156115715780820380516001836020036101000a031916815260200191505b50838103825286518152865160209182019188019080838360005b838110156115a457818101518382015260200161158c565b50505050905090810190601f1680156115d15780820380516001836020036101000a031916815260200191505b50965050505050505060405180910390a150505050565b6040805182815290517ff289636d9120474a5a40eaba226e0f9b59c21c684329879c9712a3510e34e0419181900360200190a150565b7f1bbdf9354448d31bf733a45dbf641a731a6178a54b241f73c4dda5118407de658282604051808060200180602001838103835285818151815260200191508051906020019080838360005b8381101561168257818101518382015260200161166a565b50505050905090810190601f1680156116af5780820380516001836020036101000a031916815260200191505b50838103825284518152845160209182019186019080838360005b838110156116e25781810151838201526020016116ca565b50505050905090810190601f16801561170f5780820380516001836020036101000a031916815260200191505b5094505050505060405180910390a15050565b600080546040805160e160020a63349f642f028152602060048201819052601260248301527f73657373696f6e2d636f6e74726f6c6c6572000000000000000000000000000060448301529151600160a060020a039093169363693ec85e93606480840194939192918390030190829087803b1580156117a157600080fd5b505af11580156117b5573d6000803e3d6000fd5b505050506040513d60208110156117cb57600080fd5b5051604080517f830cc51e0000000000000000000000000000000000000000000000000000000081526004810184905268010000000000000000640100000000300263c11afce78117820260248401526354bbf7fa170260448201529051600160a060020a039092169163830cc51e9160648082019260009290919082900301818387803b15801561185c57600080fd5b505af1158015611870573d6000803e3d6000fd5b50506040805184815290517f99446452648e434ad323d46f565e61096b84a188787f224362a0abc11315cca69350908190036020019150a150565b6000805460408051808201825260138152600080516020611be88339815191526020808301918252925160e160020a63349f642f02815260048101938452825160248201528251600160a060020a039095169563693ec85e959394938493604490930192918190849084905b8381101561192f578181015183820152602001611917565b50505050905090810190601f16801561195c5780820380516001836020036101000a031916815260200191505b5092505050602060405180830381600087803b15801561197b57600080fd5b505af115801561198f573d6000803e3d6000fd5b505050506040513d60208110156119a557600080fd5b5051604080517f17eea922000000000000000000000000000000000000000000000000000000008152600481018590526024810184905268010000000000000000640100000000300263c25f1cef81178202604484015263ee3f5b51170260648201529051600160a060020a03909216916317eea9229160848082019260009290919082900301818387803b158015611a3d57600080fd5b505af1158015611a51573d6000803e3d6000fd5b50506040517f5ede4b87e8ee3e8e910ec11aa49f420e35e8fdc83e7ea390c48aea0cc2bc2203925060009150a15050565b6040805182815290517f385f6d093252552f44f20819c2c4370ed7f944bd81a74925f1729f5508abd88c9181900360200190a150565b6040805182815290517ffa8aefc80899a624d8ea76e5b5ee8c91ca4bf59d5abab5b8462d52aa4bb057ec9181900360200190a150565b6040805182815290517f70904f7b0d190eb0e68979713492feaee7f35e408f0311938bade01efd5eba4e9181900360200190a150565b604080518381526020810183905281517f2d715a98b70bbdc731f6bcca7bcb8596a34fc232688bafe63446d5eb912c9398929181900390910190a15050565b604080518481526020810184905280820183905290517fe78061f1ecca254f11af5ba62050f89f89ab45a16cf807ce56e3cd61a8b9d4e39181900360600190a1505050565b604080518381526020810183905281517f13c295bdcd4e7d1039f96ec3ac272ef5f0f046858bccdbdca919a0e519630a5f929181900390910190a150505600636173682d6f75742d636f6e74726f6c6c657200000000000000000000000000a165627a7a723058201ac7bed23428d3a6057168d95a62fdeb9b24df1372845200980339ac0a16bebb0029",
  "source": "pragma solidity 0.4.24;\n\nimport \"../platform/Context.sol\";\nimport \"../controllers/api/ACashInController.sol\";\nimport \"../controllers/api/ASessionController.sol\";\nimport \"../controllers/api/public/KioskApi.sol\";\nimport \"../controllers/api/public/CashOutApi.sol\";\n\ncontract CapitalHero {\n\n    string constant CONTROLLER = \"cash-in-controller\";\n\n    Context private context;\n\n    constructor(address _context) public {\n        context = Context(_context);\n    }\n\n    event RequestSended(uint256 _sessionId, uint256 _maxBalance);\n    event CashInOpened(uint256 _sessionId, uint256 _cashInId);\n    event CashInUpdate(uint256 _sessionId, uint256 _cashInId, uint256 _amount);\n    event CashInFail(uint256 _sessionId);\n\n    function open(uint256 _sessionId, uint256 _maxBalance) public {\n        ACashInController(context.get(CONTROLLER)).openCashInChannel(\n            _sessionId, \n            _maxBalance, \n            this._openSuccess, \n            this._balanceUpdate, \n            this._openFail\n        );\n        emit RequestSended(_sessionId, _maxBalance);\n    }\n\n    function _openFail(uint256 _sessionId) public {\n        emit CashInFail(_sessionId);\n    }\n\n    function _openSuccess(uint256 _sessionId, uint256 _cashInId) public {\n        emit CashInOpened(_sessionId, _cashInId);\n    }\n\n    function _balanceUpdate(uint256 _sessionId, uint256 _cashInId, uint256 _amount) public {\n        emit CashInUpdate(_sessionId, _cashInId, _amount);\n    }\n\n    event SessionCloseAccepted(uint256 _sessionId);\n    event SessionCloseSuccess(uint256 _sessionId);\n    event SessionCloseFail(uint256 _sessionId);\n\n    function closeSession(uint256 _sessionId) public {\n        ASessionController(context.get(\"session-controller\")).closeSession(_sessionId, this.__successSessionClose, this.__failSessionClose);\n        emit SessionCloseAccepted(_sessionId);\n    }\n\n    function __successSessionClose(uint256 _sessionId) public {\n        emit SessionCloseSuccess(_sessionId);\n    }\n\n    function __failSessionClose(uint256 _sessionId) public {\n        emit SessionCloseFail(_sessionId);\n    }\n\n    event GetKioskInfoAccepted(uint256 _sessionId);\n    event GetKioskInfoSuccess(\n        uint256 _sessionId, \n        string _id,\n        string _location,\n        string _name,\n        string _timezone,\n        uint256[] _bills,\n        uint256[] _amounts    \n    );\n    event GetKioskInfoFail(uint256 _sessionId);\n\n    function getKioskInfo(uint256 _sessionId) public {\n        KioskApi(context.get(\"kiosk-controller\")).getKiosk(_sessionId, this.__kioskInfoSuccess, this.__kioskInfoFail);\n    }\n\n    function __kioskInfoSuccess(\n        uint256 _sessionId,\n        string _id,\n        string _location,\n        string _name,\n        string _timezone,\n        uint256[] _bills,\n        uint256[] _amounts\n    ) \n        public \n    {\n        emit GetKioskInfoSuccess(_sessionId, _id, _location, _name, _timezone, _bills, _amounts);\n    }\n\n    function __kioskInfoFail(\n        uint256 _sessionId\n    ) \n        public \n    {\n        emit GetKioskInfoFail(_sessionId);\n    }\n\n    /*\n        Example of CashOutApi workflow\n    */\n\n    string constant CASH_OUT_API = \"cash-out-controller\";\n\n    // Open cash out components:\n\n    event OpenCashOutAccepted();\n    event OpenCashOutSuccess(string _requestId, string _kioskId, uint256 _cashOutId, uint256 _fee);\n    event OpenCashOutFailed(string _kioskId, string _requestId);\n    \n    function openCashOut(\n        string _requestId,\n        string _kioskId, \n        uint256 _toWithdraw, \n        uint256[] _fees, \n        address[] _parties\n    ) \n        public \n    {\n        CashOutApi(context.get(CASH_OUT_API)).openCashOutChannel(\n            _requestId, \n            _kioskId, \n            _toWithdraw, \n            _fees, \n            _parties, \n            this.__failOpenCashOut, \n            this.__successOpenCashOut\n        );\n        emit OpenCashOutAccepted();\n    }\n\n    function __successOpenCashOut(string _requestId, string _kioskId, uint256 _cashOutId, uint256 _fee) public {\n        emit OpenCashOutSuccess(_requestId, _kioskId, _cashOutId, _fee);\n    }\n\n    function __failOpenCashOut( string _requestId, string _kioskId) public {\n        emit OpenCashOutFailed(_requestId, _kioskId);\n    }\n\n    // Validate cash out components:\n\n    event ValidateCashOutAccepted();\n    event ValidateCashOutSuccess(uint256 _sessionId, uint256 _cashOutId);\n    event ValidateCashOutFailed(uint256 _sessionId, uint256 _cashOutId);\n\n    function validateCashOut(uint256 _sessionId, uint256 _cashOutId) public {\n        CashOutApi(context.get(CASH_OUT_API)).validateCashOutChannel(\n            _sessionId, \n            _cashOutId, \n            this.__failValidateCashOut,\n            this.__successValidateCashOut\n        );\n        emit ValidateCashOutAccepted();\n    }\n\n    function __successValidateCashOut(uint256 _sessionId, uint256 _cashOutId) public {\n        emit ValidateCashOutSuccess(_sessionId, _cashOutId);\n    }\n\n    function __failValidateCashOut(uint256 _sessionId, uint256 _cashOutId) public {\n        emit ValidateCashOutFailed(_sessionId, _cashOutId);\n    }\n\n    // Close cash out components:\n\n    event CloseCashOutAccepted();\n    event CloseCashOutSuccess(uint256 _sessionId, uint256 _cashOutId);\n    event CloseCashOutFailed(uint256 _sessionId, uint256 _cashOutId);\n\n    function closeCashOut(uint256 _sessionId, uint256 _cashOutId) public {\n        CashOutApi(context.get(CASH_OUT_API)).closeCashOutChannel(\n            _sessionId, \n            _cashOutId, \n            this.__failCloseCashOut,\n            this.__successCloseCashOut\n        );\n        emit CloseCashOutAccepted();\n    }\n\n    function __successCloseCashOut(uint256 _sessionId, uint256 _cashOutId) public {\n        emit CloseCashOutSuccess(_sessionId, _cashOutId);\n    }\n\n    function __failCloseCashOut(uint256 _sessionId, uint256 _cashOutId) public {\n        emit CloseCashOutFailed(_sessionId, _cashOutId);\n    }\n\n    // Rollback cash out components:\n\n    event RollbackCashOutAccepted();\n    event RollbackCashOutSuccess(uint256 _cashOutId);\n    event RollbackCashOutFailed(uint256 _cashOutId);\n\n    function rollbackCashOut(uint256 _cashOutId) public {\n        CashOutApi(context.get(CASH_OUT_API)).rollbackCashOutChannel(\n            _cashOutId, \n            this.__failRollbackCashOut,\n            this.__successRollbackCashOut\n        );\n        emit RollbackCashOutAccepted();\n    }\n\n    function __successRollbackCashOut(uint256 _cashOutId) public {\n        emit RollbackCashOutSuccess(_cashOutId);\n    }\n\n    function __failRollbackCashOut(uint256 _cashOutId) public {\n        emit RollbackCashOutFailed(_cashOutId);\n    }\n\n}",
  "sourcePath": "/home/andrew/Desktop/solidity-experiments/callback-cash-in/contracts/application/CapitalHero.sol",
  "compiler": {
    "name": "solc",
    "version": "0.4.24+commit.e67f0147.Emscripten.clang"
  },
  "schemaVersion": "2.0.1",
  "updatedAt": "2018-11-20T08:19:52.887Z"
}