{
  "contractName": "CapitalHero",
  "abi": [
    {
      "inputs": [
        {
          "name": "_context",
          "type": "address"
        }
      ],
      "payable": false,
      "stateMutability": "nonpayable",
      "type": "constructor"
    },
    {
      "anonymous": false,
      "inputs": [
        {
          "indexed": false,
          "name": "_sessionId",
          "type": "uint256"
        },
        {
          "indexed": false,
          "name": "_maxBalance",
          "type": "uint256"
        }
      ],
      "name": "RequestSended",
      "type": "event"
    },
    {
      "anonymous": false,
      "inputs": [
        {
          "indexed": false,
          "name": "_sessionId",
          "type": "uint256"
        },
        {
          "indexed": false,
          "name": "_cashInId",
          "type": "uint256"
        }
      ],
      "name": "CashInOpened",
      "type": "event"
    },
    {
      "anonymous": false,
      "inputs": [
        {
          "indexed": false,
          "name": "_sessionId",
          "type": "uint256"
        },
        {
          "indexed": false,
          "name": "_cashInId",
          "type": "uint256"
        },
        {
          "indexed": false,
          "name": "_amount",
          "type": "uint256"
        }
      ],
      "name": "CashInUpdate",
      "type": "event"
    },
    {
      "anonymous": false,
      "inputs": [
        {
          "indexed": false,
          "name": "_sessionId",
          "type": "uint256"
        }
      ],
      "name": "CashInFail",
      "type": "event"
    },
    {
      "anonymous": false,
      "inputs": [
        {
          "indexed": false,
          "name": "_sessionId",
          "type": "uint256"
        }
      ],
      "name": "SessionCloseAccepted",
      "type": "event"
    },
    {
      "anonymous": false,
      "inputs": [
        {
          "indexed": false,
          "name": "_sessionId",
          "type": "uint256"
        }
      ],
      "name": "SessionCloseSuccess",
      "type": "event"
    },
    {
      "anonymous": false,
      "inputs": [
        {
          "indexed": false,
          "name": "_sessionId",
          "type": "uint256"
        }
      ],
      "name": "SessionCloseFail",
      "type": "event"
    },
    {
      "anonymous": false,
      "inputs": [
        {
          "indexed": false,
          "name": "_sessionId",
          "type": "uint256"
        }
      ],
      "name": "GetKioskInfoAccepted",
      "type": "event"
    },
    {
      "anonymous": false,
      "inputs": [
        {
          "indexed": false,
          "name": "_sessionId",
          "type": "uint256"
        },
        {
          "indexed": false,
          "name": "_id",
          "type": "string"
        },
        {
          "indexed": false,
          "name": "_location",
          "type": "string"
        },
        {
          "indexed": false,
          "name": "_name",
          "type": "string"
        },
        {
          "indexed": false,
          "name": "_timezone",
          "type": "string"
        },
        {
          "indexed": false,
          "name": "_bills",
          "type": "uint256[]"
        },
        {
          "indexed": false,
          "name": "_amounts",
          "type": "uint256[]"
        }
      ],
      "name": "GetKioskInfoSuccess",
      "type": "event"
    },
    {
      "anonymous": false,
      "inputs": [
        {
          "indexed": false,
          "name": "_sessionId",
          "type": "uint256"
        }
      ],
      "name": "GetKioskInfoFail",
      "type": "event"
    },
    {
      "anonymous": false,
      "inputs": [],
      "name": "OpenCashOutAccepted",
      "type": "event"
    },
    {
      "anonymous": false,
      "inputs": [
        {
          "indexed": false,
          "name": "_kioskId",
          "type": "string"
        },
        {
          "indexed": false,
          "name": "_cashOutId",
          "type": "uint256"
        }
      ],
      "name": "OpenCashOutSuccess",
      "type": "event"
    },
    {
      "anonymous": false,
      "inputs": [
        {
          "indexed": false,
          "name": "_kioskId",
          "type": "string"
        }
      ],
      "name": "OpenCashOutFailed",
      "type": "event"
    },
    {
      "anonymous": false,
      "inputs": [],
      "name": "ValidateCashOutAccepted",
      "type": "event"
    },
    {
      "anonymous": false,
      "inputs": [
        {
          "indexed": false,
          "name": "_sessionId",
          "type": "uint256"
        },
        {
          "indexed": false,
          "name": "_cashOutId",
          "type": "uint256"
        }
      ],
      "name": "ValidateCashOutSuccess",
      "type": "event"
    },
    {
      "anonymous": false,
      "inputs": [
        {
          "indexed": false,
          "name": "_sessionId",
          "type": "uint256"
        },
        {
          "indexed": false,
          "name": "_cashOutId",
          "type": "uint256"
        }
      ],
      "name": "ValidateCashOutFailed",
      "type": "event"
    },
    {
      "anonymous": false,
      "inputs": [],
      "name": "CloseCashOutAccepted",
      "type": "event"
    },
    {
      "anonymous": false,
      "inputs": [
        {
          "indexed": false,
          "name": "_sessionId",
          "type": "uint256"
        },
        {
          "indexed": false,
          "name": "_cashOutId",
          "type": "uint256"
        }
      ],
      "name": "CloseCashOutSuccess",
      "type": "event"
    },
    {
      "anonymous": false,
      "inputs": [
        {
          "indexed": false,
          "name": "_sessionId",
          "type": "uint256"
        },
        {
          "indexed": false,
          "name": "_cashOutId",
          "type": "uint256"
        }
      ],
      "name": "CloseCashOutFailed",
      "type": "event"
    },
    {
      "anonymous": false,
      "inputs": [],
      "name": "RollbackCashOutAccepted",
      "type": "event"
    },
    {
      "anonymous": false,
      "inputs": [
        {
          "indexed": false,
          "name": "_cashOutId",
          "type": "uint256"
        }
      ],
      "name": "RollbackCashOutSuccess",
      "type": "event"
    },
    {
      "anonymous": false,
      "inputs": [
        {
          "indexed": false,
          "name": "_cashOutId",
          "type": "uint256"
        }
      ],
      "name": "RollbackCashOutFailed",
      "type": "event"
    },
    {
      "constant": false,
      "inputs": [
        {
          "name": "_sessionId",
          "type": "uint256"
        },
        {
          "name": "_maxBalance",
          "type": "uint256"
        }
      ],
      "name": "open",
      "outputs": [],
      "payable": false,
      "stateMutability": "nonpayable",
      "type": "function"
    },
    {
      "constant": false,
      "inputs": [
        {
          "name": "_sessionId",
          "type": "uint256"
        }
      ],
      "name": "_openFail",
      "outputs": [],
      "payable": false,
      "stateMutability": "nonpayable",
      "type": "function"
    },
    {
      "constant": false,
      "inputs": [
        {
          "name": "_sessionId",
          "type": "uint256"
        },
        {
          "name": "_cashInId",
          "type": "uint256"
        }
      ],
      "name": "_openSuccess",
      "outputs": [],
      "payable": false,
      "stateMutability": "nonpayable",
      "type": "function"
    },
    {
      "constant": false,
      "inputs": [
        {
          "name": "_sessionId",
          "type": "uint256"
        },
        {
          "name": "_cashInId",
          "type": "uint256"
        },
        {
          "name": "_amount",
          "type": "uint256"
        }
      ],
      "name": "_balanceUpdate",
      "outputs": [],
      "payable": false,
      "stateMutability": "nonpayable",
      "type": "function"
    },
    {
      "constant": false,
      "inputs": [
        {
          "name": "_sessionId",
          "type": "uint256"
        }
      ],
      "name": "closeSession",
      "outputs": [],
      "payable": false,
      "stateMutability": "nonpayable",
      "type": "function"
    },
    {
      "constant": false,
      "inputs": [
        {
          "name": "_sessionId",
          "type": "uint256"
        }
      ],
      "name": "__successSessionClose",
      "outputs": [],
      "payable": false,
      "stateMutability": "nonpayable",
      "type": "function"
    },
    {
      "constant": false,
      "inputs": [
        {
          "name": "_sessionId",
          "type": "uint256"
        }
      ],
      "name": "__failSessionClose",
      "outputs": [],
      "payable": false,
      "stateMutability": "nonpayable",
      "type": "function"
    },
    {
      "constant": false,
      "inputs": [
        {
          "name": "_sessionId",
          "type": "uint256"
        }
      ],
      "name": "getKioskInfo",
      "outputs": [],
      "payable": false,
      "stateMutability": "nonpayable",
      "type": "function"
    },
    {
      "constant": false,
      "inputs": [
        {
          "name": "_sessionId",
          "type": "uint256"
        },
        {
          "name": "_id",
          "type": "string"
        },
        {
          "name": "_location",
          "type": "string"
        },
        {
          "name": "_name",
          "type": "string"
        },
        {
          "name": "_timezone",
          "type": "string"
        },
        {
          "name": "_bills",
          "type": "uint256[]"
        },
        {
          "name": "_amounts",
          "type": "uint256[]"
        }
      ],
      "name": "__kioskInfoSuccess",
      "outputs": [],
      "payable": false,
      "stateMutability": "nonpayable",
      "type": "function"
    },
    {
      "constant": false,
      "inputs": [
        {
          "name": "_sessionId",
          "type": "uint256"
        }
      ],
      "name": "__kioskInfoFail",
      "outputs": [],
      "payable": false,
      "stateMutability": "nonpayable",
      "type": "function"
    },
    {
      "constant": false,
      "inputs": [
        {
          "name": "_kioskId",
          "type": "string"
        },
        {
          "name": "_toWithdraw",
          "type": "uint256"
        },
        {
          "name": "_fees",
          "type": "uint256[]"
        },
        {
          "name": "_parties",
          "type": "address[]"
        }
      ],
      "name": "openCashOut",
      "outputs": [],
      "payable": false,
      "stateMutability": "nonpayable",
      "type": "function"
    },
    {
      "constant": false,
      "inputs": [
        {
          "name": "_kioskId",
          "type": "string"
        },
        {
          "name": "_cashOutId",
          "type": "uint256"
        }
      ],
      "name": "__successOpenCashOut",
      "outputs": [],
      "payable": false,
      "stateMutability": "nonpayable",
      "type": "function"
    },
    {
      "constant": false,
      "inputs": [
        {
          "name": "_kioskId",
          "type": "string"
        }
      ],
      "name": "__failOpenCashOut",
      "outputs": [],
      "payable": false,
      "stateMutability": "nonpayable",
      "type": "function"
    },
    {
      "constant": false,
      "inputs": [
        {
          "name": "_sessionId",
          "type": "uint256"
        },
        {
          "name": "_cashOutId",
          "type": "uint256"
        }
      ],
      "name": "validateCashOut",
      "outputs": [],
      "payable": false,
      "stateMutability": "nonpayable",
      "type": "function"
    },
    {
      "constant": false,
      "inputs": [
        {
          "name": "_sessionId",
          "type": "uint256"
        },
        {
          "name": "_cashOutId",
          "type": "uint256"
        }
      ],
      "name": "__successValidateCashOut",
      "outputs": [],
      "payable": false,
      "stateMutability": "nonpayable",
      "type": "function"
    },
    {
      "constant": false,
      "inputs": [
        {
          "name": "_sessionId",
          "type": "uint256"
        },
        {
          "name": "_cashOutId",
          "type": "uint256"
        }
      ],
      "name": "__failValidateCashOut",
      "outputs": [],
      "payable": false,
      "stateMutability": "nonpayable",
      "type": "function"
    },
    {
      "constant": false,
      "inputs": [
        {
          "name": "_sessionId",
          "type": "uint256"
        },
        {
          "name": "_cashOutId",
          "type": "uint256"
        }
      ],
      "name": "closeCashOut",
      "outputs": [],
      "payable": false,
      "stateMutability": "nonpayable",
      "type": "function"
    },
    {
      "constant": false,
      "inputs": [
        {
          "name": "_sessionId",
          "type": "uint256"
        },
        {
          "name": "_cashOutId",
          "type": "uint256"
        }
      ],
      "name": "__successCloseCashOut",
      "outputs": [],
      "payable": false,
      "stateMutability": "nonpayable",
      "type": "function"
    },
    {
      "constant": false,
      "inputs": [
        {
          "name": "_sessionId",
          "type": "uint256"
        },
        {
          "name": "_cashOutId",
          "type": "uint256"
        }
      ],
      "name": "__failCloseCashOut",
      "outputs": [],
      "payable": false,
      "stateMutability": "nonpayable",
      "type": "function"
    },
    {
      "constant": false,
      "inputs": [
        {
          "name": "_cashOutId",
          "type": "uint256"
        }
      ],
      "name": "rollbackCashOut",
      "outputs": [],
      "payable": false,
      "stateMutability": "nonpayable",
      "type": "function"
    },
    {
      "constant": false,
      "inputs": [
        {
          "name": "_cashOutId",
          "type": "uint256"
        }
      ],
      "name": "__successRollbackCashOut",
      "outputs": [],
      "payable": false,
      "stateMutability": "nonpayable",
      "type": "function"
    },
    {
      "constant": false,
      "inputs": [
        {
          "name": "_cashOutId",
          "type": "uint256"
        }
      ],
      "name": "__failRollbackCashOut",
      "outputs": [],
      "payable": false,
      "stateMutability": "nonpayable",
      "type": "function"
    }
  ],
  "bytecode": "0x608060405234801561001057600080fd5b506040516020806119e5833981016040525160008054600160a060020a03909216600160a060020a0319909216919091179055611993806100526000396000f3006080604052600436106101275763ffffffff7c01000000000000000000000000000000000000000000000000000000006000350416630cb35bff811461012c57806312bb5b4d14610146578063131daef61461021857806328161702146103a25780634082de67146103bd578063448c7512146103d8578063497343c11461043357806354bbf7fa1461044b5780635564ee0e146104635780636b26412c1461047b5780636c1a42d1146104965780637792c9bb146104b1578063968a329f146104cc578063a3bfdf47146104e4578063a7fed0a7146104fc578063b91df46014610517578063bed134871461052f578063c11afce714610547578063c25f1cef1461055f578063e19866281461057a578063ee3f5b5114610598578063efe6c3e9146105b3575b600080fd5b34801561013857600080fd5b5061014460043561060c565b005b34801561015257600080fd5b506040805160206004803580820135601f810184900484028501840190955284845261014494369492936024939284019190819084018382808284375050604080516020808901358a01803580830284810184018652818552999c8b359c909b909a950198509296508101945090925082919085019084908082843750506040805187358901803560208181028481018201909552818452989b9a9989019892975090820195509350839250850190849080828437509497506107619650505050505050565b34801561022457600080fd5b5060408051602060046024803582810135601f810185900485028601850190965285855261014495833595369560449491939091019190819084018382808284375050604080516020601f89358b018035918201839004830284018301909452808352979a99988101979196509182019450925082915084018382808284375050604080516020601f89358b018035918201839004830284018301909452808352979a99988101979196509182019450925082915084018382808284375050604080516020601f89358b018035918201839004830284018301909452808352979a999881019791965091820194509250829150840183828082843750506040805187358901803560208181028481018201909552818452989b9a998901989297509082019550935083925085019084908082843750506040805187358901803560208181028481018201909552818452989b9a998901989297509082019550935083925085019084908082843750949750610a399650505050505050565b3480156103ae57600080fd5b50610144600435602435610ca0565b3480156103c957600080fd5b50610144600435602435610cdf565b3480156103e457600080fd5b506040805160206004803580820135601f81018490048402850184019095528484526101449436949293602493928401919081908401838280828437509497505093359450610ee89350505050565b34801561043f57600080fd5b50610144600435610f8d565b34801561045757600080fd5b50610144600435611118565b34801561046f57600080fd5b5061014460043561114e565b34801561048757600080fd5b50610144600435602435611184565b3480156104a257600080fd5b506101446004356024356111c3565b3480156104bd57600080fd5b5061014460043560243561139a565b3480156104d857600080fd5b506101446004356113d9565b3480156104f057600080fd5b5061014460043561140f565b34801561050857600080fd5b50610144600435602435611598565b34801561052357600080fd5b50610144600435611746565b34801561053b57600080fd5b5061014460043561177c565b34801561055357600080fd5b506101446004356117b2565b34801561056b57600080fd5b506101446004356024356117e8565b34801561058657600080fd5b50610144600435602435604435611827565b3480156105a457600080fd5b5061014460043560243561186c565b3480156105bf57600080fd5b506040805160206004803580820135601f81018490048402850184019095528484526101449436949293602493928401919081908401838280828437509497506118ab9650505050505050565b600080546040805160e160020a63349f642f028152602060048201819052601060248301527f6b696f736b2d636f6e74726f6c6c65720000000000000000000000000000000060448301529151600160a060020a039093169363693ec85e93606480840194939192918390030190829087803b15801561068b57600080fd5b505af115801561069f573d6000803e3d6000fd5b505050506040513d60208110156106b557600080fd5b5051604080517f28eb3f5c0000000000000000000000000000000000000000000000000000000081526004810184905268010000000000000000640100000000300263131daef6811782026024840152635564ee0e170260448201529051600160a060020a03909216916328eb3f5c9160648082019260009290919082900301818387803b15801561074657600080fd5b505af115801561075a573d6000803e3d6000fd5b5050505050565b60008054604080518082018252601381526000805160206119488339815191526020808301918252925160e160020a63349f642f02815260048101938452825160248201528251600160a060020a039095169563693ec85e959394938493604490930192918190849084905b838110156107e55781810151838201526020016107cd565b50505050905090810190601f1680156108125780820380516001836020036101000a031916815260200191505b5092505050602060405180830381600087803b15801561083157600080fd5b505af1158015610845573d6000803e3d6000fd5b505050506040513d602081101561085b57600080fd5b50516040517fb8adcca70000000000000000000000000000000000000000000000000000000081526024810185905263efe6c3e930640100000000810282811768010000000000000000908102608486015263448c75129182170260a485015260c060048501908152895160c48601528951600160a060020a039096169563b8adcca7958b958b958b958b9591949293859391929182916044810191606482019160e4019060208e019080838360005b8381101561092357818101518382015260200161090b565b50505050905090810190601f1680156109505780820380516001836020036101000a031916815260200191505b5084810383528a5181528a51602091820191808d01910280838360005b8381101561098557818101518382015260200161096d565b50505050905001848103825289818151815260200191508051906020019060200280838360005b838110156109c45781810151838201526020016109ac565b505050509050019b505050505050505050505050600060405180830381600087803b1580156109f257600080fd5b505af1158015610a06573d6000803e3d6000fd5b50506040517f24a400b68736c8b428a71a5fd0ee4286f47636c4b7aed7e795f9ac0901c9ce17925060009150a150505050565b7fb105c817eb5596e3dffa8bf3b823777bae1de472db209443a4c4f129e493d317878787878787876040518088815260200180602001806020018060200180602001806020018060200187810387528d818151815260200191508051906020019080838360005b83811015610ab8578181015183820152602001610aa0565b50505050905090810190601f168015610ae55780820380516001836020036101000a031916815260200191505b5087810386528c5181528c516020918201918e019080838360005b83811015610b18578181015183820152602001610b00565b50505050905090810190601f168015610b455780820380516001836020036101000a031916815260200191505b5087810385528b5181528b516020918201918d019080838360005b83811015610b78578181015183820152602001610b60565b50505050905090810190601f168015610ba55780820380516001836020036101000a031916815260200191505b5087810384528a5181528a516020918201918c019080838360005b83811015610bd8578181015183820152602001610bc0565b50505050905090810190601f168015610c055780820380516001836020036101000a031916815260200191505b508781038352895181528951602091820191808c01910280838360005b83811015610c3a578181015183820152602001610c22565b50505050905001878103825288818151815260200191508051906020019060200280838360005b83811015610c79578181015183820152602001610c61565b505050509050019d505050505050505050505050505060405180910390a150505050505050565b604080518381526020810183905281517f40ad38faf799d92da3321afd5a9d1083af4d20f1629b6e62340fcb0957188006929181900390910190a15050565b60008054604080518082018252601281527f636173682d696e2d636f6e74726f6c6c657200000000000000000000000000006020808301918252925160e160020a63349f642f02815260048101938452825160248201528251600160a060020a039095169563693ec85e959394938493604490930192918190849084905b83811015610d75578181015183820152602001610d5d565b50505050905090810190601f168015610da25780820380516001836020036101000a031916815260200191505b5092505050602060405180830381600087803b158015610dc157600080fd5b505af1158015610dd5573d6000803e3d6000fd5b505050506040513d6020811015610deb57600080fd5b5051604080517fe5be8eec0000000000000000000000000000000000000000000000000000000081526004810185905260248101849052680100000000000000006401000000003002637792c9bb81178202604484015263e198662881178202606484015263bed13487170260848201529051600160a060020a039092169163e5be8eec9160a48082019260009290919082900301818387803b158015610e9157600080fd5b505af1158015610ea5573d6000803e3d6000fd5b5050604080518581526020810185905281517f647cba28e04f550f0f4b65117e955dbbe9cce598f331c2a7ad84a19cc8706d879450908190039091019150a15050565b7ff37fd75227efcc04955fba39f4940ceddc5fc29ddaf48002de1bb37c88f7899b82826040518080602001838152602001828103825284818151815260200191508051906020019080838360005b83811015610f4e578181015183820152602001610f36565b50505050905090810190601f168015610f7b5780820380516001836020036101000a031916815260200191505b50935050505060405180910390a15050565b60008054604080518082018252601381526000805160206119488339815191526020808301918252925160e160020a63349f642f02815260048101938452825160248201528251600160a060020a039095169563693ec85e959394938493604490930192918190849084905b83811015611011578181015183820152602001610ff9565b50505050905090810190601f16801561103e5780820380516001836020036101000a031916815260200191505b5092505050602060405180830381600087803b15801561105d57600080fd5b505af1158015611071573d6000803e3d6000fd5b505050506040513d602081101561108757600080fd5b5051604080517f819432740000000000000000000000000000000000000000000000000000000081526004810184905268010000000000000000640100000000300263b91df46081178202602484015263968a329f170260448201529051600160a060020a039092169163819432749160648082019260009290919082900301818387803b15801561074657600080fd5b6040805182815290517f47e847de32bea3f9fc419b25052c5f35324af762592c86d6b5c03244cf2129db9181900360200190a150565b6040805182815290517fbebe8c16a074cb681633d407e2fa0412e0ee5d682f36bad2160382e7674cdb6b9181900360200190a150565b604080518381526020810183905281517f76521613b06b893d0b9a0b3429e7be48c9b6e7d90e7b8e76256a827eb6e2966a929181900390910190a15050565b60008054604080518082018252601381526000805160206119488339815191526020808301918252925160e160020a63349f642f02815260048101938452825160248201528251600160a060020a039095169563693ec85e959394938493604490930192918190849084905b8381101561124757818101518382015260200161122f565b50505050905090810190601f1680156112745780820380516001836020036101000a031916815260200191505b5092505050602060405180830381600087803b15801561129357600080fd5b505af11580156112a7573d6000803e3d6000fd5b505050506040513d60208110156112bd57600080fd5b5051604080517f5caae8ff0000000000000000000000000000000000000000000000000000000081526004810185905260248101849052680100000000000000006401000000003002636b26412c8117820260448401526328161702170260648201529051600160a060020a0390921691635caae8ff9160848082019260009290919082900301818387803b15801561135557600080fd5b505af1158015611369573d6000803e3d6000fd5b50506040517f2483a4452e0fa8b936893537883f8468c693710c88d794b2ec80fe230f77419e925060009150a15050565b604080518381526020810183905281517fc5056889444309461095c5b36d568a7e37e4e0114c283a3f59810e6e7d5e1b83929181900390910190a15050565b6040805182815290517ff289636d9120474a5a40eaba226e0f9b59c21c684329879c9712a3510e34e0419181900360200190a150565b600080546040805160e160020a63349f642f028152602060048201819052601260248301527f73657373696f6e2d636f6e74726f6c6c6572000000000000000000000000000060448301529151600160a060020a039093169363693ec85e93606480840194939192918390030190829087803b15801561148e57600080fd5b505af11580156114a2573d6000803e3d6000fd5b505050506040513d60208110156114b857600080fd5b5051604080517f830cc51e0000000000000000000000000000000000000000000000000000000081526004810184905268010000000000000000640100000000300263c11afce78117820260248401526354bbf7fa170260448201529051600160a060020a039092169163830cc51e9160648082019260009290919082900301818387803b15801561154957600080fd5b505af115801561155d573d6000803e3d6000fd5b50506040805184815290517f99446452648e434ad323d46f565e61096b84a188787f224362a0abc11315cca69350908190036020019150a150565b60008054604080518082018252601381526000805160206119488339815191526020808301918252925160e160020a63349f642f02815260048101938452825160248201528251600160a060020a039095169563693ec85e959394938493604490930192918190849084905b8381101561161c578181015183820152602001611604565b50505050905090810190601f1680156116495780820380516001836020036101000a031916815260200191505b5092505050602060405180830381600087803b15801561166857600080fd5b505af115801561167c573d6000803e3d6000fd5b505050506040513d602081101561169257600080fd5b5051604080517f17eea922000000000000000000000000000000000000000000000000000000008152600481018590526024810184905268010000000000000000640100000000300263c25f1cef81178202604484015263ee3f5b51170260648201529051600160a060020a03909216916317eea9229160848082019260009290919082900301818387803b15801561172a57600080fd5b505af115801561173e573d6000803e3d6000fd5b505050505050565b6040805182815290517f385f6d093252552f44f20819c2c4370ed7f944bd81a74925f1729f5508abd88c9181900360200190a150565b6040805182815290517ffa8aefc80899a624d8ea76e5b5ee8c91ca4bf59d5abab5b8462d52aa4bb057ec9181900360200190a150565b6040805182815290517f70904f7b0d190eb0e68979713492feaee7f35e408f0311938bade01efd5eba4e9181900360200190a150565b604080518381526020810183905281517f2d715a98b70bbdc731f6bcca7bcb8596a34fc232688bafe63446d5eb912c9398929181900390910190a15050565b604080518481526020810184905280820183905290517fe78061f1ecca254f11af5ba62050f89f89ab45a16cf807ce56e3cd61a8b9d4e39181900360600190a1505050565b604080518381526020810183905281517f13c295bdcd4e7d1039f96ec3ac272ef5f0f046858bccdbdca919a0e519630a5f929181900390910190a15050565b7f19b1abf20bce21109a74a6dc801525a68d1a755d3f2694a0fab59587b937c7d4816040518080602001828103825283818151815260200191508051906020019080838360005b8381101561190a5781810151838201526020016118f2565b50505050905090810190601f1680156119375780820380516001836020036101000a031916815260200191505b509250505060405180910390a1505600636173682d6f75742d636f6e74726f6c6c657200000000000000000000000000a165627a7a72305820f636504405a48c2ad94e96253d2c2c1ea44a8e2636f7989edada8faab70c8b3d0029",
  "source": "pragma solidity 0.4.24;\n\nimport \"../platform/Context.sol\";\nimport \"../controllers/api/ACashInController.sol\";\nimport \"../controllers/api/ASessionController.sol\";\nimport \"../controllers/api/public/KioskApi.sol\";\nimport \"../controllers/api/public/CashOutApi.sol\";\n\ncontract CapitalHero {\n\n    string constant CONTROLLER = \"cash-in-controller\";\n\n    Context private context;\n\n    constructor(address _context) public {\n        context = Context(_context);\n    }\n\n    event RequestSended(uint256 _sessionId, uint256 _maxBalance);\n    event CashInOpened(uint256 _sessionId, uint256 _cashInId);\n    event CashInUpdate(uint256 _sessionId, uint256 _cashInId, uint256 _amount);\n    event CashInFail(uint256 _sessionId);\n\n    function open(uint256 _sessionId, uint256 _maxBalance) public {\n        ACashInController(context.get(CONTROLLER)).openCashInChannel(\n            _sessionId, \n            _maxBalance, \n            this._openSuccess, \n            this._balanceUpdate, \n            this._openFail\n        );\n        emit RequestSended(_sessionId, _maxBalance);\n    }\n\n    function _openFail(uint256 _sessionId) public {\n        emit CashInFail(_sessionId);\n    }\n\n    function _openSuccess(uint256 _sessionId, uint256 _cashInId) public {\n        emit CashInOpened(_sessionId, _cashInId);\n    }\n\n    function _balanceUpdate(uint256 _sessionId, uint256 _cashInId, uint256 _amount) public {\n        emit CashInUpdate(_sessionId, _cashInId, _amount);\n    }\n\n    event SessionCloseAccepted(uint256 _sessionId);\n    event SessionCloseSuccess(uint256 _sessionId);\n    event SessionCloseFail(uint256 _sessionId);\n\n    function closeSession(uint256 _sessionId) public {\n        ASessionController(context.get(\"session-controller\")).closeSession(_sessionId, this.__successSessionClose, this.__failSessionClose);\n        emit SessionCloseAccepted(_sessionId);\n    }\n\n    function __successSessionClose(uint256 _sessionId) public {\n        emit SessionCloseSuccess(_sessionId);\n    }\n\n    function __failSessionClose(uint256 _sessionId) public {\n        emit SessionCloseFail(_sessionId);\n    }\n\n    event GetKioskInfoAccepted(uint256 _sessionId);\n    event GetKioskInfoSuccess(\n        uint256 _sessionId, \n        string _id,\n        string _location,\n        string _name,\n        string _timezone,\n        uint256[] _bills,\n        uint256[] _amounts    \n    );\n    event GetKioskInfoFail(uint256 _sessionId);\n\n    function getKioskInfo(uint256 _sessionId) public {\n        KioskApi(context.get(\"kiosk-controller\")).getKiosk(_sessionId, this.__kioskInfoSuccess, this.__kioskInfoFail);\n    }\n\n    function __kioskInfoSuccess(\n        uint256 _sessionId,\n        string _id,\n        string _location,\n        string _name,\n        string _timezone,\n        uint256[] _bills,\n        uint256[] _amounts\n    ) \n        public \n    {\n        emit GetKioskInfoSuccess(_sessionId, _id, _location, _name, _timezone, _bills, _amounts);\n    }\n\n    function __kioskInfoFail(\n        uint256 _sessionId\n    ) \n        public \n    {\n        emit GetKioskInfoFail(_sessionId);\n    }\n\n    /*\n        Example of CashOutApi workflow\n    */\n\n    string constant CASH_OUT_API = \"cash-out-controller\";\n\n    // Open cash out components:\n\n    event OpenCashOutAccepted();\n    event OpenCashOutSuccess(string _kioskId, uint256 _cashOutId);\n    event OpenCashOutFailed(string _kioskId);\n    \n    function openCashOut(\n        string _kioskId, \n        uint256 _toWithdraw, \n        uint256[] _fees, \n        address[] _parties\n    ) \n        public \n    {\n        CashOutApi(context.get(CASH_OUT_API)).openCashOutChannel(\n            _kioskId, _toWithdraw, _fees, _parties, this.__failOpenCashOut, this.__successOpenCashOut\n        );\n        emit OpenCashOutAccepted();\n    }\n\n    function __successOpenCashOut(string _kioskId, uint256 _cashOutId) public {\n        emit OpenCashOutSuccess(_kioskId, _cashOutId);\n    }\n\n    function __failOpenCashOut(string _kioskId) public {\n        emit OpenCashOutFailed(_kioskId);\n    }\n\n    // Validate cash out components:\n\n    event ValidateCashOutAccepted();\n    event ValidateCashOutSuccess(uint256 _sessionId, uint256 _cashOutId);\n    event ValidateCashOutFailed(uint256 _sessionId, uint256 _cashOutId);\n\n    function validateCashOut(uint256 _sessionId, uint256 _cashOutId) public {\n        CashOutApi(context.get(CASH_OUT_API)).validateCashOutChannel(\n            _sessionId, \n            _cashOutId, \n            this.__failValidateCashOut,\n            this.__successValidateCashOut\n        );\n        emit ValidateCashOutAccepted();\n    }\n\n    function __successValidateCashOut(uint256 _sessionId, uint256 _cashOutId) public {\n        emit ValidateCashOutSuccess(_sessionId, _cashOutId);\n    }\n\n    function __failValidateCashOut(uint256 _sessionId, uint256 _cashOutId) public {\n        emit ValidateCashOutFailed(_sessionId, _cashOutId);\n    }\n\n    // Close cash out components:\n\n    event CloseCashOutAccepted();\n    event CloseCashOutSuccess(uint256 _sessionId, uint256 _cashOutId);\n    event CloseCashOutFailed(uint256 _sessionId, uint256 _cashOutId);\n\n    function closeCashOut(uint256 _sessionId, uint256 _cashOutId) public {\n        CashOutApi(context.get(CASH_OUT_API)).closeCashOutChannel(\n            _sessionId, \n            _cashOutId, \n            this.__failCloseCashOut,\n            this.__successCloseCashOut\n        );\n    }\n\n    function __successCloseCashOut(uint256 _sessionId, uint256 _cashOutId) public {\n        emit CloseCashOutSuccess(_sessionId, _cashOutId);\n    }\n\n    function __failCloseCashOut(uint256 _sessionId, uint256 _cashOutId) public {\n        emit CloseCashOutFailed(_sessionId, _cashOutId);\n    }\n\n    // Rollback cash out components:\n\n    event RollbackCashOutAccepted();\n    event RollbackCashOutSuccess(uint256 _cashOutId);\n    event RollbackCashOutFailed(uint256 _cashOutId);\n\n    function rollbackCashOut(uint256 _cashOutId) public {\n        CashOutApi(context.get(CASH_OUT_API)).rollbackCashOutChannel(\n            _cashOutId, \n            this.__failRollbackCashOut,\n            this.__successRollbackCashOut\n        );\n    }\n\n    function __successRollbackCashOut(uint256 _cashOutId) public {\n        emit RollbackCashOutSuccess(_cashOutId);\n    }\n\n    function __failRollbackCashOut(uint256 _cashOutId) public {\n        emit RollbackCashOutFailed(_cashOutId);\n    }\n\n}",
  "sourcePath": "/home/andrew/Desktop/solidity-experiments/callback-cash-in/contracts/application/CapitalHero.sol",
  "compiler": {
    "name": "solc",
    "version": "0.4.24+commit.e67f0147.Emscripten.clang"
  },
  "schemaVersion": "2.0.1",
  "updatedAt": "2018-11-16T14:01:26.244Z"
}