{
  "contractName": "CapitalHero",
  "abi": [
    {
      "inputs": [
        {
          "name": "_context",
          "type": "address"
        }
      ],
      "payable": false,
      "stateMutability": "nonpayable",
      "type": "constructor"
    },
    {
      "anonymous": false,
      "inputs": [
        {
          "indexed": false,
          "name": "_sessionId",
          "type": "uint256"
        },
        {
          "indexed": false,
          "name": "_maxBalance",
          "type": "uint256"
        }
      ],
      "name": "RequestSended",
      "type": "event"
    },
    {
      "anonymous": false,
      "inputs": [
        {
          "indexed": false,
          "name": "_sessionId",
          "type": "uint256"
        },
        {
          "indexed": false,
          "name": "_cashInId",
          "type": "uint256"
        }
      ],
      "name": "CashInOpened",
      "type": "event"
    },
    {
      "anonymous": false,
      "inputs": [
        {
          "indexed": false,
          "name": "_sessionId",
          "type": "uint256"
        },
        {
          "indexed": false,
          "name": "_cashInId",
          "type": "uint256"
        },
        {
          "indexed": false,
          "name": "_amount",
          "type": "uint256"
        }
      ],
      "name": "CashInUpdate",
      "type": "event"
    },
    {
      "anonymous": false,
      "inputs": [
        {
          "indexed": false,
          "name": "_sessionId",
          "type": "uint256"
        }
      ],
      "name": "CashInFail",
      "type": "event"
    },
    {
      "anonymous": false,
      "inputs": [
        {
          "indexed": false,
          "name": "_sessionId",
          "type": "uint256"
        }
      ],
      "name": "SessionCloseAccepted",
      "type": "event"
    },
    {
      "anonymous": false,
      "inputs": [
        {
          "indexed": false,
          "name": "_sessionId",
          "type": "uint256"
        }
      ],
      "name": "SessionCloseSuccess",
      "type": "event"
    },
    {
      "anonymous": false,
      "inputs": [
        {
          "indexed": false,
          "name": "_sessionId",
          "type": "uint256"
        }
      ],
      "name": "SessionCloseFail",
      "type": "event"
    },
    {
      "anonymous": false,
      "inputs": [
        {
          "indexed": false,
          "name": "_sessionId",
          "type": "uint256"
        }
      ],
      "name": "GetKioskInfoAccepted",
      "type": "event"
    },
    {
      "anonymous": false,
      "inputs": [
        {
          "indexed": false,
          "name": "_sessionId",
          "type": "uint256"
        },
        {
          "indexed": false,
          "name": "_id",
          "type": "string"
        },
        {
          "indexed": false,
          "name": "_location",
          "type": "string"
        },
        {
          "indexed": false,
          "name": "_name",
          "type": "string"
        },
        {
          "indexed": false,
          "name": "_timezone",
          "type": "string"
        },
        {
          "indexed": false,
          "name": "_bills",
          "type": "uint256[]"
        },
        {
          "indexed": false,
          "name": "_amounts",
          "type": "uint256[]"
        }
      ],
      "name": "GetKioskInfoSuccess",
      "type": "event"
    },
    {
      "anonymous": false,
      "inputs": [
        {
          "indexed": false,
          "name": "_sessionId",
          "type": "uint256"
        }
      ],
      "name": "GetKioskInfoFail",
      "type": "event"
    },
    {
      "constant": false,
      "inputs": [
        {
          "name": "_sessionId",
          "type": "uint256"
        },
        {
          "name": "_maxBalance",
          "type": "uint256"
        }
      ],
      "name": "open",
      "outputs": [],
      "payable": false,
      "stateMutability": "nonpayable",
      "type": "function"
    },
    {
      "constant": false,
      "inputs": [
        {
          "name": "_sessionId",
          "type": "uint256"
        }
      ],
      "name": "_openFail",
      "outputs": [],
      "payable": false,
      "stateMutability": "nonpayable",
      "type": "function"
    },
    {
      "constant": false,
      "inputs": [
        {
          "name": "_sessionId",
          "type": "uint256"
        },
        {
          "name": "_cashInId",
          "type": "uint256"
        }
      ],
      "name": "_openSuccess",
      "outputs": [],
      "payable": false,
      "stateMutability": "nonpayable",
      "type": "function"
    },
    {
      "constant": false,
      "inputs": [
        {
          "name": "_sessionId",
          "type": "uint256"
        },
        {
          "name": "_cashInId",
          "type": "uint256"
        },
        {
          "name": "_amount",
          "type": "uint256"
        }
      ],
      "name": "_balanceUpdate",
      "outputs": [],
      "payable": false,
      "stateMutability": "nonpayable",
      "type": "function"
    },
    {
      "constant": false,
      "inputs": [
        {
          "name": "_sessionId",
          "type": "uint256"
        }
      ],
      "name": "closeSession",
      "outputs": [],
      "payable": false,
      "stateMutability": "nonpayable",
      "type": "function"
    },
    {
      "constant": false,
      "inputs": [
        {
          "name": "_sessionId",
          "type": "uint256"
        }
      ],
      "name": "__successSessionClose",
      "outputs": [],
      "payable": false,
      "stateMutability": "nonpayable",
      "type": "function"
    },
    {
      "constant": false,
      "inputs": [
        {
          "name": "_sessionId",
          "type": "uint256"
        }
      ],
      "name": "__failSessionClose",
      "outputs": [],
      "payable": false,
      "stateMutability": "nonpayable",
      "type": "function"
    },
    {
      "constant": false,
      "inputs": [
        {
          "name": "_sessionId",
          "type": "uint256"
        }
      ],
      "name": "getKioskInfo",
      "outputs": [],
      "payable": false,
      "stateMutability": "nonpayable",
      "type": "function"
    },
    {
      "constant": false,
      "inputs": [
        {
          "name": "_sessionId",
          "type": "uint256"
        },
        {
          "name": "_id",
          "type": "string"
        },
        {
          "name": "_location",
          "type": "string"
        },
        {
          "name": "_name",
          "type": "string"
        },
        {
          "name": "_timezone",
          "type": "string"
        },
        {
          "name": "_bills",
          "type": "uint256[]"
        },
        {
          "name": "_amounts",
          "type": "uint256[]"
        }
      ],
      "name": "__kioskInfoSuccess",
      "outputs": [],
      "payable": false,
      "stateMutability": "nonpayable",
      "type": "function"
    },
    {
      "constant": false,
      "inputs": [
        {
          "name": "_sessionId",
          "type": "uint256"
        }
      ],
      "name": "__kioskInfoFail",
      "outputs": [],
      "payable": false,
      "stateMutability": "nonpayable",
      "type": "function"
    }
  ],
  "bytecode": "0x608060405234801561001057600080fd5b50604051602080610cd0833981016040525160008054600160a060020a03909216600160a060020a0319909216919091179055610c7e806100526000396000f3006080604052600436106100a35763ffffffff7c01000000000000000000000000000000000000000000000000000000006000350416630cb35bff81146100a8578063131daef6146100c25780634082de671461024c57806354bbf7fa146102675780635564ee0e1461027f5780637792c9bb14610297578063a3bfdf47146102b2578063bed13487146102ca578063c11afce7146102e2578063e1986628146102fa575b600080fd5b3480156100b457600080fd5b506100c0600435610318565b005b3480156100ce57600080fd5b5060408051602060046024803582810135601f81018590048502860185019096528585526100c095833595369560449491939091019190819084018382808284375050604080516020601f89358b018035918201839004830284018301909452808352979a99988101979196509182019450925082915084018382808284375050604080516020601f89358b018035918201839004830284018301909452808352979a99988101979196509182019450925082915084018382808284375050604080516020601f89358b018035918201839004830284018301909452808352979a999881019791965091820194509250829150840183828082843750506040805187358901803560208181028481018201909552818452989b9a998901989297509082019550935083925085019084908082843750506040805187358901803560208181028481018201909552818452989b9a99890198929750908201955093508392508501908490808284375094975061049d9650505050505050565b34801561025857600080fd5b506100c0600435602435610704565b34801561027357600080fd5b506100c060043561093d565b34801561028b57600080fd5b506100c0600435610973565b3480156102a357600080fd5b506100c06004356024356109a9565b3480156102be57600080fd5b506100c06004356109e8565b3480156102d657600080fd5b506100c0600435610ba1565b3480156102ee57600080fd5b506100c0600435610bd7565b34801561030657600080fd5b506100c0600435602435604435610c0d565b60008054604080517f693ec85e000000000000000000000000000000000000000000000000000000008152602060048201819052601060248301527f6b696f736b2d636f6e74726f6c6c6572000000000000000000000000000000006044830152915173ffffffffffffffffffffffffffffffffffffffff9093169363693ec85e93606480840194939192918390030190829087803b1580156103ba57600080fd5b505af11580156103ce573d6000803e3d6000fd5b505050506040513d60208110156103e457600080fd5b5051604080517f28eb3f5c0000000000000000000000000000000000000000000000000000000081526004810184905268010000000000000000640100000000300263131daef6811782026024840152635564ee0e17026044820152905173ffffffffffffffffffffffffffffffffffffffff909216916328eb3f5c9160648082019260009290919082900301818387803b15801561048257600080fd5b505af1158015610496573d6000803e3d6000fd5b5050505050565b7fb105c817eb5596e3dffa8bf3b823777bae1de472db209443a4c4f129e493d317878787878787876040518088815260200180602001806020018060200180602001806020018060200187810387528d818151815260200191508051906020019080838360005b8381101561051c578181015183820152602001610504565b50505050905090810190601f1680156105495780820380516001836020036101000a031916815260200191505b5087810386528c5181528c516020918201918e019080838360005b8381101561057c578181015183820152602001610564565b50505050905090810190601f1680156105a95780820380516001836020036101000a031916815260200191505b5087810385528b5181528b516020918201918d019080838360005b838110156105dc5781810151838201526020016105c4565b50505050905090810190601f1680156106095780820380516001836020036101000a031916815260200191505b5087810384528a5181528a516020918201918c019080838360005b8381101561063c578181015183820152602001610624565b50505050905090810190601f1680156106695780820380516001836020036101000a031916815260200191505b508781038352895181528951602091820191808c01910280838360005b8381101561069e578181015183820152602001610686565b50505050905001878103825288818151815260200191508051906020019060200280838360005b838110156106dd5781810151838201526020016106c5565b505050509050019d505050505050505050505050505060405180910390a150505050505050565b60008054604080518082018252601281527f636173682d696e2d636f6e74726f6c6c65720000000000000000000000000000602080830191825292517f693ec85e0000000000000000000000000000000000000000000000000000000081526004810193845282516024820152825173ffffffffffffffffffffffffffffffffffffffff9095169563693ec85e959394938493604490930192918190849084905b838110156107bd5781810151838201526020016107a5565b50505050905090810190601f1680156107ea5780820380516001836020036101000a031916815260200191505b5092505050602060405180830381600087803b15801561080957600080fd5b505af115801561081d573d6000803e3d6000fd5b505050506040513d602081101561083357600080fd5b5051604080517fe5be8eec0000000000000000000000000000000000000000000000000000000081526004810185905260248101849052680100000000000000006401000000003002637792c9bb81178202604484015263e198662881178202606484015263bed1348717026084820152905173ffffffffffffffffffffffffffffffffffffffff9092169163e5be8eec9160a48082019260009290919082900301818387803b1580156108e657600080fd5b505af11580156108fa573d6000803e3d6000fd5b5050604080518581526020810185905281517f647cba28e04f550f0f4b65117e955dbbe9cce598f331c2a7ad84a19cc8706d879450908190039091019150a15050565b6040805182815290517f47e847de32bea3f9fc419b25052c5f35324af762592c86d6b5c03244cf2129db9181900360200190a150565b6040805182815290517fbebe8c16a074cb681633d407e2fa0412e0ee5d682f36bad2160382e7674cdb6b9181900360200190a150565b604080518381526020810183905281517fc5056889444309461095c5b36d568a7e37e4e0114c283a3f59810e6e7d5e1b83929181900390910190a15050565b60008054604080517f693ec85e000000000000000000000000000000000000000000000000000000008152602060048201819052601260248301527f73657373696f6e2d636f6e74726f6c6c657200000000000000000000000000006044830152915173ffffffffffffffffffffffffffffffffffffffff9093169363693ec85e93606480840194939192918390030190829087803b158015610a8a57600080fd5b505af1158015610a9e573d6000803e3d6000fd5b505050506040513d6020811015610ab457600080fd5b5051604080517f830cc51e0000000000000000000000000000000000000000000000000000000081526004810184905268010000000000000000640100000000300263c11afce78117820260248401526354bbf7fa17026044820152905173ffffffffffffffffffffffffffffffffffffffff9092169163830cc51e9160648082019260009290919082900301818387803b158015610b5257600080fd5b505af1158015610b66573d6000803e3d6000fd5b50506040805184815290517f99446452648e434ad323d46f565e61096b84a188787f224362a0abc11315cca69350908190036020019150a150565b6040805182815290517ffa8aefc80899a624d8ea76e5b5ee8c91ca4bf59d5abab5b8462d52aa4bb057ec9181900360200190a150565b6040805182815290517f70904f7b0d190eb0e68979713492feaee7f35e408f0311938bade01efd5eba4e9181900360200190a150565b604080518481526020810184905280820183905290517fe78061f1ecca254f11af5ba62050f89f89ab45a16cf807ce56e3cd61a8b9d4e39181900360600190a15050505600a165627a7a7230582042fb9c5cafba9cc47a23b7d5e6ac663281ec95e6074b629f08049982c8ef69090029",
  "source": "pragma solidity 0.4.24;\n\nimport \"../platform/Context.sol\";\nimport \"../controllers/api/ACashInController.sol\";\nimport \"../controllers/api/ASessionController.sol\";\nimport \"../controllers/api/public/KioskApi.sol\";\n\ncontract CapitalHero {\n\n    string constant CONTROLLER = \"cash-in-controller\";\n\n    Context private context;\n\n    constructor(address _context) public {\n        context = Context(_context);\n    }\n\n    event RequestSended(uint256 _sessionId, uint256 _maxBalance);\n    event CashInOpened(uint256 _sessionId, uint256 _cashInId);\n    event CashInUpdate(uint256 _sessionId, uint256 _cashInId, uint256 _amount);\n    event CashInFail(uint256 _sessionId);\n\n    function open(uint256 _sessionId, uint256 _maxBalance) public {\n        ACashInController(context.get(CONTROLLER)).openCashInChannel(\n            _sessionId, \n            _maxBalance, \n            this._openSuccess, \n            this._balanceUpdate, \n            this._openFail\n        );\n        emit RequestSended(_sessionId, _maxBalance);\n    }\n\n    function _openFail(uint256 _sessionId) public {\n        emit CashInFail(_sessionId);\n    }\n\n    function _openSuccess(uint256 _sessionId, uint256 _cashInId) public {\n        emit CashInOpened(_sessionId, _cashInId);\n    }\n\n    function _balanceUpdate(uint256 _sessionId, uint256 _cashInId, uint256 _amount) public {\n        emit CashInUpdate(_sessionId, _cashInId, _amount);\n    }\n\n    event SessionCloseAccepted(uint256 _sessionId);\n    event SessionCloseSuccess(uint256 _sessionId);\n    event SessionCloseFail(uint256 _sessionId);\n\n    function closeSession(uint256 _sessionId) public {\n        ASessionController(context.get(\"session-controller\")).closeSession(_sessionId, this.__successSessionClose, this.__failSessionClose);\n        emit SessionCloseAccepted(_sessionId);\n    }\n\n    function __successSessionClose(uint256 _sessionId) public {\n        emit SessionCloseSuccess(_sessionId);\n    }\n\n    function __failSessionClose(uint256 _sessionId) public {\n        emit SessionCloseFail(_sessionId);\n    }\n\n    event GetKioskInfoAccepted(uint256 _sessionId);\n    event GetKioskInfoSuccess(\n        uint256 _sessionId, \n        string _id,\n        string _location,\n        string _name,\n        string _timezone,\n        uint256[] _bills,\n        uint256[] _amounts    \n    );\n    event GetKioskInfoFail(uint256 _sessionId);\n\n    function getKioskInfo(uint256 _sessionId) public {\n        KioskApi(context.get(\"kiosk-controller\")).getKiosk(_sessionId, this.__kioskInfoSuccess, this.__kioskInfoFail);\n    }\n\n    function __kioskInfoSuccess(\n        uint256 _sessionId,\n        string _id,\n        string _location,\n        string _name,\n        string _timezone,\n        uint256[] _bills,\n        uint256[] _amounts\n    ) \n        public \n    {\n        emit GetKioskInfoSuccess(_sessionId, _id, _location, _name, _timezone, _bills, _amounts);\n    }\n\n    function __kioskInfoFail(\n        uint256 _sessionId\n    ) \n        public \n    {\n        emit GetKioskInfoFail(_sessionId);\n    }\n\n}",
  "sourcePath": "/home/andrew/Desktop/solidity-experiments/callback-cash-in/contracts/application/CapitalHero.sol",
  "compiler": {
    "name": "solc",
    "version": "0.4.24+commit.e67f0147.Emscripten.clang"
  },
  "schemaVersion": "2.0.1",
  "updatedAt": "2018-11-15T15:09:12.970Z"
}