{
  "contractName": "CashOutManager",
  "abi": [
    {
      "constant": true,
      "inputs": [],
      "name": "name",
      "outputs": [
        {
          "name": "",
          "type": "string"
        }
      ],
      "payable": false,
      "stateMutability": "view",
      "type": "function"
    },
    {
      "constant": false,
      "inputs": [],
      "name": "kill",
      "outputs": [],
      "payable": false,
      "stateMutability": "nonpayable",
      "type": "function"
    },
    {
      "constant": true,
      "inputs": [],
      "name": "owner",
      "outputs": [
        {
          "name": "",
          "type": "address"
        }
      ],
      "payable": false,
      "stateMutability": "view",
      "type": "function"
    },
    {
      "inputs": [
        {
          "name": "_config",
          "type": "address"
        }
      ],
      "payable": false,
      "stateMutability": "nonpayable",
      "type": "constructor"
    },
    {
      "constant": false,
      "inputs": [
        {
          "name": "_application",
          "type": "address"
        },
        {
          "name": "_kioskId",
          "type": "string"
        },
        {
          "name": "_toWithdraw",
          "type": "uint256"
        },
        {
          "name": "_fees",
          "type": "uint256[]"
        },
        {
          "name": "_parties",
          "type": "address[]"
        },
        {
          "name": "_fail",
          "type": "function"
        },
        {
          "name": "_success",
          "type": "function"
        }
      ],
      "name": "openCashOutChannel",
      "outputs": [],
      "payable": false,
      "stateMutability": "nonpayable",
      "type": "function"
    },
    {
      "constant": false,
      "inputs": [
        {
          "name": "_commandId",
          "type": "uint256"
        }
      ],
      "name": "confirmOpen",
      "outputs": [],
      "payable": false,
      "stateMutability": "nonpayable",
      "type": "function"
    },
    {
      "constant": false,
      "inputs": [
        {
          "name": "_commandId",
          "type": "uint256"
        }
      ],
      "name": "confirmFailOpen",
      "outputs": [],
      "payable": false,
      "stateMutability": "nonpayable",
      "type": "function"
    },
    {
      "constant": false,
      "inputs": [
        {
          "name": "_application",
          "type": "address"
        },
        {
          "name": "_sessionId",
          "type": "uint256"
        },
        {
          "name": "_cashOutId",
          "type": "uint256"
        },
        {
          "name": "_fail",
          "type": "function"
        },
        {
          "name": "_success",
          "type": "function"
        }
      ],
      "name": "validateCashOutChannel",
      "outputs": [],
      "payable": false,
      "stateMutability": "nonpayable",
      "type": "function"
    },
    {
      "constant": false,
      "inputs": [
        {
          "name": "_commandId",
          "type": "uint256"
        }
      ],
      "name": "confirmValidate",
      "outputs": [],
      "payable": false,
      "stateMutability": "nonpayable",
      "type": "function"
    },
    {
      "constant": false,
      "inputs": [
        {
          "name": "_commandId",
          "type": "uint256"
        }
      ],
      "name": "confirmFailValidate",
      "outputs": [],
      "payable": false,
      "stateMutability": "nonpayable",
      "type": "function"
    },
    {
      "constant": false,
      "inputs": [
        {
          "name": "_application",
          "type": "address"
        },
        {
          "name": "_sessionId",
          "type": "uint256"
        },
        {
          "name": "_cashOutId",
          "type": "uint256"
        },
        {
          "name": "_fail",
          "type": "function"
        },
        {
          "name": "_success",
          "type": "function"
        }
      ],
      "name": "closeCashOutChannel",
      "outputs": [],
      "payable": false,
      "stateMutability": "nonpayable",
      "type": "function"
    },
    {
      "constant": false,
      "inputs": [
        {
          "name": "_commandId",
          "type": "uint256"
        }
      ],
      "name": "confirmClose",
      "outputs": [],
      "payable": false,
      "stateMutability": "nonpayable",
      "type": "function"
    },
    {
      "constant": false,
      "inputs": [
        {
          "name": "_commandId",
          "type": "uint256"
        }
      ],
      "name": "confirmFailClose",
      "outputs": [],
      "payable": false,
      "stateMutability": "nonpayable",
      "type": "function"
    },
    {
      "constant": false,
      "inputs": [
        {
          "name": "_application",
          "type": "address"
        },
        {
          "name": "_cashOutId",
          "type": "uint256"
        },
        {
          "name": "_fail",
          "type": "function"
        },
        {
          "name": "_success",
          "type": "function"
        }
      ],
      "name": "rollbackCashOutChannel",
      "outputs": [],
      "payable": false,
      "stateMutability": "nonpayable",
      "type": "function"
    },
    {
      "constant": false,
      "inputs": [
        {
          "name": "_commandId",
          "type": "uint256"
        }
      ],
      "name": "confirmRollback",
      "outputs": [],
      "payable": false,
      "stateMutability": "nonpayable",
      "type": "function"
    },
    {
      "constant": false,
      "inputs": [
        {
          "name": "_commandId",
          "type": "uint256"
        }
      ],
      "name": "confirmFailRollback",
      "outputs": [],
      "payable": false,
      "stateMutability": "nonpayable",
      "type": "function"
    }
  ],
  "bytecode": "0x60806040523480156200001157600080fd5b50604051602080620033b4833981016040818152915182820190925260108082527f636173682d6f75742d6d616e61676572000000000000000000000000000000006020830190815260008054600160a060020a031916331790558392916200007d91600191620002b8565b505080600160a060020a031663713b563f6040518163ffffffff167c0100000000000000000000000000000000000000000000000000000000028152600401602060405180830381600087803b158015620000d757600080fd5b505af1158015620000ec573d6000803e3d6000fd5b505050506040513d60208110156200010357600080fd5b505160038054600160a060020a031916600160a060020a03928316179055604080517fd0496d6a00000000000000000000000000000000000000000000000000000000815290519183169163d0496d6a916004808201926020929091908290030181600087803b1580156200017757600080fd5b505af11580156200018c573d6000803e3d6000fd5b505050506040513d6020811015620001a357600080fd5b505160028054600160a060020a031916600160a060020a03928316178082556040517ff2c298be00000000000000000000000000000000000000000000000000000000815260206004820190815260018054610100818316150260001901169490940460248301819052929094169363f2c298be93929091829160449091019084908015620002765780601f106200024a5761010080835404028352916020019162000276565b820191906000526020600020905b8154815290600101906020018083116200025857829003601f168201915b505092505050600060405180830381600087803b1580156200029757600080fd5b505af1158015620002ac573d6000803e3d6000fd5b5050505050506200035d565b828054600181600116156101000203166002900490600052602060002090601f016020900481019282601f10620002fb57805160ff19168380011785556200032b565b828001600101855582156200032b579182015b828111156200032b5782518255916020019190600101906200030e565b50620003399291506200033d565b5090565b6200035a91905b8082111562000339576000815560010162000344565b90565b613047806200036d6000396000f3006080604052600436106100c15763ffffffff60e060020a60003504166306fdde0381146100c657806316d0acc91461015057806341c0e1b5146102595780634250e51b1461026e5780635940c655146102b85780637eaa901f146102d057806384397158146102e8578063882d5f7a146103355780638da5cb5b1461034d57806394024af41461037e578063c61307af14610396578063d8fb4c60146103ae578063df37e8d8146103c6578063e79be969146103de578063f4cea1ac146103f6575b600080fd5b3480156100d257600080fd5b506100db610443565b6040805160208082528351818301528351919283929083019185019080838360005b838110156101155781810151838201526020016100fd565b50505050905090810190601f1680156101425780820380516001836020036101000a031916815260200191505b509250505060405180910390f35b34801561015c57600080fd5b5060408051602060046024803582810135601f8101859004850286018501909652858552610257958335600160a060020a031695369560449491939091019190819084018382808284375050604080516020808901358a01803580830284810184018652818552999c8b359c909b909a950198509296508101945090925082919085019084908082843750506040805187358901803560208181028481018201909552818452989b9a99890198929750908201955093508392508501908490808284375094975050606060020a8535818104975063ffffffff604060020a9182900481169760200135928304965091041692506104d0915050565b005b34801561026557600080fd5b50610257610a04565b34801561027a57600080fd5b50610257600160a060020a0360043516602435606060020a6044358181049163ffffffff604060020a92839004811692606435928304920416610a81565b3480156102c457600080fd5b50610257600435610d99565b3480156102dc57600080fd5b506102576004356111a6565b3480156102f457600080fd5b50610257600160a060020a0360043516602435604435606060020a6064358181049163ffffffff604060020a9283900481169260843592830492041661158d565b34801561034157600080fd5b50610257600435611aaf565b34801561035957600080fd5b50610362611de0565b60408051600160a060020a039092168252519081900360200190f35b34801561038a57600080fd5b50610257600435611def565b3480156103a257600080fd5b50610257600435612120565b3480156103ba57600080fd5b50610257600435612354565b3480156103d257600080fd5b5061025760043561268b565b3480156103ea57600080fd5b506102576004356128b2565b34801561040257600080fd5b50610257600160a060020a0360043516602435604435606060020a6064358181049163ffffffff604060020a92839004811692608435928304920416612ae6565b60018054604080516020600284861615610100026000190190941693909304601f810184900484028201840190925281815292918301828280156104c85780601f1061049d576101008083540402835291602001916104c8565b820191906000526020600020905b8154815290600101906020018083116104ab57829003601f168201915b505050505081565b60025460408051808201825260108152600080516020612ffc8339815191526020808301918252925160e160020a63349f642f028152600481019384528251602482015282516000958695600160a060020a039091169463693ec85e9490939192839260440191908083838b5b8381101561055557818101518382015260200161053d565b50505050905090810190601f1680156105825780820380516001836020036101000a031916815260200191505b5092505050602060405180830381600087803b1580156105a157600080fd5b505af11580156105b5573d6000803e3d6000fd5b505050506040513d60208110156105cb57600080fd5b5051604080517f36b70c61000000000000000000000000000000000000000000000000000000008152600160a060020a038e811660048301529151929450908416916336b70c61916024808201926020929091908290030181600087803b15801561063557600080fd5b505af1158015610649573d6000803e3d6000fd5b505050506040513d602081101561065f57600080fd5b8101908080519060200190929190505050905081600160a060020a031663f5310f9d828c898989896040518763ffffffff1660e060020a0281526004018087815260200180602001868663ffffffff16906401000000000217604060020a028152602001848463ffffffff16906401000000000217604060020a028152602001828103825287818151815260200191508051906020019080838360005b838110156107145781810151838201526020016106fc565b50505050905090810190601f1680156107415780820380516001836020036101000a031916815260200191505b50975050505050505050600060405180830381600087803b15801561076557600080fd5b505af1158015610779573d6000803e3d6000fd5b5050505081600160a060020a0316638073ed07828b60646113888d8d6040518763ffffffff1660e060020a028152600401808781526020018681526020018581526020018481526020018060200180602001838103835285818151815260200191508051906020019060200280838360005b838110156108035781810151838201526020016107eb565b50505050905001838103825284818151815260200191508051906020019060200280838360005b8381101561084257818101518382015260200161082a565b5050505090500198505050505050505050600060405180830381600087803b15801561086d57600080fd5b505af1158015610881573d6000803e3d6000fd5b5050600254604080518082018252600f8152600080516020612fbc8339815191526020808301918252925160e160020a63349f642f02815260048101938452825160248201528251600160a060020a03909516965063693ec85e955091938392604401919080838360005b838110156109045781810151838201526020016108ec565b50505050905090810190601f1680156109315780820380516001836020036101000a031916815260200191505b5092505050602060405180830381600087803b15801561095057600080fd5b505af1158015610964573d6000803e3d6000fd5b505050506040513d602081101561097a57600080fd5b5051604080517f105ecd49000000000000000000000000000000000000000000000000000000008152600481018490529051600160a060020a039092169163105ecd499160248082019260009290919082900301818387803b1580156109df57600080fd5b505af11580156109f3573d6000803e3d6000fd5b505050505050505050505050505050565b600054600160a060020a03163214610a7d57604080517f08c379a000000000000000000000000000000000000000000000000000000000815260206004820152601260248201527f6f6e6c79206f776e657220616c6c6f7765640000000000000000000000000000604482015290519081900360640190fd5b6000ff5b60025460408051808201825260108152600080516020612ffc8339815191526020808301918252925160e160020a63349f642f02815260048101938452825160248201528251600160a060020a039095169463693ec85e949283926044019180838360005b83811015610afe578181015183820152602001610ae6565b50505050905090810190601f168015610b2b5780820380516001836020036101000a031916815260200191505b5092505050602060405180830381600087803b158015610b4a57600080fd5b505af1158015610b5e573d6000803e3d6000fd5b505050506040513d6020811015610b7457600080fd5b5051604080517f9f7cf09500000000000000000000000000000000000000000000000000000000815260048101889052604060020a64010000000080890263ffffffff808a169190911783026024850152908702908616170260448201529051600160a060020a0390921691639f7cf0959160648082019260009290919082900301818387803b158015610c0757600080fd5b505af1158015610c1b573d6000803e3d6000fd5b5050600254604080518082018252600f8152600080516020612fbc8339815191526020808301918252925160e160020a63349f642f02815260048101938452825160248201528251600160a060020a03909516965063693ec85e955091938392604401919080838360005b83811015610c9e578181015183820152602001610c86565b50505050905090810190601f168015610ccb5780820380516001836020036101000a031916815260200191505b5092505050602060405180830381600087803b158015610cea57600080fd5b505af1158015610cfe573d6000803e3d6000fd5b505050506040513d6020811015610d1457600080fd5b5051604080517f5a2c5cd0000000000000000000000000000000000000000000000000000000008152600481018890529051600160a060020a0390921691635a2c5cd09160248082019260009290919082900301818387803b158015610d7957600080fd5b505af1158015610d8d573d6000803e3d6000fd5b50505050505050505050565b60025460408051808201825260108152600080516020612ffc8339815191526020808301918252925160e160020a63349f642f028152600481019384528251602482015282516060956000958695600160a060020a039092169463693ec85e94929391928392604490910191908083838b5b83811015610e23578181015183820152602001610e0b565b50505050905090810190601f168015610e505780820380516001836020036101000a031916815260200191505b5092505050602060405180830381600087803b158015610e6f57600080fd5b505af1158015610e83573d6000803e3d6000fd5b505050506040513d6020811015610e9957600080fd5b5051604080517fc9d88c24000000000000000000000000000000000000000000000000000000008152600481018790529051600160a060020a039092169163c9d88c249160248082019260009290919082900301818387803b158015610efe57600080fd5b505af1158015610f12573d6000803e3d6000fd5b505050506040513d6000823e601f3d908101601f191682016040526060811015610f3b57600080fd5b810190808051640100000000811115610f5357600080fd5b82016020810184811115610f6657600080fd5b8151640100000000811182820187101715610f8057600080fd5b50506040918201516002548351808501855260138152600080516020612fdc8339815191526020828101918252955160e160020a63349f642f02815260048101968752825160248201528251959b50606060020a85049a50604060020a90940463ffffffff169850600160a060020a03909216965063693ec85e955093928392604401919080838360005b8381101561102357818101518382015260200161100b565b50505050905090810190601f1680156110505780820380516001836020036101000a031916815260200191505b5092505050602060405180830381600087803b15801561106f57600080fd5b505af1158015611083573d6000803e3d6000fd5b505050506040513d602081101561109957600080fd5b50516040517f202c7db000000000000000000000000000000000000000000000000000000000815260248101869052604060020a640100000000850263ffffffff851617026044820152606060048201908152855160648301528551600160a060020a039093169263202c7db092879289928892889291829160840190602088019080838360005b83811015611139578181015183820152602001611121565b50505050905090810190601f1680156111665780820380516001836020036101000a031916815260200191505b5095505050505050600060405180830381600087803b15801561118857600080fd5b505af115801561119c573d6000803e3d6000fd5b5050505050505050565b60025460408051808201825260108152600080516020612ffc8339815191526020808301918252925160e160020a63349f642f028152600481019384528251602482015282516060956000958695600160a060020a039092169463693ec85e94929391928392604490910191908083838b5b83811015611230578181015183820152602001611218565b50505050905090810190601f16801561125d5780820380516001836020036101000a031916815260200191505b5092505050602060405180830381600087803b15801561127c57600080fd5b505af1158015611290573d6000803e3d6000fd5b505050506040513d60208110156112a657600080fd5b5051604080517fc9d88c24000000000000000000000000000000000000000000000000000000008152600481018790529051600160a060020a039092169163c9d88c249160248082019260009290919082900301818387803b15801561130b57600080fd5b505af115801561131f573d6000803e3d6000fd5b505050506040513d6000823e601f3d908101601f19168201604052606081101561134857600080fd5b81019080805164010000000081111561136057600080fd5b8201602081018481111561137357600080fd5b815164010000000081118282018710171561138d57600080fd5b505060209182015160025460408051808201825260138152600080516020612fdc833981519152818701908152915160e160020a63349f642f02815260048101968752815160248201528151959b50606060020a85049a50604060020a90940463ffffffff169850600160a060020a03909216965063693ec85e95509093928392604401919080838360005b83811015611431578181015183820152602001611419565b50505050905090810190601f16801561145e5780820380516001836020036101000a031916815260200191505b5092505050602060405180830381600087803b15801561147d57600080fd5b505af1158015611491573d6000803e3d6000fd5b505050506040513d60208110156114a757600080fd5b5051604080517f8a2fa1d2000000000000000000000000000000000000000000000000000000008152604060020a640100000000860263ffffffff86161702602482015260048101918252855160448201528551600160a060020a0390931692638a2fa1d292879287928792918291606490910190602087019080838360005b8381101561153f578181015183820152602001611527565b50505050905090810190601f16801561156c5780820380516001836020036101000a031916815260200191505b50945050505050600060405180830381600087803b15801561118857600080fd5b60025460408051808201825260108152600080516020612ffc8339815191526020808301918252925160e160020a63349f642f028152600481019384528251602482015282516000958695606095600160a060020a039092169463693ec85e94929391928392604490910191908083838c5b838110156116175781810151838201526020016115ff565b50505050905090810190601f1680156116445780820380516001836020036101000a031916815260200191505b5092505050602060405180830381600087803b15801561166357600080fd5b505af1158015611677573d6000803e3d6000fd5b505050506040513d602081101561168d57600080fd5b5051604080517f11ac7c7c000000000000000000000000000000000000000000000000000000008152600481018b9052602481018c9052604060020a640100000000808c0263ffffffff808d169190911783026044850152908a02908916170260648201529051919450600160a060020a038516916311ac7c7c9160848082019260009290919082900301818387803b15801561172957600080fd5b505af115801561173d573d6000803e3d6000fd5b5050505082600160a060020a031663c0f962ae896040518263ffffffff1660e060020a02815260040180828152602001915050600060405180830381600087803b15801561178a57600080fd5b505af115801561179e573d6000803e3d6000fd5b505050506040513d6000823e601f3d908101601f1916820160405260a08110156117c757600080fd5b81516020830151604084015160608501805193959294919391830192916401000000008111156117f657600080fd5b8201602081018481111561180957600080fd5b815185602082028301116401000000008211171561182657600080fd5b5050929190602001805164010000000081111561184257600080fd5b8201602081018481111561185557600080fd5b815185602082028301116401000000008211171561187257600080fd5b505060408051600280825260608201909252989a50965050505050505081602001602082028038833901905050905060058160008151811015156118b257fe5b602090810290910101528051601490829060019081106118ce57fe5b6020908102909101810191909152600254604080518082018252600f8152600080516020612fbc833981519152818501908152915160e160020a63349f642f02815260048101948552815160248201528151600160a060020a039094169463693ec85e94929390928392604401919080838360005b8381101561195b578181015183820152602001611943565b50505050905090810190601f1680156119885780820380516001836020036101000a031916815260200191505b5092505050602060405180830381600087803b1580156119a757600080fd5b505af11580156119bb573d6000803e3d6000fd5b505050506040513d60208110156119d157600080fd5b50516040517f1188ad25000000000000000000000000000000000000000000000000000000008152600481018a8152602482018c905260448201859052608060648301908152845160848401528451600160a060020a0390941693631188ad25938d938f938993899360a401906020858101910280838360005b83811015611a63578181015183820152602001611a4b565b5050505090500195505050505050600060405180830381600087803b158015611a8b57600080fd5b505af1158015611a9f573d6000803e3d6000fd5b5050505050505050505050505050565b60025460408051808201825260108152600080516020612ffc8339815191526020808301918252925160e160020a63349f642f0281526004810193845282516024820152825160009586958695600160a060020a039092169463693ec85e94929391928392604490910191908083838b5b83811015611b38578181015183820152602001611b20565b50505050905090810190601f168015611b655780820380516001836020036101000a031916815260200191505b5092505050602060405180830381600087803b158015611b8457600080fd5b505af1158015611b98573d6000803e3d6000fd5b505050506040513d6020811015611bae57600080fd5b5051604080517ff9029bc3000000000000000000000000000000000000000000000000000000008152600481018790529051600160a060020a039092169163f9029bc3916024808201926060929091908290030181600087803b158015611c1457600080fd5b505af1158015611c28573d6000803e3d6000fd5b505050506040513d6060811015611c3e57600080fd5b5080516040918201516002548351808501855260138152600080516020612fdc8339815191526020828101918252955160e160020a63349f642f02815260048101968752825160248201528251959950606060020a85049850604060020a90940463ffffffff169650600160a060020a039092169463693ec85e9491939092839260449092019180838360005b83811015611ce3578181015183820152602001611ccb565b50505050905090810190601f168015611d105780820380516001836020036101000a031916815260200191505b5092505050602060405180830381600087803b158015611d2f57600080fd5b505af1158015611d43573d6000803e3d6000fd5b505050506040513d6020811015611d5957600080fd5b5051604080517f192aed200000000000000000000000000000000000000000000000000000000081526004810186905260248101879052604060020a640100000000860263ffffffff8616170260448201529051600160a060020a039092169163192aed209160648082019260009290919082900301818387803b15801561118857600080fd5b600054600160a060020a031681565b60025460408051808201825260108152600080516020612ffc8339815191526020808301918252925160e160020a63349f642f0281526004810193845282516024820152825160009586958695600160a060020a039092169463693ec85e94929391928392604490910191908083838b5b83811015611e78578181015183820152602001611e60565b50505050905090810190601f168015611ea55780820380516001836020036101000a031916815260200191505b5092505050602060405180830381600087803b158015611ec457600080fd5b505af1158015611ed8573d6000803e3d6000fd5b505050506040513d6020811015611eee57600080fd5b5051604080517f22c53b3c000000000000000000000000000000000000000000000000000000008152600481018790529051600160a060020a03909216916322c53b3c916024808201926060929091908290030181600087803b158015611f5457600080fd5b505af1158015611f68573d6000803e3d6000fd5b505050506040513d6060811015611f7e57600080fd5b5080516040918201516002548351808501855260138152600080516020612fdc8339815191526020828101918252955160e160020a63349f642f02815260048101968752825160248201528251959950606060020a85049850604060020a90940463ffffffff169650600160a060020a039092169463693ec85e9491939092839260449092019180838360005b8381101561202357818101518382015260200161200b565b50505050905090810190601f1680156120505780820380516001836020036101000a031916815260200191505b5092505050602060405180830381600087803b15801561206f57600080fd5b505af1158015612083573d6000803e3d6000fd5b505050506040513d602081101561209957600080fd5b5051604080517f30fc80dc0000000000000000000000000000000000000000000000000000000081526004810186905260248101879052604060020a640100000000860263ffffffff8616170260448201529051600160a060020a03909216916330fc80dc9160648082019260009290919082900301818387803b15801561118857600080fd5b60025460408051808201825260108152600080516020612ffc8339815191526020808301918252925160e160020a63349f642f0281526004810193845282516024820152825160009586958695600160a060020a039092169463693ec85e94929391928392604490910191908083838b5b838110156121a9578181015183820152602001612191565b50505050905090810190601f1680156121d65780820380516001836020036101000a031916815260200191505b5092505050602060405180830381600087803b1580156121f557600080fd5b505af1158015612209573d6000803e3d6000fd5b505050506040513d602081101561221f57600080fd5b5051604080517ff9029bc3000000000000000000000000000000000000000000000000000000008152600481018790529051600160a060020a039092169163f9029bc3916024808201926060929091908290030181600087803b15801561228557600080fd5b505af1158015612299573d6000803e3d6000fd5b505050506040513d60608110156122af57600080fd5b50805160209182015160025460408051808201825260138152600080516020612fdc833981519152818701908152915160e160020a63349f642f02815260048101968752815160248201528151959950606060020a85049850604060020a90940463ffffffff169650600160a060020a039092169463693ec85e9492939092839260449092019190808383600083811015611ce3578181015183820152602001611ccb565b60025460408051808201825260108152600080516020612ffc8339815191526020808301918252925160e160020a63349f642f028152600481019384528251602482015282516000958695600160a060020a039091169463693ec85e9490939192839260440191908083838b5b838110156123d95781810151838201526020016123c1565b50505050905090810190601f1680156124065780820380516001836020036101000a031916815260200191505b5092505050602060405180830381600087803b15801561242557600080fd5b505af1158015612439573d6000803e3d6000fd5b505050506040513d602081101561244f57600080fd5b5051604080517f09a9f789000000000000000000000000000000000000000000000000000000008152600481018690528151600160a060020a03909316926309a9f789926024808401939192918290030181600087803b1580156124b257600080fd5b505af11580156124c6573d6000803e3d6000fd5b505050506040513d60408110156124dc57600080fd5b505160025460408051808201825260138152600080516020612fdc8339815191526020808301918252925160e160020a63349f642f02815260048101938452825160248201528251606060020a87049850604060020a90960463ffffffff169650600160a060020a039094169463693ec85e94929392839260449091019180838360005b83811015612578578181015183820152602001612560565b50505050905090810190601f1680156125a55780820380516001836020036101000a031916815260200191505b5092505050602060405180830381600087803b1580156125c457600080fd5b505af11580156125d8573d6000803e3d6000fd5b505050506040513d60208110156125ee57600080fd5b5051604080517f011c6d2000000000000000000000000000000000000000000000000000000000815260048101869052604060020a640100000000860263ffffffff8616170260248201529051600160a060020a039092169163011c6d209160448082019260009290919082900301818387803b15801561266e57600080fd5b505af1158015612682573d6000803e3d6000fd5b50505050505050565b60025460408051808201825260108152600080516020612ffc8339815191526020808301918252925160e160020a63349f642f028152600481019384528251602482015282516000958695600160a060020a039091169463693ec85e9490939192839260440191908083838b5b838110156127105781810151838201526020016126f8565b50505050905090810190601f16801561273d5780820380516001836020036101000a031916815260200191505b5092505050602060405180830381600087803b15801561275c57600080fd5b505af1158015612770573d6000803e3d6000fd5b505050506040513d602081101561278657600080fd5b5051604080517f09a9f789000000000000000000000000000000000000000000000000000000008152600481018690528151600160a060020a03909316926309a9f789926024808401939192918290030181600087803b1580156127e957600080fd5b505af11580156127fd573d6000803e3d6000fd5b505050506040513d604081101561281357600080fd5b5060209081015160025460408051808201825260138152600080516020612fdc833981519152818601908152915160e160020a63349f642f02815260048101958652815160248201528151606060020a86049850604060020a90950463ffffffff169650600160a060020a039093169463693ec85e94919390928392604490920191808383600083811015612578578181015183820152602001612560565b60025460408051808201825260108152600080516020612ffc8339815191526020808301918252925160e160020a63349f642f0281526004810193845282516024820152825160009586958695600160a060020a039092169463693ec85e94929391928392604490910191908083838b5b8381101561293b578181015183820152602001612923565b50505050905090810190601f1680156129685780820380516001836020036101000a031916815260200191505b5092505050602060405180830381600087803b15801561298757600080fd5b505af115801561299b573d6000803e3d6000fd5b505050506040513d60208110156129b157600080fd5b5051604080517f22c53b3c000000000000000000000000000000000000000000000000000000008152600481018790529051600160a060020a03909216916322c53b3c916024808201926060929091908290030181600087803b158015612a1757600080fd5b505af1158015612a2b573d6000803e3d6000fd5b505050506040513d6060811015612a4157600080fd5b50805160209182015160025460408051808201825260138152600080516020612fdc833981519152818701908152915160e160020a63349f642f02815260048101968752815160248201528151959950606060020a85049850604060020a90940463ffffffff169650600160a060020a039092169463693ec85e949293909283926044909201919080838360008381101561202357818101518382015260200161200b565b60025460408051808201825260108152600080516020612ffc8339815191526020808301918252925160e160020a63349f642f028152600481019384528251602482015282516000958695606095600160a060020a039092169463693ec85e94929391928392604490910191908083838c5b83811015612b70578181015183820152602001612b58565b50505050905090810190601f168015612b9d5780820380516001836020036101000a031916815260200191505b5092505050602060405180830381600087803b158015612bbc57600080fd5b505af1158015612bd0573d6000803e3d6000fd5b505050506040513d6020811015612be657600080fd5b5051604080517f6fc6974a000000000000000000000000000000000000000000000000000000008152600481018b9052602481018c9052604060020a640100000000808c0263ffffffff808d169190911783026044850152908a02908916170260648201529051919450600160a060020a03851691636fc6974a9160848082019260009290919082900301818387803b158015612c8257600080fd5b505af1158015612c96573d6000803e3d6000fd5b5050505082600160a060020a031663c0f962ae896040518263ffffffff1660e060020a02815260040180828152602001915050600060405180830381600087803b158015612ce357600080fd5b505af1158015612cf7573d6000803e3d6000fd5b505050506040513d6000823e601f3d908101601f1916820160405260a0811015612d2057600080fd5b8151602083015160408401516060850180519395929491939183019291640100000000811115612d4f57600080fd5b82016020810184811115612d6257600080fd5b8151856020820283011164010000000082111715612d7f57600080fd5b50509291906020018051640100000000811115612d9b57600080fd5b82016020810184811115612dae57600080fd5b8151856020820283011164010000000082111715612dcb57600080fd5b505060408051600280825260608201909252989a5096505050505050508160200160208202803883390190505090506005816000815181101515612e0b57fe5b60209081029091010152805160149082906001908110612e2757fe5b6020908102909101810191909152600254604080518082018252600f8152600080516020612fbc833981519152818501908152915160e160020a63349f642f02815260048101948552815160248201528151600160a060020a039094169463693ec85e94929390928392604401919080838360005b83811015612eb4578181015183820152602001612e9c565b50505050905090810190601f168015612ee15780820380516001836020036101000a031916815260200191505b5092505050602060405180830381600087803b158015612f0057600080fd5b505af1158015612f14573d6000803e3d6000fd5b505050506040513d6020811015612f2a57600080fd5b50516040517fdb118f2f000000000000000000000000000000000000000000000000000000008152600481018a8152602482018c905260448201859052608060648301908152845160848401528451600160a060020a039094169363db118f2f938d938f938993899360a4019060208581019102808383600083811015611a63578181015183820152602001611a4b5600636173682d6f75742d6f7261636c650000000000000000000000000000000000636173682d6f75742d636f6e74726f6c6c657200000000000000000000000000636173682d6f75742d73746f7261676500000000000000000000000000000000a165627a7a7230582027e2aef99d1d79acb8c629549027f36f7d1b018037d4b3bd5e4e7b60161485d90029",
  "source": "pragma solidity 0.4.24;\n\nimport \"../platform/Named.sol\";\nimport \"../platform/Mortal.sol\";\nimport \"./api/ACashOutManager.sol\";\nimport \"../platform/Component.sol\";\nimport \"../oracles/api/ACashOutOracle.sol\";\nimport \"../storages/api/ACashOutStorage.sol\";\nimport \"../controllers/api/ACashOutController.sol\";\n\ncontract CashOutManager is ACashOutManager, Named(\"cash-out-manager\"), Mortal, Component {\n\n    string constant CONTROLLER = \"cash-out-controller\";\n    string constant STORAGE = \"cash-out-storage\";\n    string constant ORACLE = \"cash-out-oracle\";\n\n    constructor(address _config) Component(_config) public {}\n\n    function openCashOutChannel(\n        address _application,\n        string _kioskId,\n        uint256 _toWithdraw,\n        uint256[] _fees,\n        address[] _parties,\n        function(string memory) external _fail,\n        function(string memory, uint256) external _success\n    )\n        public\n    {\n        //TODO:implementation: verify msg.sender is CashOutController\n        ACashOutStorage cashOutStorage = ACashOutStorage(context.get(STORAGE));\n        uint256 cashOutId = cashOutStorage.createCashOut(_application);\n        cashOutStorage.createOpen(cashOutId, _kioskId, _fail, _success);\n        cashOutStorage.createAccount(cashOutId, _toWithdraw, 100, 5000, _fees, _parties);\n        ACashOutOracle(context.get(ORACLE)).onNextOpenCashOut(cashOutId);\n    }\n\n    function confirmOpen(\n        uint256 _commandId\n    )\n        public\n    {\n        (string memory kioskId,,function(string memory, uint256) external success) = ACashOutStorage(context.get(STORAGE))\n            .retrieveOpen(_commandId);\n        ACashOutController(context.get(CONTROLLER)).respondOpened(kioskId, _commandId, success);\n    }\n    \n    function confirmFailOpen(\n        uint256 _commandId\n    )\n        public\n    {\n        (string memory kioskId,function(string memory) external fail,) = ACashOutStorage(context.get(STORAGE))\n            .retrieveOpen(_commandId);\n        ACashOutController(context.get(CONTROLLER)).respondFailOpen(kioskId, fail);\n    }\n\n    function validateCashOutChannel(\n        address _application,\n        uint256 _sessionId,\n        uint256 _cashOutId,\n        function(uint256, uint256) external _fail,\n        function(uint256, uint256) external _success\n    )\n        public\n    {\n        //TODO:implementation: verify msg.sender is CashOutController\n        //TODO:implementation: verify _application the owner of CashOut\n        ACashOutStorage cashOutStorage = ACashOutStorage(context.get(STORAGE));\n        cashOutStorage.createValidate(_cashOutId, _sessionId, _fail, _success);\n        (uint256 toWithdraw,,,,) = cashOutStorage.retrieveAccount(_cashOutId);\n        uint256[] memory bills = new uint256[](2);\n        bills[0] = 5;\n        bills[1] = 20;\n        ACashOutOracle(context.get(ORACLE)).onNextValidateCashOut(_cashOutId, _sessionId, toWithdraw, bills);\n    }\n\n    function confirmValidate(\n        uint256 _commandId\n    )\n        public\n    {\n        (uint256 sessionId,,function(uint256, uint256) external success) = ACashOutStorage(context.get(STORAGE)).retrieveValidate(_commandId);\n        ACashOutController(context.get(CONTROLLER)).respondValidated(sessionId, _commandId, success);\n    }\n\n    function confirmFailValidate(\n        uint256 _commandId\n    )\n        public\n    {\n        (uint256 sessionId,function(uint256, uint256) external fail,) = ACashOutStorage(context.get(STORAGE)).retrieveValidate(_commandId);\n        ACashOutController(context.get(CONTROLLER)).respondValidated(sessionId, _commandId, fail);\n    }\n\n    function closeCashOutChannel(\n        address _application,\n        uint256 _sessionId,\n        uint256 _cashOutId,\n        function(uint256, uint256) external _fail,\n        function(uint256, uint256) external _success\n    )\n        public\n    {\n        //TODO:implementation: verify msg.sender is CashOutController\n        //TODO:implementation: verify _application the owner of CashOut\n        ACashOutStorage cashOutStorage = ACashOutStorage(context.get(STORAGE));\n        cashOutStorage.createClose(_cashOutId, _sessionId, _fail, _success);\n        (uint256 toWithdraw,,,,) = cashOutStorage.retrieveAccount(_cashOutId);\n        uint256[] memory bills = new uint256[](2);\n        bills[0] = 5;\n        bills[1] = 20;\n        ACashOutOracle(context.get(ORACLE)).onNextCloseCashOut(_cashOutId, _sessionId, toWithdraw, bills);\n    }\n\n    function confirmClose(\n        uint256 _commandId\n    )\n        public\n    {\n        (uint256 sessionId,,function(uint256, uint256) external success) = ACashOutStorage(context.get(STORAGE)).retrieveClose(_commandId);\n        ACashOutController(context.get(CONTROLLER)).respondClosed(sessionId, _commandId, success);\n    }\n\n    function confirmFailClose(\n        uint256 _commandId\n    )\n        public\n    {\n        (uint256 sessionId,function(uint256, uint256) external fail,) = ACashOutStorage(context.get(STORAGE)).retrieveClose(_commandId);\n        ACashOutController(context.get(CONTROLLER)).respondClosed(sessionId, _commandId, fail);\n    }\n\n    function rollbackCashOutChannel(\n        address _application,\n        uint256 _cashOutId,\n        function(uint256) external _fail,\n        function(uint256) external _success\n    )\n        public\n    {\n        //TODO:implementation: verify msg.sender is CashOutController\n        //TODO:implementation: verify _application the owner of CashOut\n        ACashOutStorage(context.get(STORAGE)).createRollback(_cashOutId, _fail, _success);\n        ACashOutOracle(context.get(ORACLE)).onNextRollbackCashOut(_cashOutId);\n    }\n    \n    function confirmRollback(\n        uint256 _commandId\n    )\n        public\n    {\n        (,function(uint256) external success) = ACashOutStorage(context.get(STORAGE)).retrieveRollback(_commandId);\n        ACashOutController(context.get(CONTROLLER)).respondRolledBack(_commandId, success);\n    }\n\n    function confirmFailRollback(\n        uint256 _commandId\n    )\n        public\n    {\n        (function(uint256) external fail,) = ACashOutStorage(context.get(STORAGE)).retrieveRollback(_commandId);\n        ACashOutController(context.get(CONTROLLER)).respondRolledBack(_commandId, fail);\n    }\n\n}",
  "sourcePath": "/home/andrew/Desktop/solidity-experiments/callback-cash-in/contracts/managers/CashOutManager.sol",
  "compiler": {
    "name": "solc",
    "version": "0.4.24+commit.e67f0147.Emscripten.clang"
  },
  "schemaVersion": "2.0.1",
  "updatedAt": "2018-11-16T14:01:28.325Z"
}