{
  "contractName": "CashInController",
  "abi": [
    {
      "constant": true,
      "inputs": [],
      "name": "name",
      "outputs": [
        {
          "name": "",
          "type": "string"
        }
      ],
      "payable": false,
      "stateMutability": "view",
      "type": "function"
    },
    {
      "constant": false,
      "inputs": [],
      "name": "kill",
      "outputs": [],
      "payable": false,
      "stateMutability": "nonpayable",
      "type": "function"
    },
    {
      "constant": true,
      "inputs": [],
      "name": "owner",
      "outputs": [
        {
          "name": "",
          "type": "address"
        }
      ],
      "payable": false,
      "stateMutability": "view",
      "type": "function"
    },
    {
      "inputs": [
        {
          "name": "_config",
          "type": "address"
        }
      ],
      "payable": false,
      "stateMutability": "nonpayable",
      "type": "constructor"
    },
    {
      "constant": false,
      "inputs": [
        {
          "name": "_sessionId",
          "type": "uint256"
        },
        {
          "name": "_maxBalance",
          "type": "uint256"
        },
        {
          "name": "_success",
          "type": "function"
        },
        {
          "name": "_update",
          "type": "function"
        },
        {
          "name": "_fail",
          "type": "function"
        }
      ],
      "name": "openCashInChannel",
      "outputs": [],
      "payable": false,
      "stateMutability": "nonpayable",
      "type": "function"
    },
    {
      "constant": false,
      "inputs": [
        {
          "name": "_sessionId",
          "type": "uint256"
        },
        {
          "name": "_cashInId",
          "type": "uint256"
        },
        {
          "name": "_callback",
          "type": "function"
        }
      ],
      "name": "respondOpened",
      "outputs": [],
      "payable": false,
      "stateMutability": "nonpayable",
      "type": "function"
    },
    {
      "constant": false,
      "inputs": [
        {
          "name": "_sessionId",
          "type": "uint256"
        },
        {
          "name": "_callback",
          "type": "function"
        }
      ],
      "name": "respondFailOpen",
      "outputs": [],
      "payable": false,
      "stateMutability": "nonpayable",
      "type": "function"
    },
    {
      "constant": false,
      "inputs": [
        {
          "name": "_sessionId",
          "type": "uint256"
        },
        {
          "name": "_cashInId",
          "type": "uint256"
        },
        {
          "name": "_amount",
          "type": "uint256"
        },
        {
          "name": "_callback",
          "type": "function"
        }
      ],
      "name": "respondUpdate",
      "outputs": [],
      "payable": false,
      "stateMutability": "nonpayable",
      "type": "function"
    },
    {
      "constant": false,
      "inputs": [
        {
          "name": "_sessionId",
          "type": "uint256"
        },
        {
          "name": "_channelId",
          "type": "uint256"
        },
        {
          "name": "_fees",
          "type": "uint256[]"
        },
        {
          "name": "_parties",
          "type": "address[]"
        },
        {
          "name": "_success",
          "type": "function"
        },
        {
          "name": "_fail",
          "type": "function"
        }
      ],
      "name": "closeCashInChannel",
      "outputs": [],
      "payable": false,
      "stateMutability": "nonpayable",
      "type": "function"
    },
    {
      "constant": false,
      "inputs": [
        {
          "name": "_sessionId",
          "type": "uint256"
        },
        {
          "name": "_cashInId",
          "type": "uint256"
        },
        {
          "name": "_callback",
          "type": "function"
        }
      ],
      "name": "respondClosed",
      "outputs": [],
      "payable": false,
      "stateMutability": "nonpayable",
      "type": "function"
    },
    {
      "constant": false,
      "inputs": [
        {
          "name": "_sessionId",
          "type": "uint256"
        },
        {
          "name": "_cashInId",
          "type": "uint256"
        },
        {
          "name": "_callback",
          "type": "function"
        }
      ],
      "name": "respondFailClose",
      "outputs": [],
      "payable": false,
      "stateMutability": "nonpayable",
      "type": "function"
    },
    {
      "constant": true,
      "inputs": [
        {
          "name": "_channelId",
          "type": "uint256"
        }
      ],
      "name": "balanceOf",
      "outputs": [
        {
          "name": "",
          "type": "uint256"
        }
      ],
      "payable": false,
      "stateMutability": "view",
      "type": "function"
    }
  ],
  "bytecode": "0x60806040523480156200001157600080fd5b5060405160208062000ee8833981016040818152915182820190925260128082527f636173682d696e2d636f6e74726f6c6c657200000000000000000000000000006020830190815260008054600160a060020a031916331790558392916200007d91600191620002b8565b505080600160a060020a031663713b563f6040518163ffffffff167c0100000000000000000000000000000000000000000000000000000000028152600401602060405180830381600087803b158015620000d757600080fd5b505af1158015620000ec573d6000803e3d6000fd5b505050506040513d60208110156200010357600080fd5b505160038054600160a060020a031916600160a060020a03928316179055604080517fd0496d6a00000000000000000000000000000000000000000000000000000000815290519183169163d0496d6a916004808201926020929091908290030181600087803b1580156200017757600080fd5b505af11580156200018c573d6000803e3d6000fd5b505050506040513d6020811015620001a357600080fd5b505160028054600160a060020a031916600160a060020a03928316178082556040517ff2c298be00000000000000000000000000000000000000000000000000000000815260206004820190815260018054610100818316150260001901169490940460248301819052929094169363f2c298be93929091829160449091019084908015620002765780601f106200024a5761010080835404028352916020019162000276565b820191906000526020600020905b8154815290600101906020018083116200025857829003601f168201915b505092505050600060405180830381600087803b1580156200029757600080fd5b505af1158015620002ac573d6000803e3d6000fd5b5050505050506200035d565b828054600181600116156101000203166002900490600052602060002090601f016020900481019282601f10620002fb57805160ff19168380011785556200032b565b828001600101855582156200032b579182015b828111156200032b5782518255916020019190600101906200030e565b50620003399291506200033d565b5090565b6200035a91905b8082111562000339576000815560010162000344565b90565b610b7b806200036d6000396000f3006080604052600436106100945763ffffffff60e060020a6000350416620f1a96811461009957806306fdde03146100da578063192aed20146101645780632c903d11146101a6578063352c414c146101eb57806341c0e1b514610253578063455b5fc0146101645780638a933400146101645780638da5cb5b146102685780639cc7f70814610299578063e5be8eec146102c3575b600080fd5b3480156100a557600080fd5b506100d86004356c010000000000000000000000006024359081049068010000000000000000900463ffffffff16610322565b005b3480156100e657600080fd5b506100ef61037b565b6040805160208082528351818301528351919283929083019185019080838360005b83811015610129578181015183820152602001610111565b50505050905090810190601f1680156101565780820380516001836020036101000a031916815260200191505b509250505060405180910390f35b34801561017057600080fd5b506100d86004356024356c010000000000000000000000006044359081049068010000000000000000900463ffffffff16610408565b3480156101b257600080fd5b506100d86004356024356044356c010000000000000000000000006064359081049068010000000000000000900463ffffffff1661046a565b3480156101f757600080fd5b506100d8600480359060248035916044358083019290820135916064359182019101356c010000000000000000000000006084358181049163ffffffff680100000000000000009283900481169260a4359283049204166104d5565b34801561025f57600080fd5b506100d8610717565b34801561027457600080fd5b5061027d610794565b60408051600160a060020a039092168252519081900360200190f35b3480156102a557600080fd5b506102b16004356107a3565b60408051918252519081900360200190f35b3480156102cf57600080fd5b506100d86004356024356c010000000000000000000000006044358181049163ffffffff68010000000000000000928390048116926064358381049390829004831692608435918204929091041661095f565b8181846040518263ffffffff1660e060020a02815260040180828152602001915050600060405180830381600087803b15801561035e57600080fd5b505af1158015610372573d6000803e3d6000fd5b50505050505050565b60018054604080516020600284861615610100026000190190941693909304601f810184900484028201840190925281815292918301828280156104005780601f106103d557610100808354040283529160200191610400565b820191906000526020600020905b8154815290600101906020018083116103e357829003601f168201915b505050505081565b818185856040518363ffffffff1660e060020a0281526004018083815260200182815260200192505050600060405180830381600087803b15801561044c57600080fd5b505af1158015610460573d6000803e3d6000fd5b5050505050505050565b81818686866040518463ffffffff1660e060020a028152600401808481526020018381526020018281526020019350505050600060405180830381600087803b1580156104b657600080fd5b505af11580156104ca573d6000803e3d6000fd5b505050505050505050565b600254604080518082018252601581527f636173682d6368616e6e656c732d6d616e616765720000000000000000000000602080830191825292517f693ec85e00000000000000000000000000000000000000000000000000000000815260048101938452825160248201528251600160a060020a039095169463693ec85e949283926044019180838360005b8381101561057a578181015183820152602001610562565b50505050905090810190601f1680156105a75780820380516001836020036101000a031916815260200191505b5092505050602060405180830381600087803b1580156105c657600080fd5b505af11580156105da573d6000803e3d6000fd5b505050506040513d60208110156105f057600080fd5b50516040517f9b4908d60000000000000000000000000000000000000000000000000000000081523360048201818152602483018e9052604483018d905268010000000000000000640100000000808a0263ffffffff808b1691909117830260a4870152908802908716170260c484015260e06064840190815260e484018c9052600160a060020a0390941693639b4908d6938f928f928f928f928f928f928f928f928f928f9291906084810190610104018b60208c02808284379091018481038352898152602090810191508a908a028082843782019150509d5050505050505050505050505050600060405180830381600087803b1580156106f357600080fd5b505af1158015610707573d6000803e3d6000fd5b5050505050505050505050505050565b600054600160a060020a0316321461079057604080517f08c379a000000000000000000000000000000000000000000000000000000000815260206004820152601260248201527f6f6e6c79206f776e657220616c6c6f7765640000000000000000000000000000604482015290519081900360640190fd5b6000ff5b600054600160a060020a031681565b600254604080518082018252601581527f636173682d6368616e6e656c732d6d616e616765720000000000000000000000602080830191825292517f693ec85e00000000000000000000000000000000000000000000000000000000815260048101938452825160248201528251600095600160a060020a03169463693ec85e949390928392604490910191908083838b5b8381101561084d578181015183820152602001610835565b50505050905090810190601f16801561087a5780820380516001836020036101000a031916815260200191505b5092505050602060405180830381600087803b15801561089957600080fd5b505af11580156108ad573d6000803e3d6000fd5b505050506040513d60208110156108c357600080fd5b5051604080517efdd58e000000000000000000000000000000000000000000000000000000008152336004820152602481018590529051600160a060020a039092169162fdd58e916044808201926020929091908290030181600087803b15801561092d57600080fd5b505af1158015610941573d6000803e3d6000fd5b505050506040513d602081101561095757600080fd5b505192915050565b600254604080518082018252601581527f636173682d6368616e6e656c732d6d616e616765720000000000000000000000602080830191825292517f693ec85e00000000000000000000000000000000000000000000000000000000815260048101938452825160248201528251600160a060020a039095169463693ec85e949283926044019180838360005b83811015610a045781810151838201526020016109ec565b50505050905090810190601f168015610a315780820380516001836020036101000a031916815260200191505b5092505050602060405180830381600087803b158015610a5057600080fd5b505af1158015610a64573d6000803e3d6000fd5b505050506040513d6020811015610a7a57600080fd5b5051604080517fb05405e4000000000000000000000000000000000000000000000000000000008152336004820152602481018b9052604481018a90526801000000000000000064010000000080870263ffffffff8088169190911783026064850152818c02818c161783026084850152908902908816170260a48201529051600160a060020a039092169163b05405e49160c48082019260009290919082900301818387803b158015610b2d57600080fd5b505af1158015610b41573d6000803e3d6000fd5b5050505050505050505050505600a165627a7a7230582014898553df8de7ed90c4eebc771ba4f87a13ad321b6216d3967fd2dce65f5e660029",
  "source": "pragma solidity 0.4.24;\n\nimport \"../platform/Named.sol\";\nimport \"../platform/Mortal.sol\";\nimport \"../platform/Component.sol\";\nimport \"./api/ACashInController.sol\";\nimport \"../managers/api/ACashInManager.sol\";\n\ncontract CashInController is ACashInController, Named(\"cash-in-controller\"), Mortal, Component {\n\n    string constant MANAGER = \"cash-channels-manager\";\n\n    constructor(address _config) Component(_config) public {}\n\n    function(uint256[] memory) external actual;\n\n    function openCashInChannel(\n        uint256 _sessionId,\n        uint256 _maxBalance,\n        function(uint256, uint256) external _success,\n        function(uint256, uint256, uint256) external _update,\n        function(uint256) external _fail\n    )\n        external\n    {\n        ACashInManager(context.get(MANAGER)).openCashInChannel(msg.sender, _sessionId, _maxBalance, _fail, _success, _update);\n    }\n\n    function respondOpened(uint256 _sessionId, uint256 _cashInId, function(uint256, uint256) external _callback) public {\n        _callback(_sessionId, _cashInId);\n    }\n\n    function respondFailOpen(uint256 _sessionId, function(uint256) external _callback) public {\n        _callback(_sessionId);\n    }\n\n    function respondUpdate(\n        uint256 _sessionId,\n        uint256 _cashInId,\n        uint256 _amount,\n        function(uint256, uint256, uint256) external _callback\n    )\n        public\n    {\n        _callback(_sessionId, _cashInId, _amount);\n    }\n\n    function closeCashInChannel(\n        uint256 _sessionId,\n        uint256 _channelId,\n        uint256[] _fees,\n        address[] _parties,\n        function(uint256, uint256) external _success,\n        function(uint256, uint256) external _fail\n    )\n        external\n    {\n        ACashInManager(context.get(MANAGER)).closeCashInChannel(msg.sender, _sessionId, _channelId, _fees, _parties, _success, _fail);\n    }\n\n    function respondClosed(uint256 _sessionId, uint256 _cashInId, function(uint256, uint256) external _callback) public {\n        _callback(_sessionId, _cashInId);\n    }\n\n    function respondFailClose(uint256 _sessionId, uint256 _cashInId, function(uint256, uint256) external _callback) public {\n        _callback(_sessionId, _cashInId);\n    }\n\n    function balanceOf(uint256 _channelId) public view returns (uint256) {\n        return ACashInManager(context.get(MANAGER)).balanceOf(msg.sender, _channelId);\n    }\n\n}\n",
  "sourcePath": "/home/andrew/Desktop/solidity-experiments/callback-cash-in/contracts/controllers/CashInController.sol",
  "compiler": {
    "name": "solc",
    "version": "0.4.24+commit.e67f0147.Emscripten.clang"
  },
  "schemaVersion": "2.0.1",
  "updatedAt": "2018-11-20T08:19:52.592Z"
}