{
  "contractName": "CashOutStorage",
  "abi": [
    {
      "constant": true,
      "inputs": [],
      "name": "name",
      "outputs": [
        {
          "name": "",
          "type": "string"
        }
      ],
      "payable": false,
      "stateMutability": "view",
      "type": "function"
    },
    {
      "constant": false,
      "inputs": [],
      "name": "kill",
      "outputs": [],
      "payable": false,
      "stateMutability": "nonpayable",
      "type": "function"
    },
    {
      "constant": true,
      "inputs": [],
      "name": "owner",
      "outputs": [
        {
          "name": "",
          "type": "address"
        }
      ],
      "payable": false,
      "stateMutability": "view",
      "type": "function"
    },
    {
      "inputs": [
        {
          "name": "_config",
          "type": "address"
        }
      ],
      "payable": false,
      "stateMutability": "nonpayable",
      "type": "constructor"
    },
    {
      "constant": false,
      "inputs": [
        {
          "name": "_application",
          "type": "address"
        }
      ],
      "name": "createCashOut",
      "outputs": [
        {
          "name": "_cashOutId",
          "type": "uint256"
        }
      ],
      "payable": false,
      "stateMutability": "nonpayable",
      "type": "function"
    },
    {
      "constant": false,
      "inputs": [
        {
          "name": "_cashOutId",
          "type": "uint256"
        },
        {
          "name": "_kioskId",
          "type": "string"
        },
        {
          "name": "_fail",
          "type": "function"
        },
        {
          "name": "_success",
          "type": "function"
        }
      ],
      "name": "createOpen",
      "outputs": [],
      "payable": false,
      "stateMutability": "nonpayable",
      "type": "function"
    },
    {
      "constant": false,
      "inputs": [
        {
          "name": "_cashOutId",
          "type": "uint256"
        },
        {
          "name": "_toWithdraw",
          "type": "uint256"
        },
        {
          "name": "_VLFee",
          "type": "uint256"
        },
        {
          "name": "_reserve",
          "type": "uint256"
        },
        {
          "name": "_fees",
          "type": "uint256[]"
        },
        {
          "name": "_parties",
          "type": "address[]"
        }
      ],
      "name": "createAccount",
      "outputs": [],
      "payable": false,
      "stateMutability": "nonpayable",
      "type": "function"
    },
    {
      "constant": false,
      "inputs": [
        {
          "name": "_cashOutId",
          "type": "uint256"
        },
        {
          "name": "_sessionId",
          "type": "uint256"
        },
        {
          "name": "_fail",
          "type": "function"
        },
        {
          "name": "_success",
          "type": "function"
        }
      ],
      "name": "createValidate",
      "outputs": [],
      "payable": false,
      "stateMutability": "nonpayable",
      "type": "function"
    },
    {
      "constant": false,
      "inputs": [
        {
          "name": "_cashOutId",
          "type": "uint256"
        },
        {
          "name": "_sessionId",
          "type": "uint256"
        },
        {
          "name": "_fail",
          "type": "function"
        },
        {
          "name": "_success",
          "type": "function"
        }
      ],
      "name": "createClose",
      "outputs": [],
      "payable": false,
      "stateMutability": "nonpayable",
      "type": "function"
    },
    {
      "constant": false,
      "inputs": [
        {
          "name": "_cashOutId",
          "type": "uint256"
        },
        {
          "name": "_fail",
          "type": "function"
        },
        {
          "name": "_success",
          "type": "function"
        }
      ],
      "name": "createRollback",
      "outputs": [],
      "payable": false,
      "stateMutability": "nonpayable",
      "type": "function"
    },
    {
      "constant": true,
      "inputs": [
        {
          "name": "_cashOutId",
          "type": "uint256"
        }
      ],
      "name": "retrieveCashOut",
      "outputs": [
        {
          "name": "_application",
          "type": "address"
        },
        {
          "name": "_status",
          "type": "uint8"
        }
      ],
      "payable": false,
      "stateMutability": "view",
      "type": "function"
    }
  ],
  "bytecode": "0x60806040523480156200001157600080fd5b5060405160208062000f42833981016040818152915182820190925260108082527f636173682d6f75742d73746f72616765000000000000000000000000000000006020830190815260008054600160a060020a031916331790558392916200007d91600191620002b8565b505080600160a060020a031663713b563f6040518163ffffffff167c0100000000000000000000000000000000000000000000000000000000028152600401602060405180830381600087803b158015620000d757600080fd5b505af1158015620000ec573d6000803e3d6000fd5b505050506040513d60208110156200010357600080fd5b505160038054600160a060020a031916600160a060020a03928316179055604080517fd0496d6a00000000000000000000000000000000000000000000000000000000815290519183169163d0496d6a916004808201926020929091908290030181600087803b1580156200017757600080fd5b505af11580156200018c573d6000803e3d6000fd5b505050506040513d6020811015620001a357600080fd5b505160028054600160a060020a031916600160a060020a03928316178082556040517ff2c298be00000000000000000000000000000000000000000000000000000000815260206004820190815260018054610100818316150260001901169490940460248301819052929094169363f2c298be93929091829160449091019084908015620002765780601f106200024a5761010080835404028352916020019162000276565b820191906000526020600020905b8154815290600101906020018083116200025857829003601f168201915b505092505050600060405180830381600087803b1580156200029757600080fd5b505af1158015620002ac573d6000803e3d6000fd5b5050505050506200035d565b828054600181600116156101000203166002900490600052602060002090601f016020900481019282601f10620002fb57805160ff19168380011785556200032b565b828001600101855582156200032b579182015b828111156200032b5782518255916020019190600101906200030e565b50620003399291506200033d565b5090565b6200035a91905b8082111562000339576000815560010162000344565b90565b610bd5806200036d6000396000f3006080604052600436106100a35763ffffffff7c010000000000000000000000000000000000000000000000000000000060003504166306fdde0381146100a857806311ac7c7c1461013257806336b70c611461018357806341c0e1b5146101b65780634918b33d146101cb5780636fc6974a146102175780638073ed07146102665780638da5cb5b146103065780639f7cf09514610337578063f5310f9d14610383575b600080fd5b3480156100b457600080fd5b506100bd610416565b6040805160208082528351818301528351919283929083019185019080838360005b838110156100f75781810151838201526020016100df565b50505050905090810190601f1680156101245780820380516001836020036101000a031916815260200191505b509250505060405180910390f35b34801561013e57600080fd5b506101816004356024356c010000000000000000000000006044358181049163ffffffff68010000000000000000928390048116926064359283049204166104a3565b005b34801561018f57600080fd5b506101a4600160a060020a036004351661056d565b60408051918252519081900360200190f35b3480156101c257600080fd5b5061018161062f565b3480156101d757600080fd5b506101e36004356106ac565b604051600160a060020a03831681526020810182600881111561020257fe5b60ff1681526020019250505060405180910390f35b34801561022357600080fd5b506101816004356024356c010000000000000000000000006044358181049163ffffffff6801000000000000000092839004811692606435928304920416610708565b34801561027257600080fd5b50604080516020600460843581810135838102808601850190965280855261018195833595602480359660443596606435963696919560a495949091019282919085019084908082843750506040805187358901803560208181028481018201909552818452989b9a9989019892975090820195509350839250850190849080828437509497506107d29650505050505050565b34801561031257600080fd5b5061031b610857565b60408051600160a060020a039092168252519081900360200190f35b34801561034357600080fd5b506101816004356c010000000000000000000000006024358181049163ffffffff6801000000000000000092839004811692604435928304920416610866565b34801561038f57600080fd5b5060408051602060046024803582810135601f8101859004850286018501909652858552610181958335953695604494919390910191908190840183828082843750949750506c010000000000000000000000008535818104975063ffffffff6801000000000000000091829004811697602001359283049650910416925061091a915050565b60018054604080516020600284861615610100026000190190941693909304601f8101849004840282018401909252818152929183018282801561049b5780601f106104705761010080835404028352916020019161049b565b820191906000526020600020905b81548152906001019060200180831161047e57829003601f168201915b505050505081565b604080516060810182529586526801000000000000000064010000000095860263ffffffff95861617810260208089019182529487029386169390931781028783019081526000988952600890945296209451855551600185018054600160a060020a036c0100000000000000000000000080850482168802948a900487169490941777ffffffffffffffffffffffffffffffffffffffffffffffff1992831617909255925160029096018054928704909116909402959094049091169390931791909216179055565b600060016004604080519081016040528085600160a060020a031681526020016000600881111561059a57fe5b9052815460018101808455600093845260209384902083519201805473ffffffffffffffffffffffffffffffffffffffff1916600160a060020a0390931692909217808355938301519093829074ff000000000000000000000000000000000000000019167401000000000000000000000000000000000000000083600881111561062157fe5b021790555050500392915050565b600054600160a060020a031632146106a857604080517f08c379a000000000000000000000000000000000000000000000000000000000815260206004820152601260248201527f6f6e6c79206f776e657220616c6c6f7765640000000000000000000000000000604482015290519081900360640190fd5b6000ff5b6000806004838154811015156106be57fe5b60009182526020909120015460048054600160a060020a03909216935090849081106106e657fe5b9060005260206000200160000160149054906101000a900460ff169050915091565b604080516060810182529586526801000000000000000064010000000095860263ffffffff95861617810260208089019182529487029386169390931781028783019081526000988952600790945296209451855551600185018054600160a060020a036c0100000000000000000000000080850482168802948a900487169490941777ffffffffffffffffffffffffffffffffffffffffffffffff1992831617909255925160029096018054928704909116909402959094049091169390931791909216179055565b6040805160a0810182528681526020808201878152828401878152606084018781526080850187905260008c815260068552959095208451815591516001830155516002820155925180519293926108309260038501920190610a35565b506080820151805161084c916004840191602090910190610a80565b505050505050505050565b600054600160a060020a031681565b6040805180820182526801000000000000000064010000000096870263ffffffff96871617810282529386029285169290921783026020808401918252600097885260099052952090518154600160a060020a036c01000000000000000000000000808404821688029386900487169390931777ffffffffffffffffffffffffffffffffffffffffffffffff1992831617845596516001909301805492840490971690950292909104909216179116179055565b606060405190810160405280868152602001858563ffffffff1690640100000000021768010000000000000000028152602001838363ffffffff16906401000000000217680100000000000000000281525060056000888152602001908152602001600020600082015181600001908051906020019061099b929190610aee565b506020820151600182018054640100000000600160a060020a036c010000000000000000000000008086048216830263ffffffff680100000000000000009788900481169190911777ffffffffffffffffffffffffffffffffffffffffffffffff19958616179095556040909701516002909601805497870490911690910293909404909116919091179216919091179055505050505050565b828054828255906000526020600020908101928215610a70579160200282015b82811115610a70578251825591602001919060010190610a55565b50610a7c929150610b5b565b5090565b828054828255906000526020600020908101928215610ae2579160200282015b82811115610ae2578251825473ffffffffffffffffffffffffffffffffffffffff1916600160a060020a03909116178255602090920191600190910190610aa0565b50610a7c929150610b78565b828054600181600116156101000203166002900490600052602060002090601f016020900481019282601f10610b2f57805160ff1916838001178555610a70565b82800160010185558215610a705791820182811115610a70578251825591602001919060010190610a55565b610b7591905b80821115610a7c5760008155600101610b61565b90565b610b7591905b80821115610a7c57805473ffffffffffffffffffffffffffffffffffffffff19168155600101610b7e5600a165627a7a72305820976adb5a7727600bd7c2d575c90f4805e6417a4407ed20d61e9d3fc85178b4540029",
  "source": "pragma solidity 0.4.24;\n\nimport \"../platform/Named.sol\";\nimport \"../platform/Component.sol\";\nimport \"../platform/Mortal.sol\";\nimport \"./api/ACashOutStorage.sol\";\n\ncontract CashOutStorage is ACashOutStorage, Named(\"cash-out-storage\"), Mortal, Component {\n\n    using CashOutLib for *;\n\n    CashOutLib.CashOut[] private channels;\n    mapping(uint256 => CashOutLib.Open) private channelOpen;\n    mapping(uint256 => CashOutLib.Account) private channelAccount;\n    mapping(uint256 => CashOutLib.Validate) private channelValidate;\n    mapping(uint256 => CashOutLib.Close) private channelClose;\n    mapping(uint256 => CashOutLib.Rollback) private channelRollback;\n\n    constructor(address _config) Component(_config) public {}\n\n    function createCashOut(\n        address _application\n    )\n        public \n        returns (\n            uint256 _cashOutId\n        )\n    {\n        _cashOutId = channels.push(CashOutLib.CashOut(_application, CashOutLib.Status.CREATING)) - 1;\n    }\n\n    function createOpen(\n        uint256 _cashOutId,\n        string _kioskId,\n        function(string memory) external _fail,\n        function(string memory, uint256) external _success\n    )\n        public\n    {\n        channelOpen[_cashOutId] = CashOutLib.Open(_kioskId, _fail, _success);\n    }\n\n    function createAccount(\n        uint256 _cashOutId,\n        uint256 _toWithdraw,\n        uint256 _VLFee,\n        uint256 _reserve,\n        uint256[] _fees,\n        address[] _parties\n    )\n        public\n    {\n        channelAccount[_cashOutId] = CashOutLib.Account(_toWithdraw, _VLFee, _reserve, _fees, _parties);\n    }\n\n    function createValidate(\n        uint256 _cashOutId,\n        uint256 _sessionId,\n        function(uint256, uint256) external _fail,\n        function(uint256, uint256) external _success\n    )\n        public\n    {\n        channelValidate[_cashOutId] = CashOutLib.Validate(_sessionId, _fail, _success);\n    }\n\n    function createClose(\n        uint256 _cashOutId,\n        uint256 _sessionId,\n        function(uint256, uint256) external _fail,\n        function(uint256, uint256) external _success\n    )\n        public\n    {\n        channelClose[_cashOutId] = CashOutLib.Close(_sessionId, _fail, _success);\n    }\n\n    function createRollback(\n        uint256 _cashOutId,\n        function(uint256) external _fail,\n        function(uint256) external _success\n    )\n        public\n    {\n        channelRollback[_cashOutId] = CashOutLib.Rollback(_fail, _success);\n    }\n\n    function retrieveCashOut(\n        uint256 _cashOutId\n    )\n        public \n        view\n        returns (\n            address _application,\n            CashOutLib.Status _status\n        )\n    {\n        _application = channels[_cashOutId].application;\n        _status = channels[_cashOutId].status;\n    }\n\n}",
  "sourcePath": "/home/andrew/Desktop/solidity-experiments/callback-cash-in/contracts/storages/CashOutStorage.sol",
  "compiler": {
    "name": "solc",
    "version": "0.4.24+commit.e67f0147.Emscripten.clang"
  },
  "schemaVersion": "2.0.1",
  "updatedAt": "2018-11-15T15:09:12.963Z"
}