{
  "contractName": "CashOutStorage",
  "abi": [
    {
      "constant": true,
      "inputs": [],
      "name": "name",
      "outputs": [
        {
          "name": "",
          "type": "string"
        }
      ],
      "payable": false,
      "stateMutability": "view",
      "type": "function"
    },
    {
      "constant": false,
      "inputs": [],
      "name": "kill",
      "outputs": [],
      "payable": false,
      "stateMutability": "nonpayable",
      "type": "function"
    },
    {
      "constant": true,
      "inputs": [],
      "name": "owner",
      "outputs": [
        {
          "name": "",
          "type": "address"
        }
      ],
      "payable": false,
      "stateMutability": "view",
      "type": "function"
    },
    {
      "inputs": [
        {
          "name": "_config",
          "type": "address"
        }
      ],
      "payable": false,
      "stateMutability": "nonpayable",
      "type": "constructor"
    },
    {
      "constant": false,
      "inputs": [
        {
          "name": "_application",
          "type": "address"
        }
      ],
      "name": "createCashOut",
      "outputs": [
        {
          "name": "_cashOutId",
          "type": "uint256"
        }
      ],
      "payable": false,
      "stateMutability": "nonpayable",
      "type": "function"
    },
    {
      "constant": false,
      "inputs": [
        {
          "name": "_cashOutId",
          "type": "uint256"
        },
        {
          "name": "_kioskId",
          "type": "string"
        },
        {
          "name": "_fail",
          "type": "function"
        },
        {
          "name": "_success",
          "type": "function"
        }
      ],
      "name": "createOpen",
      "outputs": [],
      "payable": false,
      "stateMutability": "nonpayable",
      "type": "function"
    },
    {
      "constant": false,
      "inputs": [
        {
          "name": "_cashOutId",
          "type": "uint256"
        },
        {
          "name": "_toWithdraw",
          "type": "uint256"
        },
        {
          "name": "_VLFee",
          "type": "uint256"
        },
        {
          "name": "_reserve",
          "type": "uint256"
        },
        {
          "name": "_fees",
          "type": "uint256[]"
        },
        {
          "name": "_parties",
          "type": "address[]"
        }
      ],
      "name": "createAccount",
      "outputs": [],
      "payable": false,
      "stateMutability": "nonpayable",
      "type": "function"
    },
    {
      "constant": false,
      "inputs": [
        {
          "name": "_cashOutId",
          "type": "uint256"
        },
        {
          "name": "_sessionId",
          "type": "uint256"
        },
        {
          "name": "_fail",
          "type": "function"
        },
        {
          "name": "_success",
          "type": "function"
        }
      ],
      "name": "createValidate",
      "outputs": [],
      "payable": false,
      "stateMutability": "nonpayable",
      "type": "function"
    },
    {
      "constant": false,
      "inputs": [
        {
          "name": "_cashOutId",
          "type": "uint256"
        },
        {
          "name": "_sessionId",
          "type": "uint256"
        },
        {
          "name": "_fail",
          "type": "function"
        },
        {
          "name": "_success",
          "type": "function"
        }
      ],
      "name": "createClose",
      "outputs": [],
      "payable": false,
      "stateMutability": "nonpayable",
      "type": "function"
    },
    {
      "constant": false,
      "inputs": [
        {
          "name": "_cashOutId",
          "type": "uint256"
        },
        {
          "name": "_fail",
          "type": "function"
        },
        {
          "name": "_success",
          "type": "function"
        }
      ],
      "name": "createRollback",
      "outputs": [],
      "payable": false,
      "stateMutability": "nonpayable",
      "type": "function"
    },
    {
      "constant": true,
      "inputs": [
        {
          "name": "_cashOutId",
          "type": "uint256"
        }
      ],
      "name": "retrieveCashOut",
      "outputs": [
        {
          "name": "_application",
          "type": "address"
        },
        {
          "name": "_status",
          "type": "uint8"
        }
      ],
      "payable": false,
      "stateMutability": "view",
      "type": "function"
    },
    {
      "constant": true,
      "inputs": [
        {
          "name": "_cashOutId",
          "type": "uint256"
        }
      ],
      "name": "retrieveAccount",
      "outputs": [
        {
          "name": "_toWithdraw",
          "type": "uint256"
        },
        {
          "name": "_VLFee",
          "type": "uint256"
        },
        {
          "name": "_reserve",
          "type": "uint256"
        },
        {
          "name": "_fees",
          "type": "uint256[]"
        },
        {
          "name": "_parties",
          "type": "address[]"
        }
      ],
      "payable": false,
      "stateMutability": "view",
      "type": "function"
    },
    {
      "constant": true,
      "inputs": [
        {
          "name": "_cashOutId",
          "type": "uint256"
        }
      ],
      "name": "retrieveOpen",
      "outputs": [
        {
          "name": "_kioskId",
          "type": "string"
        },
        {
          "name": "_fail",
          "type": "function"
        },
        {
          "name": "_success",
          "type": "function"
        }
      ],
      "payable": false,
      "stateMutability": "view",
      "type": "function"
    },
    {
      "constant": true,
      "inputs": [
        {
          "name": "_cashOutId",
          "type": "uint256"
        }
      ],
      "name": "retrieveValidate",
      "outputs": [
        {
          "name": "_sessionId",
          "type": "uint256"
        },
        {
          "name": "_fail",
          "type": "function"
        },
        {
          "name": "_success",
          "type": "function"
        }
      ],
      "payable": false,
      "stateMutability": "view",
      "type": "function"
    },
    {
      "constant": true,
      "inputs": [
        {
          "name": "_cashOutId",
          "type": "uint256"
        }
      ],
      "name": "retrieveClose",
      "outputs": [
        {
          "name": "_sessionId",
          "type": "uint256"
        },
        {
          "name": "_fail",
          "type": "function"
        },
        {
          "name": "_success",
          "type": "function"
        }
      ],
      "payable": false,
      "stateMutability": "view",
      "type": "function"
    },
    {
      "constant": true,
      "inputs": [
        {
          "name": "_cashOutId",
          "type": "uint256"
        }
      ],
      "name": "retrieveRollback",
      "outputs": [
        {
          "name": "_fail",
          "type": "function"
        },
        {
          "name": "_success",
          "type": "function"
        }
      ],
      "payable": false,
      "stateMutability": "view",
      "type": "function"
    }
  ],
  "bytecode": "0x60806040523480156200001157600080fd5b5060405160208062001485833981016040818152915182820190925260108082527f636173682d6f75742d73746f72616765000000000000000000000000000000006020830190815260008054600160a060020a031916331790558392916200007d91600191620002b8565b505080600160a060020a031663713b563f6040518163ffffffff167c0100000000000000000000000000000000000000000000000000000000028152600401602060405180830381600087803b158015620000d757600080fd5b505af1158015620000ec573d6000803e3d6000fd5b505050506040513d60208110156200010357600080fd5b505160038054600160a060020a031916600160a060020a03928316179055604080517fd0496d6a00000000000000000000000000000000000000000000000000000000815290519183169163d0496d6a916004808201926020929091908290030181600087803b1580156200017757600080fd5b505af11580156200018c573d6000803e3d6000fd5b505050506040513d6020811015620001a357600080fd5b505160028054600160a060020a031916600160a060020a03928316178082556040517ff2c298be00000000000000000000000000000000000000000000000000000000815260206004820190815260018054610100818316150260001901169490940460248301819052929094169363f2c298be93929091829160449091019084908015620002765780601f106200024a5761010080835404028352916020019162000276565b820191906000526020600020905b8154815290600101906020018083116200025857829003601f168201915b505092505050600060405180830381600087803b1580156200029757600080fd5b505af1158015620002ac573d6000803e3d6000fd5b5050505050506200035d565b828054600181600116156101000203166002900490600052602060002090601f016020900481019282601f10620002fb57805160ff19168380011785556200032b565b828001600101855582156200032b579182015b828111156200032b5782518255916020019190600101906200030e565b50620003399291506200033d565b5090565b6200035a91905b8082111562000339576000815560010162000344565b90565b611118806200036d6000396000f3006080604052600436106100da5763ffffffff7c010000000000000000000000000000000000000000000000000000000060003504166306fdde0381146100df57806309a9f7891461016957806311ac7c7c146101be57806322c53b3c1461020f57806336b70c611461026b57806341c0e1b51461029e5780634918b33d146102b35780636fc6974a146102ff5780638073ed071461034e5780638da5cb5b146103ee5780639f7cf0951461041f578063c0f962ae1461046b578063c9d88c2414610531578063f5310f9d14610607578063f9029bc31461069a575b600080fd5b3480156100eb57600080fd5b506100f46106b2565b6040805160208082528351818301528351919283929083019185019080838360005b8381101561012e578181015183820152602001610116565b50505050905090810190601f16801561015b5780820380516001836020036101000a031916815260200191505b509250505060405180910390f35b34801561017557600080fd5b5061018160043561073f565b604080516801000000000000000064010000000096870263ffffffff96871617810282529390950291909316170260208301528051918290030190f35b3480156101ca57600080fd5b5061020d6004356024356c010000000000000000000000006044358181049163ffffffff680100000000000000009283900481169260643592830492041661077d565b005b34801561021b57600080fd5b50610227600435610847565b604080519586526801000000000000000064010000000095860263ffffffff9586161781026020880152929094029216919091170282820152519081900360600190f35b34801561027757600080fd5b5061028c600160a060020a036004351661088d565b60408051918252519081900360200190f35b3480156102aa57600080fd5b5061020d61094f565b3480156102bf57600080fd5b506102cb6004356109cc565b604051600160a060020a0383168152602081018260088111156102ea57fe5b60ff1681526020019250505060405180910390f35b34801561030b57600080fd5b5061020d6004356024356c010000000000000000000000006044358181049163ffffffff6801000000000000000092839004811692606435928304920416610a28565b34801561035a57600080fd5b50604080516020600460843581810135838102808601850190965280855261020d95833595602480359660443596606435963696919560a495949091019282919085019084908082843750506040805187358901803560208181028481018201909552818452989b9a998901989297509082019550935083925085019084908082843750949750610af29650505050505050565b3480156103fa57600080fd5b50610403610b77565b60408051600160a060020a039092168252519081900360200190f35b34801561042b57600080fd5b5061020d6004356c010000000000000000000000006024358181049163ffffffff6801000000000000000092839004811692604435928304920416610b86565b34801561047757600080fd5b50610483600435610c3a565b604051808681526020018581526020018481526020018060200180602001838103835285818151815260200191508051906020019060200280838360005b838110156104d95781810151838201526020016104c1565b50505050905001838103825284818151815260200191508051906020019060200280838360005b83811015610518578181015183820152602001610500565b5050505090500197505050505050505060405180910390f35b34801561053d57600080fd5b50610549600435610d29565b6040518080602001868663ffffffff1690640100000000021768010000000000000000028152602001848463ffffffff1690640100000000021768010000000000000000028152602001828103825287818151815260200191508051906020019080838360005b838110156105c85781810151838201526020016105b0565b50505050905090810190601f1680156105f55780820380516001836020036101000a031916815260200191505b50965050505050505060405180910390f35b34801561061357600080fd5b5060408051602060046024803582810135601f810185900485028601850190965285855261020d958335953695604494919390910191908190840183828082843750949750506c010000000000000000000000008535818104975063ffffffff68010000000000000000918290048116976020013592830496509104169250610e17915050565b3480156106a657600080fd5b50610227600435610f32565b60018054604080516020600284861615610100026000190190941693909304601f810184900484028201840190925281815292918301828280156107375780601f1061070c57610100808354040283529160200191610737565b820191906000526020600020905b81548152906001019060200180831161071a57829003601f168201915b505050505081565b60009081526009602052604090208054600190910154600160a060020a0364010000000080840482169463ffffffff94851694918404909216921690565b604080516060810182529586526801000000000000000064010000000095860263ffffffff95861617810260208089019182529487029386169390931781028783019081526000988952600890945296209451855551600185018054600160a060020a036c0100000000000000000000000080850482168802948a900487169490941777ffffffffffffffffffffffffffffffffffffffffffffffff1992831617909255925160029096018054928704909116909402959094049091169390931791909216179055565b6000908152600760205260409020805460018201546002909201549092600160a060020a0364010000000080850482169463ffffffff9081169491820490921692911690565b600060016004604080519081016040528085600160a060020a03168152602001600060088111156108ba57fe5b9052815460018101808455600093845260209384902083519201805473ffffffffffffffffffffffffffffffffffffffff1916600160a060020a0390931692909217808355938301519093829074ff000000000000000000000000000000000000000019167401000000000000000000000000000000000000000083600881111561094157fe5b021790555050500392915050565b600054600160a060020a031632146109c857604080517f08c379a000000000000000000000000000000000000000000000000000000000815260206004820152601260248201527f6f6e6c79206f776e657220616c6c6f7765640000000000000000000000000000604482015290519081900360640190fd5b6000ff5b6000806004838154811015156109de57fe5b60009182526020909120015460048054600160a060020a0390921693509084908110610a0657fe5b9060005260206000200160000160149054906101000a900460ff169050915091565b604080516060810182529586526801000000000000000064010000000095860263ffffffff95861617810260208089019182529487029386169390931781028783019081526000988952600790945296209451855551600185018054600160a060020a036c0100000000000000000000000080850482168802948a900487169490941777ffffffffffffffffffffffffffffffffffffffffffffffff1992831617909255925160029096018054928704909116909402959094049091169390931791909216179055565b6040805160a0810182528681526020808201878152828401878152606084018781526080850187905260008c81526006855295909520845181559151600183015551600282015592518051929392610b509260038501920190610f78565b5060808201518051610b6c916004840191602090910190610fc3565b505050505050505050565b600054600160a060020a031681565b6040805180820182526801000000000000000064010000000096870263ffffffff96871617810282529386029285169290921783026020808401918252600097885260099052952090518154600160a060020a036c01000000000000000000000000808404821688029386900487169390931777ffffffffffffffffffffffffffffffffffffffffffffffff1992831617845596516001909301805492840490971690950292909104909216179116179055565b600081815260066020908152604091829020805460018201546002830154600390930180548651818702810187019097528087529295919460609384939291830182828015610ca857602002820191906000526020600020905b815481526020019060010190808311610c94575b5050505050915060066000878152602001908152602001600020600401805480602002602001604051908101604052809291908181526020018280548015610d1957602002820191906000526020600020905b8154600160a060020a03168152600190910190602001808311610cfb575b5050505050905091939590929450565b60008181526005602090815260408083208054825160026001831615610100026000190190921691909104601f81018590048502820185019093528281526060949384938493849392909190830182828015610dc65780601f10610d9b57610100808354040283529160200191610dc6565b820191906000526020600020905b815481529060010190602001808311610da957829003601f168201915b505050600098895250506005602052604090962060018101546002909101549697600160a060020a0364010000000080840482169963ffffffff948516995090810490911696509091169350915050565b606060405190810160405280868152602001858563ffffffff1690640100000000021768010000000000000000028152602001838363ffffffff169064010000000002176801000000000000000002815250600560008881526020019081526020016000206000820151816000019080519060200190610e98929190611031565b506020820151600182018054640100000000600160a060020a036c010000000000000000000000008086048216830263ffffffff680100000000000000009788900481169190911777ffffffffffffffffffffffffffffffffffffffffffffffff19958616179095556040909701516002909601805497870490911690910293909404909116919091179216919091179055505050505050565b6000908152600860205260409020805460018201546002909201549092600160a060020a0364010000000080850482169463ffffffff9081169491820490921692911690565b828054828255906000526020600020908101928215610fb3579160200282015b82811115610fb3578251825591602001919060010190610f98565b50610fbf92915061109e565b5090565b828054828255906000526020600020908101928215611025579160200282015b82811115611025578251825473ffffffffffffffffffffffffffffffffffffffff1916600160a060020a03909116178255602090920191600190910190610fe3565b50610fbf9291506110bb565b828054600181600116156101000203166002900490600052602060002090601f016020900481019282601f1061107257805160ff1916838001178555610fb3565b82800160010185558215610fb35791820182811115610fb3578251825591602001919060010190610f98565b6110b891905b80821115610fbf57600081556001016110a4565b90565b6110b891905b80821115610fbf57805473ffffffffffffffffffffffffffffffffffffffff191681556001016110c15600a165627a7a72305820488fe235ecac3595e1369ff2f279cbda2cfee1fe4ce67c5aaebfbdbe42d141110029",
  "source": "pragma solidity 0.4.24;\n\nimport \"../platform/Named.sol\";\nimport \"../platform/Component.sol\";\nimport \"../platform/Mortal.sol\";\nimport \"./api/ACashOutStorage.sol\";\n\ncontract CashOutStorage is ACashOutStorage, Named(\"cash-out-storage\"), Mortal, Component {\n\n    using CashOutLib for *;\n\n    CashOutLib.CashOut[] private channels;\n    mapping(uint256 => CashOutLib.Open) private channelOpen;\n    mapping(uint256 => CashOutLib.Account) private channelAccount;\n    mapping(uint256 => CashOutLib.Validate) private channelValidate;\n    mapping(uint256 => CashOutLib.Close) private channelClose;\n    mapping(uint256 => CashOutLib.Rollback) private channelRollback;\n\n    constructor(address _config) Component(_config) public {}\n\n    function createCashOut(\n        address _application\n    )\n        public \n        returns (\n            uint256 _cashOutId\n        )\n    {\n        _cashOutId = channels.push(CashOutLib.CashOut(_application, CashOutLib.Status.CREATING)) - 1;\n    }\n\n    function createOpen(\n        uint256 _cashOutId,\n        string _kioskId,\n        function(string memory) external _fail,\n        function(string memory, uint256) external _success\n    )\n        public\n    {\n        channelOpen[_cashOutId] = CashOutLib.Open(_kioskId, _fail, _success);\n    }\n\n    function createAccount(\n        uint256 _cashOutId,\n        uint256 _toWithdraw,\n        uint256 _VLFee,\n        uint256 _reserve,\n        uint256[] _fees,\n        address[] _parties\n    )\n        public\n    {\n        channelAccount[_cashOutId] = CashOutLib.Account(_toWithdraw, _VLFee, _reserve, _fees, _parties);\n    }\n\n    function createValidate(\n        uint256 _cashOutId,\n        uint256 _sessionId,\n        function(uint256, uint256) external _fail,\n        function(uint256, uint256) external _success\n    )\n        public\n    {\n        channelValidate[_cashOutId] = CashOutLib.Validate(_sessionId, _fail, _success);\n    }\n\n    function createClose(\n        uint256 _cashOutId,\n        uint256 _sessionId,\n        function(uint256, uint256) external _fail,\n        function(uint256, uint256) external _success\n    )\n        public\n    {\n        channelClose[_cashOutId] = CashOutLib.Close(_sessionId, _fail, _success);\n    }\n\n    function createRollback(\n        uint256 _cashOutId,\n        function(uint256) external _fail,\n        function(uint256) external _success\n    )\n        public\n    {\n        channelRollback[_cashOutId] = CashOutLib.Rollback(_fail, _success);\n    }\n\n    function retrieveCashOut(\n        uint256 _cashOutId\n    )\n        public \n        view\n        returns (\n            address _application,\n            CashOutLib.Status _status\n        )\n    {\n        _application = channels[_cashOutId].application;\n        _status = channels[_cashOutId].status;\n    }\n\n    function retrieveAccount(\n        uint256 _cashOutId\n    )\n        public\n        view\n        returns (\n            uint256 _toWithdraw,\n            uint256 _VLFee,\n            uint256 _reserve,\n            uint256[] _fees,\n            address[] _parties\n        )\n    {\n        _toWithdraw = channelAccount[_cashOutId].toWithdraw;\n        _VLFee = channelAccount[_cashOutId].VLFee;\n        _reserve = channelAccount[_cashOutId].reserve;\n        _fees = channelAccount[_cashOutId].fees;\n        _parties = channelAccount[_cashOutId].parties;\n    }\n\n    function retrieveOpen(\n        uint256 _cashOutId\n    )\n        public\n        view\n        returns (\n            string memory _kioskId,\n            function(string memory) external _fail,\n            function(string memory, uint256) external _success\n        )\n    {\n        _kioskId = channelOpen[_cashOutId].kioskId;\n        _fail = channelOpen[_cashOutId].fail;\n        _success = channelOpen[_cashOutId].success;\n    }\n\n    function retrieveValidate(\n        uint256 _cashOutId\n    )\n        public\n        view\n        returns (\n            uint256 _sessionId,\n            function(uint256, uint256) external _fail,\n            function(uint256, uint256) external _success\n        )\n    {\n        _sessionId = channelValidate[_cashOutId].sessionId;\n        _fail = channelValidate[_cashOutId].fail;\n        _success = channelValidate[_cashOutId].success;\n    }\n\n    function retrieveClose(\n        uint256 _cashOutId\n    )\n        public\n        view\n        returns (\n            uint256 _sessionId,\n            function(uint256, uint256) external _fail,\n            function(uint256, uint256) external _success\n        )\n    {\n        _sessionId = channelClose[_cashOutId].sessionId;\n        _fail = channelClose[_cashOutId].fail;\n        _success = channelClose[_cashOutId].success;\n    }\n\n    function retrieveRollback(\n        uint256 _cashOutId\n    )\n        public\n        view\n        returns (\n            function(uint256) external _fail,\n            function(uint256) external _success\n        )\n    {\n        _fail = channelRollback[_cashOutId].fail;\n        _success = channelRollback[_cashOutId].success;\n    }\n\n}",
  "sourcePath": "/home/andrew/Desktop/solidity-experiments/callback-cash-in/contracts/storages/CashOutStorage.sol",
  "compiler": {
    "name": "solc",
    "version": "0.4.24+commit.e67f0147.Emscripten.clang"
  },
  "schemaVersion": "2.0.1",
  "updatedAt": "2018-11-16T14:01:28.316Z"
}