{
  "contractName": "CashOutManager",
  "abi": [
    {
      "constant": true,
      "inputs": [],
      "name": "name",
      "outputs": [
        {
          "name": "",
          "type": "string"
        }
      ],
      "payable": false,
      "stateMutability": "view",
      "type": "function"
    },
    {
      "constant": false,
      "inputs": [],
      "name": "kill",
      "outputs": [],
      "payable": false,
      "stateMutability": "nonpayable",
      "type": "function"
    },
    {
      "constant": true,
      "inputs": [],
      "name": "owner",
      "outputs": [
        {
          "name": "",
          "type": "address"
        }
      ],
      "payable": false,
      "stateMutability": "view",
      "type": "function"
    },
    {
      "inputs": [
        {
          "name": "_config",
          "type": "address"
        }
      ],
      "payable": false,
      "stateMutability": "nonpayable",
      "type": "constructor"
    },
    {
      "constant": false,
      "inputs": [
        {
          "name": "_application",
          "type": "address"
        },
        {
          "name": "_kioskId",
          "type": "string"
        },
        {
          "name": "_toWithdraw",
          "type": "uint256"
        },
        {
          "name": "_fees",
          "type": "uint256[]"
        },
        {
          "name": "_parties",
          "type": "address[]"
        },
        {
          "name": "_fail",
          "type": "function"
        },
        {
          "name": "_success",
          "type": "function"
        }
      ],
      "name": "openCashOutChannel",
      "outputs": [],
      "payable": false,
      "stateMutability": "nonpayable",
      "type": "function"
    },
    {
      "constant": false,
      "inputs": [
        {
          "name": "_application",
          "type": "address"
        },
        {
          "name": "_sessionId",
          "type": "uint256"
        },
        {
          "name": "_cashOutId",
          "type": "uint256"
        },
        {
          "name": "_fail",
          "type": "function"
        },
        {
          "name": "_success",
          "type": "function"
        }
      ],
      "name": "validateCashOutChannel",
      "outputs": [],
      "payable": false,
      "stateMutability": "nonpayable",
      "type": "function"
    },
    {
      "constant": false,
      "inputs": [
        {
          "name": "_application",
          "type": "address"
        },
        {
          "name": "_sessionId",
          "type": "uint256"
        },
        {
          "name": "_cashOutId",
          "type": "uint256"
        },
        {
          "name": "_fail",
          "type": "function"
        },
        {
          "name": "_success",
          "type": "function"
        }
      ],
      "name": "closeCashOutChannel",
      "outputs": [],
      "payable": false,
      "stateMutability": "nonpayable",
      "type": "function"
    },
    {
      "constant": false,
      "inputs": [
        {
          "name": "_application",
          "type": "address"
        },
        {
          "name": "_cashOutId",
          "type": "uint256"
        },
        {
          "name": "_fail",
          "type": "function"
        },
        {
          "name": "_success",
          "type": "function"
        }
      ],
      "name": "rollbackCashOutChannel",
      "outputs": [],
      "payable": false,
      "stateMutability": "nonpayable",
      "type": "function"
    }
  ],
  "bytecode": "0x60806040523480156200001157600080fd5b50604051602080620010f1833981016040818152915182820190925260108082527f636173682d6f75742d6d616e61676572000000000000000000000000000000006020830190815260008054600160a060020a031916331790558392916200007d91600191620002b8565b505080600160a060020a031663713b563f6040518163ffffffff167c0100000000000000000000000000000000000000000000000000000000028152600401602060405180830381600087803b158015620000d757600080fd5b505af1158015620000ec573d6000803e3d6000fd5b505050506040513d60208110156200010357600080fd5b505160038054600160a060020a031916600160a060020a03928316179055604080517fd0496d6a00000000000000000000000000000000000000000000000000000000815290519183169163d0496d6a916004808201926020929091908290030181600087803b1580156200017757600080fd5b505af11580156200018c573d6000803e3d6000fd5b505050506040513d6020811015620001a357600080fd5b505160028054600160a060020a031916600160a060020a03928316178082556040517ff2c298be00000000000000000000000000000000000000000000000000000000815260206004820190815260018054610100818316150260001901169490940460248301819052929094169363f2c298be93929091829160449091019084908015620002765780601f106200024a5761010080835404028352916020019162000276565b820191906000526020600020905b8154815290600101906020018083116200025857829003601f168201915b505092505050600060405180830381600087803b1580156200029757600080fd5b505af1158015620002ac573d6000803e3d6000fd5b5050505050506200035d565b828054600181600116156101000203166002900490600052602060002090601f016020900481019282601f10620002fb57805160ff19168380011785556200032b565b828001600101855582156200032b579182015b828111156200032b5782518255916020019190600101906200030e565b50620003399291506200033d565b5090565b6200035a91905b8082111562000339576000815560010162000344565b90565b610d84806200036d6000396000f3006080604052600436106100695763ffffffff60e060020a60003504166306fdde03811461006e57806316d0acc9146100f857806341c0e1b51461020f5780634250e51b14610224578063843971581461027c5780638da5cb5b146102d7578063f4cea1ac14610308575b600080fd5b34801561007a57600080fd5b50610083610363565b6040805160208082528351818301528351919283929083019185019080838360005b838110156100bd5781810151838201526020016100a5565b50505050905090810190601f1680156100ea5780820380516001836020036101000a031916815260200191505b509250505060405180910390f35b34801561010457600080fd5b5060408051602060046024803582810135601f810185900485028601850190965285855261020d958335600160a060020a031695369560449491939091019190819084018382808284375050604080516020808901358a01803580830284810184018652818552999c8b359c909b909a950198509296508101945090925082919085019084908082843750506040805187358901803560208181028481018201909552818452989b9a998901989297509082019550935083925085019084908082843750949750506c010000000000000000000000008535818104975063ffffffff680100000000000000009182900481169760200135928304965091041692506103f0915050565b005b34801561021b57600080fd5b5061020d6107bc565b34801561023057600080fd5b5061020d600160a060020a03600435166024356c010000000000000000000000006044358181049163ffffffff6801000000000000000092839004811692606435928304920416610839565b34801561028857600080fd5b5061020d600160a060020a03600435166024356044356c010000000000000000000000006064358181049163ffffffff68010000000000000000928390048116926084359283049204166109e4565b3480156102e357600080fd5b506102ec610b97565b60408051600160a060020a039092168252519081900360200190f35b34801561031457600080fd5b5061020d600160a060020a03600435166024356044356c010000000000000000000000006064358181049163ffffffff6801000000000000000092839004811692608435928304920416610ba6565b60018054604080516020600284861615610100026000190190941693909304601f810184900484028201840190925281815292918301828280156103e85780601f106103bd576101008083540402835291602001916103e8565b820191906000526020600020905b8154815290600101906020018083116103cb57829003601f168201915b505050505081565b60025460408051808201825260108152600080516020610d398339815191526020808301918252925160e160020a63349f642f028152600481019384528251602482015282516000958695600160a060020a039091169463693ec85e9490939192839260440191908083838b5b8381101561047557818101518382015260200161045d565b50505050905090810190601f1680156104a25780820380516001836020036101000a031916815260200191505b5092505050602060405180830381600087803b1580156104c157600080fd5b505af11580156104d5573d6000803e3d6000fd5b505050506040513d60208110156104eb57600080fd5b5051604080517f36b70c61000000000000000000000000000000000000000000000000000000008152600160a060020a038e811660048301529151929450908416916336b70c61916024808201926020929091908290030181600087803b15801561055557600080fd5b505af1158015610569573d6000803e3d6000fd5b505050506040513d602081101561057f57600080fd5b8101908080519060200190929190505050905081600160a060020a031663f5310f9d828c898989896040518763ffffffff1660e060020a0281526004018087815260200180602001868663ffffffff1690640100000000021768010000000000000000028152602001848463ffffffff1690640100000000021768010000000000000000028152602001828103825287818151815260200191508051906020019080838360005b8381101561063e578181015183820152602001610626565b50505050905090810190601f16801561066b5780820380516001836020036101000a031916815260200191505b50975050505050505050600060405180830381600087803b15801561068f57600080fd5b505af11580156106a3573d6000803e3d6000fd5b5050505081600160a060020a0316638073ed07828b60646113888d8d6040518763ffffffff1660e060020a028152600401808781526020018681526020018581526020018481526020018060200180602001838103835285818151815260200191508051906020019060200280838360005b8381101561072d578181015183820152602001610715565b50505050905001838103825284818151815260200191508051906020019060200280838360005b8381101561076c578181015183820152602001610754565b5050505090500198505050505050505050600060405180830381600087803b15801561079757600080fd5b505af11580156107ab573d6000803e3d6000fd5b505050505050505050505050505050565b600054600160a060020a0316321461083557604080517f08c379a000000000000000000000000000000000000000000000000000000000815260206004820152601260248201527f6f6e6c79206f776e657220616c6c6f7765640000000000000000000000000000604482015290519081900360640190fd5b6000ff5b60025460408051808201825260108152600080516020610d398339815191526020808301918252925160e160020a63349f642f02815260048101938452825160248201528251600160a060020a039095169463693ec85e949283926044019180838360005b838110156108b657818101518382015260200161089e565b50505050905090810190601f1680156108e35780820380516001836020036101000a031916815260200191505b5092505050602060405180830381600087803b15801561090257600080fd5b505af1158015610916573d6000803e3d6000fd5b505050506040513d602081101561092c57600080fd5b5051604080517f9f7cf095000000000000000000000000000000000000000000000000000000008152600481018890526801000000000000000064010000000080890263ffffffff808a169190911783026024850152908702908616170260448201529051600160a060020a0390921691639f7cf0959160648082019260009290919082900301818387803b1580156109c457600080fd5b505af11580156109d8573d6000803e3d6000fd5b50505050505050505050565b60025460408051808201825260108152600080516020610d398339815191526020808301918252925160e160020a63349f642f02815260048101938452825160248201528251600160a060020a039095169463693ec85e949283926044019180838360005b83811015610a61578181015183820152602001610a49565b50505050905090810190601f168015610a8e5780820380516001836020036101000a031916815260200191505b5092505050602060405180830381600087803b158015610aad57600080fd5b505af1158015610ac1573d6000803e3d6000fd5b505050506040513d6020811015610ad757600080fd5b5051604080517f11ac7c7c00000000000000000000000000000000000000000000000000000000815260048101889052602481018990526801000000000000000064010000000080890263ffffffff808a169190911783026044850152908702908616170260648201529051600160a060020a03909216916311ac7c7c9160848082019260009290919082900301818387803b158015610b7657600080fd5b505af1158015610b8a573d6000803e3d6000fd5b5050505050505050505050565b600054600160a060020a031681565b60025460408051808201825260108152600080516020610d398339815191526020808301918252925160e160020a63349f642f02815260048101938452825160248201528251600160a060020a039095169463693ec85e949283926044019180838360005b83811015610c23578181015183820152602001610c0b565b50505050905090810190601f168015610c505780820380516001836020036101000a031916815260200191505b5092505050602060405180830381600087803b158015610c6f57600080fd5b505af1158015610c83573d6000803e3d6000fd5b505050506040513d6020811015610c9957600080fd5b5051604080517f6fc6974a00000000000000000000000000000000000000000000000000000000815260048101889052602481018990526801000000000000000064010000000080890263ffffffff808a169190911783026044850152908702908616170260648201529051600160a060020a0390921691636fc6974a9160848082019260009290919082900301818387803b158015610b7657600080fd00636173682d6f75742d73746f7261676500000000000000000000000000000000a165627a7a72305820e7a8614b5c95f3987dc1a174abd52278ee6fbfc460151f4a912e33bc5c36f4b20029",
  "source": "pragma solidity 0.4.24;\n\nimport \"../platform/Named.sol\";\nimport \"../platform/Mortal.sol\";\nimport \"./api/ACashOutManager.sol\";\nimport \"../platform/Component.sol\";\nimport \"../oracles/api/ACashOutOracle.sol\";\nimport \"../storages/api/ACashOutStorage.sol\";\nimport \"../controllers/api/ACashOutController.sol\";\n\ncontract CashOutManager is ACashOutManager, Named(\"cash-out-manager\"), Mortal, Component {\n\n    string constant CONTROLLER = \"cash-out-controller\";\n    string constant STORAGE = \"cash-out-storage\";\n    string constant ORACLE = \"cash-out-oracle\";\n\n    constructor(address _config) Component(_config) public {}\n\n    function openCashOutChannel(\n        address _application,\n        string _kioskId,\n        uint256 _toWithdraw,\n        uint256[] _fees,\n        address[] _parties,\n        function(string memory) external _fail,\n        function(string memory, uint256) external _success\n    )\n        public\n    {\n        //TODO:implementation: verify msg.sender is CashOutController\n        ACashOutStorage cashOutStorage = ACashOutStorage(context.get(STORAGE));\n        uint256 cashOutId = cashOutStorage.createCashOut(_application);\n        cashOutStorage.createOpen(cashOutId, _kioskId, _fail, _success);\n        cashOutStorage.createAccount(cashOutId, _toWithdraw, 100, 5000, _fees, _parties);\n        //TODO:implementation: add call to CashOutOracle::onNextOpenCashOut\n    }\n\n    function validateCashOutChannel(\n        address _application,\n        uint256 _sessionId,\n        uint256 _cashOutId,\n        function(uint256, uint256) external _fail,\n        function(uint256, uint256) external _success\n    )\n        public\n    {\n        //TODO:implementation: verify msg.sender is CashOutController\n        //TODO:implementation: verify _application the owner of CashOut\n        ACashOutStorage(context.get(STORAGE)).createValidate(_cashOutId, _sessionId, _fail, _success);\n        //TODO:implementation: add call to CashOutOracle::onNextValidateCashOut\n    }\n\n    function closeCashOutChannel(\n        address _application,\n        uint256 _sessionId,\n        uint256 _cashOutId,\n        function(uint256, uint256) external _fail,\n        function(uint256, uint256) external _success\n    )\n        public\n    {\n        //TODO:implementation: verify msg.sender is CashOutController\n        //TODO:implementation: verify _application the owner of CashOut\n        ACashOutStorage(context.get(STORAGE)).createClose(_cashOutId, _sessionId, _fail, _success);\n        //TODO:implementation: add call to CashOutOracle::onNextCloseCashOut\n    }\n\n    function rollbackCashOutChannel(\n        address _application,\n        uint256 _cashOutId,\n        function(uint256) external _fail,\n        function(uint256) external _success\n    )\n        public\n    {\n        //TODO:implementation: verify msg.sender is CashOutController\n        //TODO:implementation: verify _application the owner of CashOut\n        ACashOutStorage(context.get(STORAGE)).createRollback(_cashOutId, _fail, _success);\n    }\n\n}",
  "sourcePath": "/home/andrew/Desktop/solidity-experiments/callback-cash-in/contracts/managers/CashOutManager.sol",
  "compiler": {
    "name": "solc",
    "version": "0.4.24+commit.e67f0147.Emscripten.clang"
  },
  "schemaVersion": "2.0.1",
  "updatedAt": "2018-11-15T15:09:12.961Z"
}