{
  "contractName": "CashOutController",
  "abi": [
    {
      "constant": true,
      "inputs": [],
      "name": "name",
      "outputs": [
        {
          "name": "",
          "type": "string"
        }
      ],
      "payable": false,
      "stateMutability": "view",
      "type": "function"
    },
    {
      "constant": false,
      "inputs": [],
      "name": "kill",
      "outputs": [],
      "payable": false,
      "stateMutability": "nonpayable",
      "type": "function"
    },
    {
      "constant": true,
      "inputs": [],
      "name": "owner",
      "outputs": [
        {
          "name": "",
          "type": "address"
        }
      ],
      "payable": false,
      "stateMutability": "view",
      "type": "function"
    },
    {
      "inputs": [
        {
          "name": "_config",
          "type": "address"
        }
      ],
      "payable": false,
      "stateMutability": "nonpayable",
      "type": "constructor"
    },
    {
      "constant": false,
      "inputs": [
        {
          "name": "_kioskId",
          "type": "string"
        },
        {
          "name": "_toWithdraw",
          "type": "uint256"
        },
        {
          "name": "_fees",
          "type": "uint256[]"
        },
        {
          "name": "_parties",
          "type": "address[]"
        },
        {
          "name": "_fail",
          "type": "function"
        },
        {
          "name": "_success",
          "type": "function"
        }
      ],
      "name": "openCashOutChannel",
      "outputs": [],
      "payable": false,
      "stateMutability": "nonpayable",
      "type": "function"
    },
    {
      "constant": false,
      "inputs": [
        {
          "name": "_sessionId",
          "type": "uint256"
        },
        {
          "name": "_cashOutId",
          "type": "uint256"
        },
        {
          "name": "_fail",
          "type": "function"
        },
        {
          "name": "_success",
          "type": "function"
        }
      ],
      "name": "validateCashOutChannel",
      "outputs": [],
      "payable": false,
      "stateMutability": "nonpayable",
      "type": "function"
    },
    {
      "constant": false,
      "inputs": [
        {
          "name": "_sessionId",
          "type": "uint256"
        },
        {
          "name": "_cashOutId",
          "type": "uint256"
        },
        {
          "name": "_fail",
          "type": "function"
        },
        {
          "name": "_success",
          "type": "function"
        }
      ],
      "name": "closeCashOutChannel",
      "outputs": [],
      "payable": false,
      "stateMutability": "nonpayable",
      "type": "function"
    },
    {
      "constant": false,
      "inputs": [
        {
          "name": "_cashOutId",
          "type": "uint256"
        },
        {
          "name": "_fail",
          "type": "function"
        },
        {
          "name": "_success",
          "type": "function"
        }
      ],
      "name": "rollbackCashOutChannel",
      "outputs": [],
      "payable": false,
      "stateMutability": "nonpayable",
      "type": "function"
    },
    {
      "constant": false,
      "inputs": [
        {
          "name": "_kioskId",
          "type": "string"
        },
        {
          "name": "_cashOutId",
          "type": "uint256"
        },
        {
          "name": "_callback",
          "type": "function"
        }
      ],
      "name": "respondOpened",
      "outputs": [],
      "payable": false,
      "stateMutability": "nonpayable",
      "type": "function"
    },
    {
      "constant": false,
      "inputs": [
        {
          "name": "_kioskId",
          "type": "string"
        },
        {
          "name": "_callback",
          "type": "function"
        }
      ],
      "name": "respondFailOpen",
      "outputs": [],
      "payable": false,
      "stateMutability": "nonpayable",
      "type": "function"
    },
    {
      "constant": false,
      "inputs": [
        {
          "name": "_sessionId",
          "type": "uint256"
        },
        {
          "name": "_cashOutId",
          "type": "uint256"
        },
        {
          "name": "_callback",
          "type": "function"
        }
      ],
      "name": "respondValidated",
      "outputs": [],
      "payable": false,
      "stateMutability": "nonpayable",
      "type": "function"
    },
    {
      "constant": false,
      "inputs": [
        {
          "name": "_sessionId",
          "type": "uint256"
        },
        {
          "name": "_cashOutId",
          "type": "uint256"
        },
        {
          "name": "_callback",
          "type": "function"
        }
      ],
      "name": "respondClosed",
      "outputs": [],
      "payable": false,
      "stateMutability": "nonpayable",
      "type": "function"
    },
    {
      "constant": false,
      "inputs": [
        {
          "name": "_cashOutId",
          "type": "uint256"
        },
        {
          "name": "_callback",
          "type": "function"
        }
      ],
      "name": "respondRolledBack",
      "outputs": [],
      "payable": false,
      "stateMutability": "nonpayable",
      "type": "function"
    }
  ],
  "bytecode": "0x60806040523480156200001157600080fd5b5060405160208062001266833981016040818152915182820190925260138082527f636173682d6f75742d636f6e74726f6c6c6572000000000000000000000000006020830190815260008054600160a060020a031916331790558392916200007d91600191620002b8565b505080600160a060020a031663713b563f6040518163ffffffff167c0100000000000000000000000000000000000000000000000000000000028152600401602060405180830381600087803b158015620000d757600080fd5b505af1158015620000ec573d6000803e3d6000fd5b505050506040513d60208110156200010357600080fd5b505160038054600160a060020a031916600160a060020a03928316179055604080517fd0496d6a00000000000000000000000000000000000000000000000000000000815290519183169163d0496d6a916004808201926020929091908290030181600087803b1580156200017757600080fd5b505af11580156200018c573d6000803e3d6000fd5b505050506040513d6020811015620001a357600080fd5b505160028054600160a060020a031916600160a060020a03928316178082556040517ff2c298be00000000000000000000000000000000000000000000000000000000815260206004820190815260018054610100818316150260001901169490940460248301819052929094169363f2c298be93929091829160449091019084908015620002765780601f106200024a5761010080835404028352916020019162000276565b820191906000526020600020905b8154815290600101906020018083116200025857829003601f168201915b505092505050600060405180830381600087803b1580156200029757600080fd5b505af1158015620002ac573d6000803e3d6000fd5b5050505050506200035d565b828054600181600116156101000203166002900490600052602060002090601f016020900481019282601f10620002fb57805160ff19168380011785556200032b565b828001600101855582156200032b579182015b828111156200032b5782518255916020019190600101906200030e565b50620003399291506200033d565b5090565b6200035a91905b8082111562000339576000815560010162000344565b90565b610ef9806200036d6000396000f3006080604052600436106100a05763ffffffff60e060020a600035041663011c6d2081146100a557806306fdde03146100e657806317eea92214610170578063192aed20146101bf578063202c7db01461020157806330fc80dc146101bf57806341c0e1b5146102875780635caae8ff1461029c57806381943274146102eb5780638a2fa1d2146103375780638da5cb5b146103b7578063b8adcca7146103e8575b600080fd5b3480156100b157600080fd5b506100e46004356c010000000000000000000000006024359081049068010000000000000000900463ffffffff16610458565b005b3480156100f257600080fd5b506100fb6104b1565b6040805160208082528351818301528351919283929083019185019080838360005b8381101561013557818101518382015260200161011d565b50505050905090810190601f1680156101625780820380516001836020036101000a031916815260200191505b509250505060405180910390f35b34801561017c57600080fd5b506100e46004356024356c010000000000000000000000006044358181049163ffffffff680100000000000000009283900481169260643592830492041661053e565b3480156101cb57600080fd5b506100e46004356024356c010000000000000000000000006044359081049068010000000000000000900463ffffffff166106f6565b34801561020d57600080fd5b506040805160206004803580820135601f81018490048402850184019095528484526100e49436949293602493928401919081908401838280828437509497505084359550506c010000000000000000000000006020909401359384049368010000000000000000900463ffffffff169250610758915050565b34801561029357600080fd5b506100e46107fe565b3480156102a857600080fd5b506100e46004356024356c010000000000000000000000006044358181049163ffffffff680100000000000000009283900481169260643592830492041661087b565b3480156102f757600080fd5b506100e46004356c010000000000000000000000006024358181049163ffffffff6801000000000000000092839004811692604435928304920416610a13565b34801561034357600080fd5b506040805160206004803580820135601f81018490048402850184019095528484526100e4943694929360249392840191908190840183828082843750949750506c010000000000000000000000009435948504955050506801000000000000000090920463ffffffff169150610bc39050565b3480156103c357600080fd5b506103cc610c61565b60408051600160a060020a039092168252519081900360200190f35b3480156103f457600080fd5b506100e46024600480358281019290820135918135916044358082019290810135916064359081019101356c010000000000000000000000006084358181049163ffffffff680100000000000000009283900481169260a435928304920416610c70565b8181846040518263ffffffff1660e060020a02815260040180828152602001915050600060405180830381600087803b15801561049457600080fd5b505af11580156104a8573d6000803e3d6000fd5b50505050505050565b60018054604080516020600284861615610100026000190190941693909304601f810184900484028201840190925281815292918301828280156105365780601f1061050b57610100808354040283529160200191610536565b820191906000526020600020905b81548152906001019060200180831161051957829003601f168201915b505050505081565b60025460408051808201825260108152600080516020610eae8339815191526020808301918252925160e160020a63349f642f02815260048101938452825160248201528251600160a060020a039095169463693ec85e949283926044019180838360005b838110156105bb5781810151838201526020016105a3565b50505050905090810190601f1680156105e85780820380516001836020036101000a031916815260200191505b5092505050602060405180830381600087803b15801561060757600080fd5b505af115801561061b573d6000803e3d6000fd5b505050506040513d602081101561063157600080fd5b5051604080517f8439715800000000000000000000000000000000000000000000000000000000815233600482015260248101899052604481018890526801000000000000000064010000000080890263ffffffff808a169190911783026064850152908702908616170260848201529051600160a060020a039092169163843971589160a48082019260009290919082900301818387803b1580156106d657600080fd5b505af11580156106ea573d6000803e3d6000fd5b50505050505050505050565b818185856040518363ffffffff1660e060020a0281526004018083815260200182815260200192505050600060405180830381600087803b15801561073a57600080fd5b505af115801561074e573d6000803e3d6000fd5b5050505050505050565b818185856040518363ffffffff1660e060020a0281526004018080602001838152602001828103825284818151815260200191508051906020019080838360005b838110156107b1578181015183820152602001610799565b50505050905090810190601f1680156107de5780820380516001836020036101000a031916815260200191505b509350505050600060405180830381600087803b15801561073a57600080fd5b600054600160a060020a0316321461087757604080517f08c379a000000000000000000000000000000000000000000000000000000000815260206004820152601260248201527f6f6e6c79206f776e657220616c6c6f7765640000000000000000000000000000604482015290519081900360640190fd5b6000ff5b60025460408051808201825260108152600080516020610eae8339815191526020808301918252925160e160020a63349f642f02815260048101938452825160248201528251600160a060020a039095169463693ec85e949283926044019180838360005b838110156108f85781810151838201526020016108e0565b50505050905090810190601f1680156109255780820380516001836020036101000a031916815260200191505b5092505050602060405180830381600087803b15801561094457600080fd5b505af1158015610958573d6000803e3d6000fd5b505050506040513d602081101561096e57600080fd5b5051604080517ff4cea1ac00000000000000000000000000000000000000000000000000000000815233600482015260248101899052604481018890526801000000000000000064010000000080890263ffffffff808a169190911783026064850152908702908616170260848201529051600160a060020a039092169163f4cea1ac9160a48082019260009290919082900301818387803b1580156106d657600080fd5b60025460408051808201825260108152600080516020610eae8339815191526020808301918252925160e160020a63349f642f02815260048101938452825160248201528251600160a060020a039095169463693ec85e949283926044019180838360005b83811015610a90578181015183820152602001610a78565b50505050905090810190601f168015610abd5780820380516001836020036101000a031916815260200191505b5092505050602060405180830381600087803b158015610adc57600080fd5b505af1158015610af0573d6000803e3d6000fd5b505050506040513d6020811015610b0657600080fd5b5051604080517f4250e51b000000000000000000000000000000000000000000000000000000008152336004820152602481018890526801000000000000000064010000000080890263ffffffff808a169190911783026044850152908702908616170260648201529051600160a060020a0390921691634250e51b9160848082019260009290919082900301818387803b158015610ba457600080fd5b505af1158015610bb8573d6000803e3d6000fd5b505050505050505050565b8181846040518263ffffffff1660e060020a0281526004018080602001828103825283818151815260200191508051906020019080838360005b83811015610c15578181015183820152602001610bfd565b50505050905090810190601f168015610c425780820380516001836020036101000a031916815260200191505b5092505050600060405180830381600087803b15801561049457600080fd5b600054600160a060020a031681565b60025460408051808201825260108152600080516020610eae8339815191526020808301918252925160e160020a63349f642f02815260048101938452825160248201528251600160a060020a039095169463693ec85e949283926044019180838360005b83811015610ced578181015183820152602001610cd5565b50505050905090810190601f168015610d1a5780820380516001836020036101000a031916815260200191505b5092505050602060405180830381600087803b158015610d3957600080fd5b505af1158015610d4d573d6000803e3d6000fd5b505050506040513d6020811015610d6357600080fd5b8101908080519060200190929190505050600160a060020a03166316d0acc9338d8d8d8d8d8d8d8d8d8d8d6040518d63ffffffff1660e060020a028152600401808d600160a060020a0316600160a060020a03168152602001806020018b81526020018060200180602001888863ffffffff1690640100000000021768010000000000000000028152602001868663ffffffff169064010000000002176801000000000000000002815260200184810384528f8f8281815260200192508082843790910185810384528c8152602090810191508d908d028082843790910185810383528a8152602090810191508b908b028082843782019150509f50505050505050505050505050505050600060405180830381600087803b158015610e8857600080fd5b505af1158015610e9c573d6000803e3d6000fd5b5050505050505050505050505050505600636173682d6f75742d6d616e6167657200000000000000000000000000000000a165627a7a72305820f09aa46e086bf84c8bafcfa38c7d2f63b4da4d80a193430535b06d769bd12fcf0029",
  "source": "pragma solidity 0.4.24;\n\nimport \"../platform/Named.sol\";\nimport \"../platform/Mortal.sol\";\nimport \"../platform/Component.sol\";\nimport \"./api/ACashOutController.sol\";\nimport \"../managers/api/ACashOutManager.sol\";\n\ncontract CashOutController is ACashOutController, Named(\"cash-out-controller\"), Mortal, Component {\n\n    string constant MANAGER = \"cash-out-manager\";\n\n    constructor(address _config) Component(_config) public {}\n\n    // @formatter:off\n    function openCashOutChannel(\n        string _kioskId,\n        uint256 _toWithdraw,\n        uint256[] _fees,\n        address[] _parties,\n        function(string memory) external _fail,\n        function(string memory, uint256) external _success\n    )\n        external\n    // @formatter:on\n    {\n        //TODO:implementation: check that msg.sender is registered application, validate parameters\n        ACashOutManager(context.get(MANAGER)).openCashOutChannel(\n            msg.sender, \n            _kioskId, \n            _toWithdraw,\n            _fees,\n            _parties,\n            _fail,\n            _success\n        );\n    }\n\n    // @formatter:off\n    function validateCashOutChannel(\n        uint256 _sessionId,\n        uint256 _cashOutId,\n        function(uint256, uint256) external _fail,\n        function(uint256, uint256) external _success\n    )\n        external\n    // @formatter:on\n    {\n        //TODO:implementation: check that msg.sender is registered application, validate parameters\n        ACashOutManager(context.get(MANAGER)).validateCashOutChannel(\n            msg.sender,\n            _sessionId,\n            _cashOutId,\n            _fail,\n            _success\n        );\n    }\n\n    // @formatter:off\n    function closeCashOutChannel(\n        uint256 _sessionId,\n        uint256 _cashOutId,\n        function(uint256, uint256) external _fail,\n        function(uint256, uint256) external _success\n    )\n        external\n    // @formatter:on\n    {\n        //TODO:implementation: check that msg.sender is registered application, validate parameters\n        ACashOutManager(context.get(MANAGER)).closeCashOutChannel(\n            msg.sender,\n            _sessionId,\n            _cashOutId,\n            _fail,\n            _success\n        );\n    }\n\n    // @formatter:off\n    function rollbackCashOutChannel(\n        uint256 _cashOutId,\n        function(uint256) external _fail,\n        function(uint256) external _success\n    )\n        external\n    // @formatter:on\n    {\n        //TODO:implementation: check that msg.sender is registered application, validate parameters\n        ACashOutManager(context.get(MANAGER)).rollbackCashOutChannel(\n            msg.sender,\n            _cashOutId,\n            _fail,\n            _success\n        );\n    }\n\n    // @formatter:off\n    function respondOpened(\n        string _kioskId,\n        uint256 _cashOutId,\n        function(string memory, uint256) external _callback\n    )\n        public\n    // @formatter:on\n    {\n        _callback(_kioskId, _cashOutId);\n    }\n\n    // @formatter:off\n    function respondFailOpen(\n        string _kioskId,\n        function(string memory) external _callback\n    )\n        public\n    // @formatter:on\n    {\n        _callback(_kioskId);\n    }\n\n    // @formatter:off\n    function respondValidated(\n        uint256 _sessionId,\n        uint256 _cashOutId,\n        function(uint256, uint256) external _callback\n    )\n        public\n    // @formatter:on\n    {\n        _callback(_sessionId, _cashOutId);\n    }\n\n    // @formatter:off\n    function respondClosed(\n        uint256 _sessionId,\n        uint256 _cashOutId,\n        function(uint256, uint256) external _callback\n    )\n        public\n    // @formatter:on\n    {\n        _callback(_sessionId, _cashOutId);\n    }\n\n    // @formatter:off\n    function respondRolledBack(\n        uint256 _cashOutId,\n        function(uint256) external _callback\n    )\n        public\n    // @formatter:on\n    {\n        _callback(_cashOutId);\n    }\n\n}\n",
  "sourcePath": "/home/andrew/Desktop/solidity-experiments/callback-cash-in/contracts/controllers/CashOutController.sol",
  "compiler": {
    "name": "solc",
    "version": "0.4.24+commit.e67f0147.Emscripten.clang"
  },
  "schemaVersion": "2.0.1",
  "updatedAt": "2018-11-16T14:01:28.331Z"
}