{
  "contractName": "CashOutOralce",
  "abi": [
    {
      "constant": true,
      "inputs": [],
      "name": "name",
      "outputs": [
        {
          "name": "",
          "type": "string"
        }
      ],
      "payable": false,
      "stateMutability": "view",
      "type": "function"
    },
    {
      "constant": false,
      "inputs": [],
      "name": "kill",
      "outputs": [],
      "payable": false,
      "stateMutability": "nonpayable",
      "type": "function"
    },
    {
      "constant": true,
      "inputs": [],
      "name": "owner",
      "outputs": [
        {
          "name": "",
          "type": "address"
        }
      ],
      "payable": false,
      "stateMutability": "view",
      "type": "function"
    },
    {
      "inputs": [
        {
          "name": "_config",
          "type": "address"
        }
      ],
      "payable": false,
      "stateMutability": "nonpayable",
      "type": "constructor"
    },
    {
      "anonymous": false,
      "inputs": [
        {
          "indexed": false,
          "name": "_commandId",
          "type": "uint256"
        }
      ],
      "name": "OpenCashOut",
      "type": "event"
    },
    {
      "anonymous": false,
      "inputs": [
        {
          "indexed": false,
          "name": "_commandId",
          "type": "uint256"
        },
        {
          "indexed": false,
          "name": "_sessionId",
          "type": "uint256"
        },
        {
          "indexed": false,
          "name": "_toWithdraw",
          "type": "uint256"
        },
        {
          "indexed": false,
          "name": "_bills",
          "type": "uint256[]"
        }
      ],
      "name": "ValidateCashOut",
      "type": "event"
    },
    {
      "anonymous": false,
      "inputs": [
        {
          "indexed": false,
          "name": "_commandId",
          "type": "uint256"
        },
        {
          "indexed": false,
          "name": "_sessionId",
          "type": "uint256"
        },
        {
          "indexed": false,
          "name": "_toWithdraw",
          "type": "uint256"
        },
        {
          "indexed": false,
          "name": "_bills",
          "type": "uint256[]"
        }
      ],
      "name": "CloseCashOut",
      "type": "event"
    },
    {
      "anonymous": false,
      "inputs": [
        {
          "indexed": false,
          "name": "_commandId",
          "type": "uint256"
        }
      ],
      "name": "RollbackCashOut",
      "type": "event"
    },
    {
      "constant": false,
      "inputs": [
        {
          "name": "_commandId",
          "type": "uint256"
        }
      ],
      "name": "onNextOpenCashOut",
      "outputs": [],
      "payable": false,
      "stateMutability": "nonpayable",
      "type": "function"
    },
    {
      "constant": false,
      "inputs": [
        {
          "name": "_commandId",
          "type": "uint256"
        }
      ],
      "name": "successOpen",
      "outputs": [],
      "payable": false,
      "stateMutability": "nonpayable",
      "type": "function"
    },
    {
      "constant": false,
      "inputs": [
        {
          "name": "_commandId",
          "type": "uint256"
        }
      ],
      "name": "failOpen",
      "outputs": [],
      "payable": false,
      "stateMutability": "nonpayable",
      "type": "function"
    },
    {
      "constant": false,
      "inputs": [
        {
          "name": "_commandId",
          "type": "uint256"
        },
        {
          "name": "_sessionId",
          "type": "uint256"
        },
        {
          "name": "_toWithdraw",
          "type": "uint256"
        },
        {
          "name": "_bills",
          "type": "uint256[]"
        }
      ],
      "name": "onNextValidateCashOut",
      "outputs": [],
      "payable": false,
      "stateMutability": "nonpayable",
      "type": "function"
    },
    {
      "constant": false,
      "inputs": [
        {
          "name": "_commandId",
          "type": "uint256"
        }
      ],
      "name": "successValidate",
      "outputs": [],
      "payable": false,
      "stateMutability": "nonpayable",
      "type": "function"
    },
    {
      "constant": false,
      "inputs": [
        {
          "name": "_commandId",
          "type": "uint256"
        }
      ],
      "name": "failValidate",
      "outputs": [],
      "payable": false,
      "stateMutability": "nonpayable",
      "type": "function"
    },
    {
      "constant": false,
      "inputs": [
        {
          "name": "_commandId",
          "type": "uint256"
        },
        {
          "name": "_sessionId",
          "type": "uint256"
        },
        {
          "name": "_toWithdraw",
          "type": "uint256"
        },
        {
          "name": "_bills",
          "type": "uint256[]"
        }
      ],
      "name": "onNextCloseCashOut",
      "outputs": [],
      "payable": false,
      "stateMutability": "nonpayable",
      "type": "function"
    },
    {
      "constant": false,
      "inputs": [
        {
          "name": "_commandId",
          "type": "uint256"
        }
      ],
      "name": "successClose",
      "outputs": [],
      "payable": false,
      "stateMutability": "nonpayable",
      "type": "function"
    },
    {
      "constant": false,
      "inputs": [
        {
          "name": "_commandId",
          "type": "uint256"
        }
      ],
      "name": "failClose",
      "outputs": [],
      "payable": false,
      "stateMutability": "nonpayable",
      "type": "function"
    },
    {
      "constant": false,
      "inputs": [
        {
          "name": "_commandId",
          "type": "uint256"
        }
      ],
      "name": "onNextRollbackCashOut",
      "outputs": [],
      "payable": false,
      "stateMutability": "nonpayable",
      "type": "function"
    },
    {
      "constant": false,
      "inputs": [
        {
          "name": "_commandId",
          "type": "uint256"
        }
      ],
      "name": "successRollback",
      "outputs": [],
      "payable": false,
      "stateMutability": "nonpayable",
      "type": "function"
    },
    {
      "constant": false,
      "inputs": [
        {
          "name": "_commandId",
          "type": "uint256"
        }
      ],
      "name": "failRollback",
      "outputs": [],
      "payable": false,
      "stateMutability": "nonpayable",
      "type": "function"
    }
  ],
  "bytecode": "0x608060405234801561001057600080fd5b506040516020806108f68339810160408181529151828201909252600f8082527f636173682d6f75742d6f7261636c6500000000000000000000000000000000006020830190815260008054600160a060020a03191633179055839291610079916001916102a7565b505080600160a060020a031663713b563f6040518163ffffffff167c0100000000000000000000000000000000000000000000000000000000028152600401602060405180830381600087803b1580156100d257600080fd5b505af11580156100e6573d6000803e3d6000fd5b505050506040513d60208110156100fc57600080fd5b505160038054600160a060020a031916600160a060020a03928316179055604080517fd0496d6a00000000000000000000000000000000000000000000000000000000815290519183169163d0496d6a916004808201926020929091908290030181600087803b15801561016f57600080fd5b505af1158015610183573d6000803e3d6000fd5b505050506040513d602081101561019957600080fd5b505160028054600160a060020a031916600160a060020a03928316178082556040517ff2c298be00000000000000000000000000000000000000000000000000000000815260206004820190815260018054610100818316150260001901169490940460248301819052929094169363f2c298be939290918291604490910190849080156102685780601f1061023d57610100808354040283529160200191610268565b820191906000526020600020905b81548152906001019060200180831161024b57829003601f168201915b505092505050600060405180830381600087803b15801561028857600080fd5b505af115801561029c573d6000803e3d6000fd5b505050505050610342565b828054600181600116156101000203166002900490600052602060002090601f016020900481019282601f106102e857805160ff1916838001178555610315565b82800160010185558215610315579182015b828111156103155782518255916020019190600101906102fa565b50610321929150610325565b5090565b61033f91905b80821115610321576000815560010161032b565b90565b6105a5806103516000396000f3006080604052600436106100da5763ffffffff7c010000000000000000000000000000000000000000000000000000000060003504166306fdde0381146100df578063105ecd49146101695780631188ad251461018357806341c0e1b5146101e757806352bfd1ce146101fc5780635a2c5cd0146102145780635d51e5b5146101fc57806375da247a146101fc578063874e44b9146101fc5780638da5cb5b1461022c578063a0e36aba146101fc578063c2a92192146101fc578063cd0ce82a146101fc578063db118f2f1461026a578063ed573107146101fc575b600080fd5b3480156100eb57600080fd5b506100f46102ce565b6040805160208082528351818301528351919283929083019185019080838360005b8381101561012e578181015183820152602001610116565b50505050905090810190601f16801561015b5780820380516001836020036101000a031916815260200191505b509250505060405180910390f35b34801561017557600080fd5b5061018160043561035b565b005b34801561018f57600080fd5b5060408051606435600481810135602081810285810182019096528185526101819583359560248035966044359636969095608495929093019290918291850190849080828437509497506103919650505050505050565b3480156101f357600080fd5b50610181610424565b34801561020857600080fd5b506101816004356104ae565b34801561022057600080fd5b506101816004356104b1565b34801561023857600080fd5b506102416104e7565b6040805173ffffffffffffffffffffffffffffffffffffffff9092168252519081900360200190f35b34801561027657600080fd5b5060408051606435600481810135602081810285810182019096528185526101819583359560248035966044359636969095608495929093019290918291850190849080828437509497506105039650505050505050565b60018054604080516020600284861615610100026000190190941693909304601f810184900484028201840190925281815292918301828280156103535780601f1061032857610100808354040283529160200191610353565b820191906000526020600020905b81548152906001019060200180831161033657829003601f168201915b505050505081565b6040805182815290517f2967346fffed0ad64b0253ca5c77f4c36508615c35af3ca38a34302eeb36d1789181900360200190a150565b7ff0fb88fbd2e502da9cf0967d342066f74c1dc15370c2059a458ff31b1d3267e4848484846040518085815260200184815260200183815260200180602001828103825283818151815260200191508051906020019060200280838360005b838110156104085781810151838201526020016103f0565b505050509050019550505050505060405180910390a150505050565b60005473ffffffffffffffffffffffffffffffffffffffff1632146104aa57604080517f08c379a000000000000000000000000000000000000000000000000000000000815260206004820152601260248201527f6f6e6c79206f776e657220616c6c6f7765640000000000000000000000000000604482015290519081900360640190fd5b6000ff5b50565b6040805182815290517fc9d1053d14afbe69aa453e0292458589d5a5497bae1ab0d880f327d8fe12f6b09181900360200190a150565b60005473ffffffffffffffffffffffffffffffffffffffff1681565b7fa9834ca918477210355c5749bed6bba83abd538c47bdd0c0f3a32cd7c6930e9184848484604051808581526020018481526020018381526020018060200182810382528381815181526020019150805190602001906020028083836000838110156104085781810151838201526020016103f05600a165627a7a723058207734e57f1086a783b6839ddcb0dd55a6abe3ff495cbc25143f4f930a91d0401c0029",
  "source": "pragma solidity 0.4.24;\n\nimport \"../platform/Named.sol\";\nimport \"../platform/Mortal.sol\";\nimport \"../platform/Component.sol\";\nimport \"./api/ACashOutOracle.sol\";\n\ncontract CashOutOralce is ACashOutOracle, Named(\"cash-out-oracle\"), Mortal, Component {\n\n    constructor(address _config) Component(_config) public {}\n\n    function onNextOpenCashOut(uint256 _commandId) public {\n        emit OpenCashOut(_commandId);\n    }\n\n    function successOpen(uint256 _commandId) public {\n        //TODO:implementation: add call to CashOutManager::confirmOpen\n    }\n\n    function failOpen(uint256 _commandId) public {\n        //TODO:implementation: add call to CashOutManager::confirmFailOpen\n    }\n\n    function onNextValidateCashOut(uint256 _commandId, uint256 _sessionId, uint256 _toWithdraw, uint256[] _bills) public {\n        emit ValidateCashOut(_commandId, _sessionId, _toWithdraw, _bills);\n    }\n\n    function successValidate(uint256 _commandId) public {\n        //TODO:implementation: add call to CashOutManager::confirmValidate\n    }\n\n    function failValidate(uint256 _commandId) public {\n        //TODO:implementation: add call to CashOutManager::confirmFailValidate\n    }\n\n    function onNextCloseCashOut(uint256 _commandId, uint256 _sessionId, uint256 _toWithdraw, uint256[] _bills) public {\n        emit CloseCashOut(_commandId, _sessionId, _toWithdraw, _bills);\n    }\n\n    function successClose(uint256 _commandId) public {\n        //TODO:implementation: add call to CashOutManager::confirmClose\n    }\n\n    function failClose(uint256 _commandId) public {\n        //TODO:implementation: add call to CashOutManager::confirmFailClose\n    }\n\n    function onNextRollbackCashOut(uint256 _commandId) public {\n        emit RollbackCashOut(_commandId);\n    }\n\n    function successRollback(uint256 _commandId) public {\n        //TODO:implementation: add call to CashOutManager::confirmRollback\n    }\n\n    function failRollback(uint256 _commandId) public {\n        //TODO:implementation: add call to CashOutManager::confirmFailRollback\n    }\n\n}",
  "sourcePath": "/home/andrew/Desktop/solidity-experiments/callback-cash-in/contracts/oracles/CashOutOracle.sol",
  "compiler": {
    "name": "solc",
    "version": "0.4.24+commit.e67f0147.Emscripten.clang"
  },
  "schemaVersion": "2.0.1",
  "updatedAt": "2018-11-15T15:09:12.962Z"
}