{
  "contractName": "SessionOracle",
  "abi": [
    {
      "constant": true,
      "inputs": [],
      "name": "name",
      "outputs": [
        {
          "name": "",
          "type": "string"
        }
      ],
      "payable": false,
      "stateMutability": "view",
      "type": "function"
    },
    {
      "constant": false,
      "inputs": [],
      "name": "kill",
      "outputs": [],
      "payable": false,
      "stateMutability": "nonpayable",
      "type": "function"
    },
    {
      "constant": true,
      "inputs": [],
      "name": "owner",
      "outputs": [
        {
          "name": "",
          "type": "address"
        }
      ],
      "payable": false,
      "stateMutability": "view",
      "type": "function"
    },
    {
      "inputs": [
        {
          "name": "_config",
          "type": "address"
        }
      ],
      "payable": false,
      "stateMutability": "nonpayable",
      "type": "constructor"
    },
    {
      "anonymous": false,
      "inputs": [
        {
          "indexed": false,
          "name": "sessionId",
          "type": "uint256"
        }
      ],
      "name": "CloseSession",
      "type": "event"
    },
    {
      "constant": false,
      "inputs": [
        {
          "name": "sessionId",
          "type": "uint256"
        }
      ],
      "name": "onNextCloseSession",
      "outputs": [],
      "payable": false,
      "stateMutability": "nonpayable",
      "type": "function"
    },
    {
      "constant": false,
      "inputs": [
        {
          "name": "_sessionId",
          "type": "uint256"
        }
      ],
      "name": "successClose",
      "outputs": [],
      "payable": false,
      "stateMutability": "nonpayable",
      "type": "function"
    },
    {
      "constant": false,
      "inputs": [
        {
          "name": "_sessionId",
          "type": "uint256"
        }
      ],
      "name": "failClose",
      "outputs": [],
      "payable": false,
      "stateMutability": "nonpayable",
      "type": "function"
    }
  ],
  "bytecode": "0x608060405234801561001057600080fd5b506040516020806108418339810160408181529151828201909252600e8082527f73657373696f6e2d6f7261636c650000000000000000000000000000000000006020830190815260008054600160a060020a03191633179055839291610079916001916102a7565b505080600160a060020a031663713b563f6040518163ffffffff167c0100000000000000000000000000000000000000000000000000000000028152600401602060405180830381600087803b1580156100d257600080fd5b505af11580156100e6573d6000803e3d6000fd5b505050506040513d60208110156100fc57600080fd5b505160038054600160a060020a031916600160a060020a03928316179055604080517fd0496d6a00000000000000000000000000000000000000000000000000000000815290519183169163d0496d6a916004808201926020929091908290030181600087803b15801561016f57600080fd5b505af1158015610183573d6000803e3d6000fd5b505050506040513d602081101561019957600080fd5b505160028054600160a060020a031916600160a060020a03928316178082556040517ff2c298be00000000000000000000000000000000000000000000000000000000815260206004820190815260018054610100818316150260001901169490940460248301819052929094169363f2c298be939290918291604490910190849080156102685780601f1061023d57610100808354040283529160200191610268565b820191906000526020600020905b81548152906001019060200180831161024b57829003601f168201915b505092505050600060405180830381600087803b15801561028857600080fd5b505af115801561029c573d6000803e3d6000fd5b505050505050610342565b828054600181600116156101000203166002900490600052602060002090601f016020900481019282601f106102e857805160ff1916838001178555610315565b82800160010185558215610315579182015b828111156103155782518255916020019190600101906102fa565b50610321929150610325565b5090565b61033f91905b80821115610321576000815560010161032b565b90565b6104f0806103516000396000f3006080604052600436106100775763ffffffff7c010000000000000000000000000000000000000000000000000000000060003504166306fdde03811461007c57806341c0e1b51461010657806352bfd1ce1461011d5780638da5cb5b1461013557806398f4721714610173578063a0e36aba1461018b575b600080fd5b34801561008857600080fd5b506100916101a3565b6040805160208082528351818301528351919283929083019185019080838360005b838110156100cb5781810151838201526020016100b3565b50505050905090810190601f1680156100f85780820380516001836020036101000a031916815260200191505b509250505060405180910390f35b34801561011257600080fd5b5061011b610230565b005b34801561012957600080fd5b5061011b6004356102ba565b34801561014157600080fd5b5061014a61046f565b6040805173ffffffffffffffffffffffffffffffffffffffff9092168252519081900360200190f35b34801561017f57600080fd5b5061011b60043561048b565b34801561019757600080fd5b5061011b6004356104c1565b60018054604080516020600284861615610100026000190190941693909304601f810184900484028201840190925281815292918301828280156102285780601f106101fd57610100808354040283529160200191610228565b820191906000526020600020905b81548152906001019060200180831161020b57829003601f168201915b505050505081565b60005473ffffffffffffffffffffffffffffffffffffffff1632146102b657604080517f08c379a000000000000000000000000000000000000000000000000000000000815260206004820152601260248201527f6f6e6c79206f776e657220616c6c6f7765640000000000000000000000000000604482015290519081900360640190fd5b6000ff5b600254604080518082018252600f81527f73657373696f6e2d6d616e616765720000000000000000000000000000000000602080830191825292517f693ec85e0000000000000000000000000000000000000000000000000000000081526004810193845282516024820152825173ffffffffffffffffffffffffffffffffffffffff9095169463693ec85e949283926044019180838360005b8381101561036c578181015183820152602001610354565b50505050905090810190601f1680156103995780820380516001836020036101000a031916815260200191505b5092505050602060405180830381600087803b1580156103b857600080fd5b505af11580156103cc573d6000803e3d6000fd5b505050506040513d60208110156103e257600080fd5b5051604080517f882d5f7a00000000000000000000000000000000000000000000000000000000815260048101849052905173ffffffffffffffffffffffffffffffffffffffff9092169163882d5f7a9160248082019260009290919082900301818387803b15801561045457600080fd5b505af1158015610468573d6000803e3d6000fd5b5050505050565b60005473ffffffffffffffffffffffffffffffffffffffff1681565b6040805182815290517f71c2e31dde72b491e4b02270b0b15a6a4fc0dd6d696c8d0f43604a92ff1091939181900360200190a150565b505600a165627a7a723058200530b4a55221aa33cf84199feaae4387cc0c673d9aa1e0528138e3d2678056450029",
  "source": "pragma solidity 0.4.24;\n\nimport \"../platform/Named.sol\";\nimport \"../platform/Mortal.sol\";\nimport \"./api/ASessionOracle.sol\";\nimport \"../platform/Component.sol\";\nimport \"../managers/SessionManager.sol\";\n\ncontract SessionOracle is ASessionOracle, Named(\"session-oracle\"), Mortal, Component  {\n\n    string constant MANAGER = \"session-manager\";\n\n    constructor(address _config) Component(_config) public {}\n\n    function onNextCloseSession(uint256 sessionId) public {\n        emit CloseSession(sessionId);\n    }\n\n    function successClose(uint256 _sessionId) public {\n        ASessionManager(context.get(MANAGER)).confirmClose(_sessionId);\n    }\n\n    function failClose(uint256 _sessionId) public {\n        //TODO:implementation: add call to SessionManager::confirmFailClose\n    }\n\n}",
  "sourcePath": "/home/andrew/Desktop/solidity-experiments/callback-cash-in/contracts/oracles/SessionOracle.sol",
  "compiler": {
    "name": "solc",
    "version": "0.4.24+commit.e67f0147.Emscripten.clang"
  },
  "schemaVersion": "2.0.1",
  "updatedAt": "2018-11-07T12:50:05.548Z"
}