{
  "contractName": "SessionManager",
  "abi": [
    {
      "constant": true,
      "inputs": [],
      "name": "name",
      "outputs": [
        {
          "name": "",
          "type": "string"
        }
      ],
      "payable": false,
      "stateMutability": "view",
      "type": "function"
    },
    {
      "constant": false,
      "inputs": [],
      "name": "kill",
      "outputs": [],
      "payable": false,
      "stateMutability": "nonpayable",
      "type": "function"
    },
    {
      "constant": true,
      "inputs": [],
      "name": "owner",
      "outputs": [
        {
          "name": "",
          "type": "address"
        }
      ],
      "payable": false,
      "stateMutability": "view",
      "type": "function"
    },
    {
      "inputs": [
        {
          "name": "_config",
          "type": "address"
        }
      ],
      "payable": false,
      "stateMutability": "nonpayable",
      "type": "constructor"
    },
    {
      "constant": false,
      "inputs": [
        {
          "name": "_sessionId",
          "type": "uint256"
        },
        {
          "name": "_appId",
          "type": "uint256"
        },
        {
          "name": "_xToken",
          "type": "string"
        },
        {
          "name": "_kioskId",
          "type": "string"
        }
      ],
      "name": "createSession",
      "outputs": [],
      "payable": false,
      "stateMutability": "nonpayable",
      "type": "function"
    },
    {
      "constant": false,
      "inputs": [
        {
          "name": "_sessionId",
          "type": "uint256"
        }
      ],
      "name": "activate",
      "outputs": [],
      "payable": false,
      "stateMutability": "nonpayable",
      "type": "function"
    },
    {
      "constant": false,
      "inputs": [
        {
          "name": "_application",
          "type": "address"
        },
        {
          "name": "_sessionId",
          "type": "uint256"
        },
        {
          "name": "_success",
          "type": "function"
        },
        {
          "name": "_fail",
          "type": "function"
        }
      ],
      "name": "closeSession",
      "outputs": [],
      "payable": false,
      "stateMutability": "nonpayable",
      "type": "function"
    },
    {
      "constant": false,
      "inputs": [
        {
          "name": "_sessionId",
          "type": "uint256"
        }
      ],
      "name": "confirmClose",
      "outputs": [],
      "payable": false,
      "stateMutability": "nonpayable",
      "type": "function"
    }
  ],
  "bytecode": "0x60806040523480156200001157600080fd5b50604051602080620015d28339810160408181529151828201909252600f8082527f73657373696f6e2d6d616e6167657200000000000000000000000000000000006020830190815260008054600160a060020a031916331790558392916200007d91600191620002b8565b505080600160a060020a031663713b563f6040518163ffffffff167c0100000000000000000000000000000000000000000000000000000000028152600401602060405180830381600087803b158015620000d757600080fd5b505af1158015620000ec573d6000803e3d6000fd5b505050506040513d60208110156200010357600080fd5b505160038054600160a060020a031916600160a060020a03928316179055604080517fd0496d6a00000000000000000000000000000000000000000000000000000000815290519183169163d0496d6a916004808201926020929091908290030181600087803b1580156200017757600080fd5b505af11580156200018c573d6000803e3d6000fd5b505050506040513d6020811015620001a357600080fd5b505160028054600160a060020a031916600160a060020a03928316178082556040517ff2c298be00000000000000000000000000000000000000000000000000000000815260206004820190815260018054610100818316150260001901169490940460248301819052929094169363f2c298be93929091829160449091019084908015620002765780601f106200024a5761010080835404028352916020019162000276565b820191906000526020600020905b8154815290600101906020018083116200025857829003601f168201915b505092505050600060405180830381600087803b1580156200029757600080fd5b505af1158015620002ac573d6000803e3d6000fd5b5050505050506200035d565b828054600181600116156101000203166002900490600052602060002090601f016020900481019282601f10620002fb57805160ff19168380011785556200032b565b828001600101855582156200032b579182015b828111156200032b5782518255916020019190600101906200030e565b50620003399291506200033d565b5090565b6200035a91905b8082111562000339576000815560010162000344565b90565b611265806200036d6000396000f3006080604052600436106100825763ffffffff7c010000000000000000000000000000000000000000000000000000000060003504166306fdde03811461008757806308190726146101115780632d16d9d3146101b157806341c0e1b514610209578063882d5f7a1461021e5780638da5cb5b14610236578063b260c42a14610267575b600080fd5b34801561009357600080fd5b5061009c61027f565b6040805160208082528351818301528351919283929083019185019080838360005b838110156100d65781810151838201526020016100be565b50505050905090810190601f1680156101035780820380516001836020036101000a031916815260200191505b509250505060405180910390f35b34801561011d57600080fd5b50604080516020600460443581810135601f81018490048402850184019095528484526101af94823594602480359536959460649492019190819084018382808284375050604080516020601f89358b018035918201839004830284018301909452808352979a99988101979196509182019450925082915084018382808284375094975061030c9650505050505050565b005b3480156101bd57600080fd5b506101af600160a060020a03600435166024356c010000000000000000000000006044358181049163ffffffff680100000000000000009283900481169260643592830492041661055d565b34801561021557600080fd5b506101af610a0b565b34801561022a57600080fd5b506101af600435610a71565b34801561024257600080fd5b5061024b610f6b565b60408051600160a060020a039092168252519081900360200190f35b34801561027357600080fd5b506101af600435610f7a565b60018054604080516020600284861615610100026000190190941693909304601f810184900484028201840190925281815292918301828280156103045780601f106102d957610100808354040283529160200191610304565b820191906000526020600020905b8154815290600101906020018083116102e757829003601f168201915b505050505081565b600254604080518082018252600f815260008051602061121a8339815191526020808301918252925160e160020a63349f642f02815260048101938452825160248201528251600160a060020a039095169463693ec85e949283926044019180838360005b83811015610389578181015183820152602001610371565b50505050905090810190601f1680156103b65780820380516001836020036101000a031916815260200191505b5092505050602060405180830381600087803b1580156103d557600080fd5b505af11580156103e9573d6000803e3d6000fd5b505050506040513d60208110156103ff57600080fd5b50516040517f081907260000000000000000000000000000000000000000000000000000000081526004810186815260248201869052608060448301908152845160848401528451600160a060020a03909416936308190726938993899388938a93606481019160a490910190602087019080838360005b8381101561048f578181015183820152602001610477565b50505050905090810190601f1680156104bc5780820380516001836020036101000a031916815260200191505b50838103825284518152845160209182019186019080838360005b838110156104ef5781810151838201526020016104d7565b50505050905090810190601f16801561051c5780820380516001836020036101000a031916815260200191505b509650505050505050600060405180830381600087803b15801561053f57600080fd5b505af1158015610553573d6000803e3d6000fd5b5050505050505050565b600254604080518082018252600f815260008051602061121a8339815191526020808301918252925160e160020a63349f642f028152600481019384528251602482015282516000958695600160a060020a039091169463693ec85e9490939192839260440191908083838b5b838110156105e25781810151838201526020016105ca565b50505050905090810190601f16801561060f5780820380516001836020036101000a031916815260200191505b5092505050602060405180830381600087803b15801561062e57600080fd5b505af1158015610642573d6000803e3d6000fd5b505050506040513d602081101561065857600080fd5b5051604080517f17b1bf0e000000000000000000000000000000000000000000000000000000008152600481018a90529051919350600160a060020a038416916317b1bf0e916024808201926020929091908290030181600087803b1580156106c057600080fd5b505af11580156106d4573d6000803e3d6000fd5b505050506040513d60208110156106ea57600080fd5b5051905060018160048111156106fc57fe5b14610751576040805160e560020a62461bcd02815260206004820152601560248201527f73657373696f6e206973206e6f74204143544956450000000000000000000000604482015290519081900360640190fd5b604080517f0e82c1590000000000000000000000000000000000000000000000000000000081526004810189905268010000000000000000640100000000808a0263ffffffff808b169190911783026024850152908802908716170260448201529051600160a060020a03841691630e82c15991606480830192600092919082900301818387803b1580156107e557600080fd5b505af11580156107f9573d6000803e3d6000fd5b5050604080517fe4c24edd000000000000000000000000000000000000000000000000000000008152600481018b9052600360248201529051600160a060020a038616935063e4c24edd9250604480830192600092919082900301818387803b15801561086557600080fd5b505af1158015610879573d6000803e3d6000fd5b5050600254604080518082018252600e81527f73657373696f6e2d6f7261636c650000000000000000000000000000000000006020808301918252925160e160020a63349f642f02815260048101938452825160248201528251600160a060020a03909516965063693ec85e955091938392604401919080838360005b8381101561090e5781810151838201526020016108f6565b50505050905090810190601f16801561093b5780820380516001836020036101000a031916815260200191505b5092505050602060405180830381600087803b15801561095a57600080fd5b505af115801561096e573d6000803e3d6000fd5b505050506040513d602081101561098457600080fd5b5051604080517f98f47217000000000000000000000000000000000000000000000000000000008152600481018a90529051600160a060020a03909216916398f472179160248082019260009290919082900301818387803b1580156109e957600080fd5b505af11580156109fd573d6000803e3d6000fd5b505050505050505050505050565b600054600160a060020a03163214610a6d576040805160e560020a62461bcd02815260206004820152601260248201527f6f6e6c79206f776e657220616c6c6f7765640000000000000000000000000000604482015290519081900360640190fd5b6000ff5b600254604080518082018252600f815260008051602061121a8339815191526020808301918252925160e160020a63349f642f02815260048101938452825160248201528251600095869586958695600160a060020a039093169463693ec85e94919383926044909201918083838b5b83811015610af9578181015183820152602001610ae1565b50505050905090810190601f168015610b265780820380516001836020036101000a031916815260200191505b5092505050602060405180830381600087803b158015610b4557600080fd5b505af1158015610b59573d6000803e3d6000fd5b505050506040513d6020811015610b6f57600080fd5b5051604080517f17b1bf0e000000000000000000000000000000000000000000000000000000008152600481018890529051919550600160a060020a038616916317b1bf0e916024808201926020929091908290030181600087803b158015610bd757600080fd5b505af1158015610beb573d6000803e3d6000fd5b505050506040513d6020811015610c0157600080fd5b505192506003836004811115610c1357fe5b14610c8e576040805160e560020a62461bcd02815260206004820152603d60248201527f53657373696f6e20636f6e6669726d20636c6f7365206661696c65642e20526560448201527f71756972656420434c4f53455f5245515545535445442073746174652e000000606482015290519081900360840190fd5b604080517fe4c24edd000000000000000000000000000000000000000000000000000000008152600480820188905260248201529051600160a060020a0386169163e4c24edd91604480830192600092919082900301818387803b158015610cf557600080fd5b505af1158015610d09573d6000803e3d6000fd5b5050604080517fe31017c7000000000000000000000000000000000000000000000000000000008152600481018990528151600160a060020a038916945063e31017c79350602480830193928290030181600087803b158015610d6b57600080fd5b505af1158015610d7f573d6000803e3d6000fd5b505050506040513d6040811015610d9557600080fd5b5051600254604080518082018252601281527f73657373696f6e2d636f6e74726f6c6c657200000000000000000000000000006020808301918252925160e160020a63349f642f028152600481019384528251602482015282516c01000000000000000000000000870498506801000000000000000090960463ffffffff169650600160a060020a039094169463693ec85e94929392839260449091019180838360005b83811015610e51578181015183820152602001610e39565b50505050905090810190601f168015610e7e5780820380516001836020036101000a031916815260200191505b5092505050602060405180830381600087803b158015610e9d57600080fd5b505af1158015610eb1573d6000803e3d6000fd5b505050506040513d6020811015610ec757600080fd5b5051604080517f389424ea0000000000000000000000000000000000000000000000000000000081526004810188905268010000000000000000640100000000860263ffffffff8616170260248201529051600160a060020a039092169163389424ea9160448082019260009290919082900301818387803b158015610f4c57600080fd5b505af1158015610f60573d6000803e3d6000fd5b505050505050505050565b600054600160a060020a031681565b600254604080518082018252600f815260008051602061121a8339815191526020808301918252925160e160020a63349f642f028152600481019384528251602482015282516000958695600160a060020a039091169463693ec85e9490939192839260440191908083838b5b83811015610fff578181015183820152602001610fe7565b50505050905090810190601f16801561102c5780820380516001836020036101000a031916815260200191505b5092505050602060405180830381600087803b15801561104b57600080fd5b505af115801561105f573d6000803e3d6000fd5b505050506040513d602081101561107557600080fd5b5051604080517f17b1bf0e000000000000000000000000000000000000000000000000000000008152600481018690529051919350600160a060020a038416916317b1bf0e916024808201926020929091908290030181600087803b1580156110dd57600080fd5b505af11580156110f1573d6000803e3d6000fd5b505050506040513d602081101561110757600080fd5b50519050600081600481111561111957fe5b14611194576040805160e560020a62461bcd02815260206004820152603260248201527f53657373696f6e2061637469766174696f6e206661696c65642e20526571756960448201527f726564204352454154494e472073746174650000000000000000000000000000606482015290519081900360840190fd5b604080517fe4c24edd00000000000000000000000000000000000000000000000000000000815260048101859052600160248201529051600160a060020a0384169163e4c24edd91604480830192600092919082900301818387803b1580156111fc57600080fd5b505af1158015611210573d6000803e3d6000fd5b50505050505050560073657373696f6e2d73746f726167650000000000000000000000000000000000a165627a7a72305820ba7a5701869d2ecdc1b0631b075697374550e5cac5b56ea056c36040ab1e5db70029",
  "source": "pragma solidity 0.4.24;\n\nimport \"../platform/Named.sol\";\nimport \"../platform/Mortal.sol\";\nimport \"../platform/Component.sol\";\nimport \"./api/ASessionManager.sol\";\nimport \"../oracles/api/ASessionOracle.sol\";\nimport \"../storages/libs/SessionLib.sol\";\nimport \"../storages/api/ASessionStorage.sol\";\nimport \"../controllers/api/ASessionController.sol\";\n\ncontract SessionManager is ASessionManager, Named(\"session-manager\"), Mortal, Component {\n\n    string constant ORACLE = \"session-oracle\";\n    string constant CONTROLLER = \"session-controller\";\n    string constant STORAGE = \"session-storage\";\n\n    constructor(address _config) Component(_config) public {}\n\n    function createSession(uint256 _sessionId, uint256 _appId, string _xToken, string _kioskId) public {\n        ASessionStorage(context.get(STORAGE)).createSession(_sessionId, _appId, _kioskId, _xToken);\n    }\n\n    function activate(uint256 _sessionId) public {\n        //TODO:implementation: check if msg.sender is ORACLE\n        ASessionStorage sessionStorage = ASessionStorage(context.get(STORAGE));\n        SessionLib.Status status = sessionStorage.retrieveSessionStatus(_sessionId);\n        require(status == SessionLib.Status.CREATING, \"Session activation failed. Required CREATING state\");\n        sessionStorage.setSessionStatus(_sessionId, SessionLib.Status.ACTIVE);\n    }\n\n    // @formatter:off\n    function closeSession(\n        address _application,\n        uint256 _sessionId,\n        function(uint256) external _success,\n        function(uint256) external _fail\n    )\n        external\n    // @formatter:on\n    {\n        //TODO:implementation: check if msg.sender is owner of the session\n        ASessionStorage sessionStorage = ASessionStorage(context.get(STORAGE));\n        SessionLib.Status status = sessionStorage.retrieveSessionStatus(_sessionId);\n        require(status == SessionLib.Status.ACTIVE, \"session is not ACTIVE\");\n        sessionStorage.createSessionClose(_sessionId, _success, _fail);\n        sessionStorage.setSessionStatus(_sessionId, SessionLib.Status.CLOSE_REQUESTED);\n        ASessionOracle(context.get(ORACLE)).onNextCloseSession(_sessionId);\n    }\n\n    function confirmClose(uint256 _sessionId) public {\n        //TODO:implementation: check if msg.sender is ORACLE\n        ASessionStorage sessionStorage = ASessionStorage(context.get(STORAGE));\n        SessionLib.Status status = sessionStorage.retrieveSessionStatus(_sessionId);\n        require(status == SessionLib.Status.CLOSE_REQUESTED, \"Session confirm close failed. Required CLOSE_REQUESTED state.\");\n        sessionStorage.setSessionStatus(_sessionId, SessionLib.Status.CLOSED);\n        (function(uint256) external callback,) = sessionStorage.retrieveSessionClose(_sessionId);\n        ASessionController(context.get(CONTROLLER)).respondClose(_sessionId, callback);\n    }\n\n}",
  "sourcePath": "/home/andrew/Desktop/solidity-experiments/callback-cash-in/contracts/managers/SessionManager.sol",
  "compiler": {
    "name": "solc",
    "version": "0.4.24+commit.e67f0147.Emscripten.clang"
  },
  "schemaVersion": "2.0.1",
  "updatedAt": "2018-11-20T08:19:54.162Z"
}