{
  "contractName": "SessionStorage",
  "abi": [
    {
      "constant": true,
      "inputs": [],
      "name": "name",
      "outputs": [
        {
          "name": "",
          "type": "string"
        }
      ],
      "payable": false,
      "stateMutability": "view",
      "type": "function"
    },
    {
      "constant": false,
      "inputs": [],
      "name": "kill",
      "outputs": [],
      "payable": false,
      "stateMutability": "nonpayable",
      "type": "function"
    },
    {
      "constant": true,
      "inputs": [],
      "name": "owner",
      "outputs": [
        {
          "name": "",
          "type": "address"
        }
      ],
      "payable": false,
      "stateMutability": "view",
      "type": "function"
    },
    {
      "inputs": [
        {
          "name": "_config",
          "type": "address"
        }
      ],
      "payable": false,
      "stateMutability": "nonpayable",
      "type": "constructor"
    },
    {
      "anonymous": false,
      "inputs": [
        {
          "indexed": false,
          "name": "sessionId",
          "type": "uint256"
        },
        {
          "indexed": false,
          "name": "appId",
          "type": "uint256"
        },
        {
          "indexed": false,
          "name": "xToken",
          "type": "string"
        },
        {
          "indexed": false,
          "name": "status",
          "type": "uint256"
        },
        {
          "indexed": false,
          "name": "kioskId",
          "type": "string"
        }
      ],
      "name": "Saved",
      "type": "event"
    },
    {
      "anonymous": false,
      "inputs": [
        {
          "indexed": false,
          "name": "index",
          "type": "uint256"
        },
        {
          "indexed": false,
          "name": "status",
          "type": "uint256"
        }
      ],
      "name": "StatusUpdated",
      "type": "event"
    },
    {
      "anonymous": false,
      "inputs": [
        {
          "indexed": false,
          "name": "_sessionId",
          "type": "uint256"
        },
        {
          "indexed": false,
          "name": "_flag",
          "type": "bool"
        }
      ],
      "name": "ActiveCashIn",
      "type": "event"
    },
    {
      "constant": false,
      "inputs": [
        {
          "name": "_sessionId",
          "type": "uint256"
        },
        {
          "name": "_applicationId",
          "type": "uint256"
        },
        {
          "name": "_kioskId",
          "type": "string"
        },
        {
          "name": "_xToken",
          "type": "string"
        }
      ],
      "name": "createSession",
      "outputs": [],
      "payable": false,
      "stateMutability": "nonpayable",
      "type": "function"
    },
    {
      "constant": true,
      "inputs": [
        {
          "name": "_sessionId",
          "type": "uint256"
        }
      ],
      "name": "retrieveSession",
      "outputs": [
        {
          "name": "_applicationId",
          "type": "uint256"
        },
        {
          "name": "_kioskId",
          "type": "string"
        },
        {
          "name": "_xToken",
          "type": "string"
        },
        {
          "name": "_status",
          "type": "uint8"
        },
        {
          "name": "_hasActiveCashIn",
          "type": "bool"
        },
        {
          "name": "_hasActiveCashOut",
          "type": "bool"
        }
      ],
      "payable": false,
      "stateMutability": "view",
      "type": "function"
    },
    {
      "constant": true,
      "inputs": [
        {
          "name": "_sessionId",
          "type": "uint256"
        }
      ],
      "name": "retrieveSessionStatus",
      "outputs": [
        {
          "name": "_status",
          "type": "uint8"
        }
      ],
      "payable": false,
      "stateMutability": "view",
      "type": "function"
    },
    {
      "constant": false,
      "inputs": [
        {
          "name": "_sessionId",
          "type": "uint256"
        },
        {
          "name": "_status",
          "type": "uint8"
        }
      ],
      "name": "setSessionStatus",
      "outputs": [],
      "payable": false,
      "stateMutability": "nonpayable",
      "type": "function"
    },
    {
      "constant": false,
      "inputs": [
        {
          "name": "_sessionId",
          "type": "uint256"
        },
        {
          "name": "_success",
          "type": "function"
        },
        {
          "name": "_fail",
          "type": "function"
        }
      ],
      "name": "createSessionClose",
      "outputs": [],
      "payable": false,
      "stateMutability": "nonpayable",
      "type": "function"
    },
    {
      "constant": true,
      "inputs": [
        {
          "name": "_sessionId",
          "type": "uint256"
        }
      ],
      "name": "retrieveSessionClose",
      "outputs": [
        {
          "name": "_success",
          "type": "function"
        },
        {
          "name": "_fail",
          "type": "function"
        }
      ],
      "payable": false,
      "stateMutability": "view",
      "type": "function"
    }
  ],
  "bytecode": "0x60806040523480156200001157600080fd5b5060405160208062000d688339810160408181529151828201909252600f8082527f73657373696f6e2d73746f7261676500000000000000000000000000000000006020830190815260008054600160a060020a031916331790558392916200007d91600191620002b8565b505080600160a060020a031663713b563f6040518163ffffffff167c0100000000000000000000000000000000000000000000000000000000028152600401602060405180830381600087803b158015620000d757600080fd5b505af1158015620000ec573d6000803e3d6000fd5b505050506040513d60208110156200010357600080fd5b505160038054600160a060020a031916600160a060020a03928316179055604080517fd0496d6a00000000000000000000000000000000000000000000000000000000815290519183169163d0496d6a916004808201926020929091908290030181600087803b1580156200017757600080fd5b505af11580156200018c573d6000803e3d6000fd5b505050506040513d6020811015620001a357600080fd5b505160028054600160a060020a031916600160a060020a03928316178082556040517ff2c298be00000000000000000000000000000000000000000000000000000000815260206004820190815260018054610100818316150260001901169490940460248301819052929094169363f2c298be93929091829160449091019084908015620002765780601f106200024a5761010080835404028352916020019162000276565b820191906000526020600020905b8154815290600101906020018083116200025857829003601f168201915b505092505050600060405180830381600087803b1580156200029757600080fd5b505af1158015620002ac573d6000803e3d6000fd5b5050505050506200035d565b828054600181600116156101000203166002900490600052602060002090601f016020900481019282601f10620002fb57805160ff19168380011785556200032b565b828001600101855582156200032b579182015b828111156200032b5782518255916020019190600101906200030e565b50620003399291506200033d565b5090565b6200035a91905b8082111562000339576000815560010162000344565b90565b6109fb806200036d6000396000f3006080604052600436106100985763ffffffff7c010000000000000000000000000000000000000000000000000000000060003504166306fdde03811461009d57806308190726146101275780630e82c159146101c757806317b1bf0e1461021357806341c0e1b51461024f5780638da5cb5b14610264578063a4c8b66a146102a2578063e31017c7146103ca578063e4c24edd1461041f575b600080fd5b3480156100a957600080fd5b506100b261043d565b6040805160208082528351818301528351919283929083019185019080838360005b838110156100ec5781810151838201526020016100d4565b50505050905090810190601f1680156101195780820380516001836020036101000a031916815260200191505b509250505060405180910390f35b34801561013357600080fd5b50604080516020600460443581810135601f81018490048402850184019095528484526101c594823594602480359536959460649492019190819084018382808284375050604080516020601f89358b018035918201839004830284018301909452808352979a9998810197919650918201945092508291508401838280828437509497506104ca9650505050505050565b005b3480156101d357600080fd5b506101c56004356c010000000000000000000000006024358181049163ffffffff68010000000000000000928390048116926044359283049204166105b6565b34801561021f57600080fd5b5061022b600435610677565b6040518082600481111561023b57fe5b60ff16815260200191505060405180910390f35b34801561025b57600080fd5b506101c5610690565b34801561027057600080fd5b5061027961071a565b6040805173ffffffffffffffffffffffffffffffffffffffff9092168252519081900360200190f35b3480156102ae57600080fd5b506102ba600435610736565b6040518087815260200180602001806020018660048111156102d857fe5b60ff1681526020018515151515815260200184151515158152602001838103835288818151815260200191508051906020019080838360005b83811015610329578181015183820152602001610311565b50505050905090810190601f1680156103565780820380516001836020036101000a031916815260200191505b50838103825287518152875160209182019189019080838360005b83811015610389578181015183820152602001610371565b50505050905090810190601f1680156103b65780820380516001836020036101000a031916815260200191505b509850505050505050505060405180910390f35b3480156103d657600080fd5b506103e26004356108b4565b604080516801000000000000000064010000000096870263ffffffff96871617810282529390950291909316170260208301528051918290030190f35b34801561042b57600080fd5b506101c560043560ff602435166108ff565b60018054604080516020600284861615610100026000190190941693909304601f810184900484028201840190925281815292918301828280156104c25780601f10610497576101008083540402835291602001916104c2565b820191906000526020600020905b8154815290600101906020018083116104a557829003601f168201915b505050505081565b6040805160e08101825285815260208082018681528284018681526060840186905260006080850181905260a0850181905260c0850181905289815260048452949094208351815590516001820155925180519293926105309260028501920190610934565b506060820151805161054c916003840191602090910190610934565b5060808201518160040160006101000a81548160ff0219169083600481111561057157fe5b021790555060a08201516004909101805460c0909301511515620100000262ff0000199215156101000261ff0019909416939093179190911691909117905550505050565b6040805180820182526801000000000000000064010000000096870263ffffffff9687161781028252938602928516929092178302602080840191825260009788526005905295209051815473ffffffffffffffffffffffffffffffffffffffff6c01000000000000000000000000808404821688029386900487169390931777ffffffffffffffffffffffffffffffffffffffffffffffff1992831617845596516001909301805492840490971690950292909104909216179116179055565b6000908152600460208190526040909120015460ff1690565b60005473ffffffffffffffffffffffffffffffffffffffff16321461071657604080517f08c379a000000000000000000000000000000000000000000000000000000000815260206004820152601260248201527f6f6e6c79206f776e657220616c6c6f7765640000000000000000000000000000604482015290519081900360640190fd5b6000ff5b60005473ffffffffffffffffffffffffffffffffffffffff1681565b60008181526004602090815260408083206001808201546002928301805485519381161561010002600019011693909304601f810186900486028301860190945283825294606094859491938493849390928301828280156107d95780601f106107ae576101008083540402835291602001916107d9565b820191906000526020600020905b8154815290600101906020018083116107bc57829003601f168201915b50505060008a8152600460209081526040918290206003018054835160026001831615610100026000190190921691909104601f8101849004840282018401909452838152959a5093509091508301828280156108775780601f1061084c57610100808354040283529160200191610877565b820191906000526020600020905b81548152906001019060200180831161085a57829003601f168201915b5050506000998a52505060046020819052604090982090970154959794969560ff8082169661010083048216965062010000909204169350915050565b6000908152600560205260409020805460019091015473ffffffffffffffffffffffffffffffffffffffff64010000000080840482169463ffffffff94851694918404909216921690565b600082815260046020819052604090912081018054839260ff1990911690600190849081111561092b57fe5b02179055505050565b828054600181600116156101000203166002900490600052602060002090601f016020900481019282601f1061097557805160ff19168380011785556109a2565b828001600101855582156109a2579182015b828111156109a2578251825591602001919060010190610987565b506109ae9291506109b2565b5090565b6109cc91905b808211156109ae57600081556001016109b8565b905600a165627a7a72305820490d0936f5a314f925d36d5c6db7825ed3ab9140f53124f901162bf332e3f0bb0029",
  "source": "pragma solidity 0.4.24;\n\nimport \"../platform/Named.sol\";\nimport \"../platform/Mortal.sol\";\nimport \"../platform/Component.sol\";\nimport \"./api/ASessionStorage.sol\";\n\ncontract SessionStorage is ASessionStorage, Named(\"session-storage\"), Mortal, Component {\n    \n    using SessionLib for SessionLib.Session;\n\n    mapping(uint256 => SessionLib.Session) private sessions;\n    mapping(uint256 => SessionLib.Close) private sessionToClose;\n    \n    constructor(address _config) Component(_config) public {}\n\n    // @formatter:on\n    function createSession(\n        uint256 _sessionId,\n        uint256 _applicationId,\n        string _kioskId,\n        string _xToken\n    )\n        public\n    {\n        sessions[_sessionId] = SessionLib.Session({\n            id: _sessionId,\n            applicationId: _applicationId,\n            kioskId: _kioskId,\n            xToken: _xToken,\n            status: SessionLib.Status.CREATING,\n            hasActiveCashIn: false,\n            hasActiveCashOut: false\n        });\n    }\n    // @formatter:off\n\n    // @formatter:off\n    function retrieveSession(\n        uint256 _sessionId\n    )\n        public\n        view\n        returns (\n            uint256 _applicationId,\n            string _kioskId,\n            string _xToken,\n            SessionLib.Status _status,\n            bool _hasActiveCashIn,\n            bool _hasActiveCashOut\n        )\n    // @formatter:on\n    {\n        _applicationId = sessions[_sessionId].applicationId;\n        _kioskId = sessions[_sessionId].kioskId;\n        _xToken = sessions[_sessionId].xToken;\n        _status = sessions[_sessionId].status;\n        _hasActiveCashIn = sessions[_sessionId].hasActiveCashIn;\n        _hasActiveCashOut = sessions[_sessionId].hasActiveCashOut;\n    }\n\n    // @formatter:off\n    function retrieveSessionStatus(\n        uint256 _sessionId\n    )\n        public\n        view\n        returns (\n            SessionLib.Status _status\n        )\n    // @formatter:on\n    {\n        _status = sessions[_sessionId].status;\n    }\n\n    // @formatter:off\n    function setSessionStatus(\n        uint256 _sessionId,\n        SessionLib.Status _status\n    )\n        public\n    // @formatter:on\n    {\n        sessions[_sessionId].status = _status;\n    }\n\n    // @formatter:off\n    function createSessionClose(\n        uint256 _sessionId,\n        function(uint256) external _success,\n        function(uint256) external _fail\n    )\n        public\n    // @formatter:on\n    {\n        sessionToClose[_sessionId] = SessionLib.Close(_success, _fail);\n    }\n\n    // @formatter:off\n    function retrieveSessionClose(\n        uint256 _sessionId\n    )\n        public\n        view\n        returns (\n            function(uint256) external _success,\n            function(uint256) external _fail\n        )\n    // @formatter:on\n    {\n        _success = sessionToClose[_sessionId].success;\n        _fail = sessionToClose[_sessionId].fail;\n    }\n\n}",
  "sourcePath": "/home/andrew/Desktop/solidity-experiments/callback-cash-in/contracts/storages/SessionStorage.sol",
  "compiler": {
    "name": "solc",
    "version": "0.4.24+commit.e67f0147.Emscripten.clang"
  },
  "schemaVersion": "2.0.1",
  "updatedAt": "2018-11-16T12:27:20.887Z"
}